:020000040800F2
:10000000C0050020990000084D0200084F020008BA
:1000100000000000000000000000000000000000E0
:100020000000000000000000000000005F02000867
:100030000000000000000000A700000863020008A4
:10004000AB000008AB000008AB000008AB000008E4
:10005000AB00000865020008AB000008AB00000818
:10006000AB000008AB000008AB000008AB000008C4
:10007000AB000008E34E0008AD470008AB000008E5
:100080000448854605F070FD00480047DD22000861
:10009000C046C046C00500200448804704480047C9
:1000A000FEE7FEE7FEE7FEE7FEE7FEE72D010008BC
:1000B0008100000801460020584A1068C008C000AE
:1000C00002460A431046554A106070470EB500209C
:1000D0000290019000900120FFF7ECFF504840682B
:1000E0004F4948600846406848604E484069402192
:1000F00088434C49486100BF4948006802210840D4
:1001000001900098401C00900198002804D105211E
:10011000090200988842EFD10198022803D10020FB
:1001200000F03AFB01E000BFFEE70EBD10B53D4810
:100130004069402188433B49486139484068032170
:100140000903084336494860084640683649084074
:100150003349486008468069802188433049886176
:100160000846006A314908402D4908620846006A7D
:100170002F4908432A49086228480068102108438B
:1001800026490860FFF7A2FF0120C0062349486204
:1001900010BD70B500240025224840694021084068
:1001A0000446402C0ED11E48406803210903084034
:1001B000002803D11F482049086002E01F481E495B
:1001C00008601BE016484068032109030840002826
:1001D00003D11B48184908600FE01148406803210B
:1001E0000903084001210903884203D11548124937
:1001F000086002E011481049086000BF00BF0848CD
:100200004068F021084000090F490D5C29460A4862
:10021000006805F003F90849086070BD002002403D
:1002200000100240007000400FF8FFF9F0FFFF3FA0
:10023000010C0000005A62020000002000127A0047
:10024000006CDC0200366E01FE650008704700BFDE
:10025000FEE700BFFEE700BFFEE700BFFEE7704716
:100260007047704710B50121194801F04BFA00287A
:100270002DD00121164801F057FA16480078401C8D
:10028000C0B21449087005281DDB00200870124810
:100290000068401C1049086010480088002812DDE2
:1002A0000F480068C007C00F002801D101F0C0FB53
:1002B0000A480088401E094908800846008800282E
:1002C00001D101F0BCFB02F0D3FA03F033F910BD09
:1002D000000C0040080000200400002098000020CE
:1002E0000038004010B50446F648844203D104208B
:1002F00000F03CFB07E0F448844203D1082000F002
:1003000035FB00E010BD00BFFCE710B5012000F098
:100310002DFB10BD30B501460020002273E0012303
:1003200083400B401A46002A6CD0082801D00928C7
:1003300008D1E44B1B6845000224AC402343E14C48
:10034000236007E0DF4B1B6845000324AC402343D8
:10035000DC4C236008230340002B17D0082801D071
:10036000092809D1D74B5B6A4407E50E0F24AC403E
:10037000A343D44C636212E0D24B5B6A4407E50EA0
:100380000F24AC402343CF4C636208E0CD4B1B6A83
:100390004407E50E0F24AC402343CA4C2362C94BEB
:1003A0005B6801248440A343C64C6360082808D1DD
:1003B0002346DB6845000124AC402343C14CE36085
:1003C00012E0092808D1BF4BDB6845000224AC408D
:1003D0002343BC4CE36007E0BA4BDC6845000323D1
:1003E000AB409C43B74BDC60B64B9B680124844018
:1003F0002343B44CA3602346DB6A01248440A34317
:10040000B04CE362401C0B460341002B87D130BD4A
:1004100030B501460020002233E0012383400B4029
:100420001A46002A2CD0A84B1B6845000324AC4078
:100430002343A54C236023461B6A4407E50E0F2483
:10044000AC402343A04C236223465B6801248440D4
:10045000A3439D4C63602346DC6845000323AB4007
:100460009C43994BDC609B68012484402343964C59
:10047000A3602346DB6A01248440A343924CE362D9
:10048000401C0B460341002BC7D130BD30B503469D
:10049000002008241440002C0ED0586A5407E50EA2
:1004A0000F24AC400546A54328465407E50E0C46EC
:1004B000AC40204358620DE0186A5407E50E0F2443
:1004C000AC400546A54328465407E50E0C46AC4013
:1004D0002043186230BD70B5034600200024186820
:1004E0008C07A40F56000325B5400646AE433046A0
:1004F00056002546B54028431860012905D011292A
:1005000003D0022901D012290BD15868012595404A
:100510000646AE43304610250D402D099540284330
:10052000586070BD30B50B460021C16855000324EA
:10053000AC400D46A543294655001C46AC4021431E
:10054000C16030BD30B50B46002181680124944064
:100550000D46A54329461C4694402143816030BD89
:1005600030B50B460021C16A012494400D46A543D5
:1005700029461C4694402143C16230BDF0B5064671
:100580000C460025002720E00121A94020680840F2
:100590000746002F18D02A4630466169FFF776FFDC
:1005A0002A4630466168FFF796FF2A463046A16822
:1005B000FFF7B8FF2A463046E168FFF7C3FF2A4637
:1005C00030462169FFF7CCFF6D1C2068E840002809
:1005D000DAD1F0BD3D4901600021C16041600F21C9
:1005E0004161002181600161704702461069084045
:1005F000002801D0012070470020FCE7014608696F
:1006000080B27047024650690840002801D001209E
:1006100070470020FCE70146486980B2704781615D
:100620007047816270470A04826170478162704737
:100630004161704742694A4042617047002201238C
:100640001B040B431A46C261C161C261C269C2691F
:100650007047F0B50546144600220020002D01D158
:10066000184E00E0184E334608260E40002E0ED0DD
:100670004A07520F586A97000F26BE400746B743F5
:10068000384697002646BE40304358620DE04A0780
:10069000520F186A97000F26BE400746B7433846E8
:1006A00097002646BE4030431862F0BD0146002048
:1006B000074A10684009400102460A431046044AAE
:1006C00010607047001C004000200040FFFF000049
:1006D0000014004001460020114A126840239A434A
:1006E0001046002902D04022104303E04023024676
:1006F0009A4310460A4A1060704701460020084A93
:10070000126820239A431046002902D02022104369
:1007100003E0202302469A431046014A10607047C6
:1007200000140040D2484068032109030843D0491F
:10073000486008464068CF490840CD4948600846AF
:10074000806980218843CA4988610846006ACA498D
:100750000840C74908620846006AC8490843C449B6
:100760000862704701460020C14A1068F023024623
:100770009A4310460A011043BD4A10607047014673
:100780000020BB4A90697C2302469A4310468A00A7
:100790001043B74A9061704701460020B44A506840
:1007A00003231B0302469A43104602460A4310469F
:1007B000AF4A5060704701460020AD4A5068F023B0
:1007C00002469A43104602460A431046A84A506021
:1007D000704701460020A64A506807231B020246C4
:1007E0009A43104602460A431046A14A5060704799
:1007F000014600209E4A106A4000400802460A4313
:1008000010469B4A1062704701460020984A106AC1
:1008100003239B0202469A43104602460A431046AF
:10082000934A1062704701460020914A106A0009FD
:10083000000102460A4310468D4A10627047014685
:1008400000208B4A106A930402469A4310460246DF
:100850000A431046864A1062704770B50446002568
:10086000002687484069402108400546402D19D19F
:100870007F484068032109030840002802D18148CD
:10088000206001E0804820607948006A0007000F7E
:100890007E490E5C31467B4804F0C0FD20617C48F7
:1008A000E06030E0724840680321090308400028F6
:1008B00002D1784820600DE06D48406803210903AB
:1008C000084001210903884202D17348206001E0F9
:1008D0006D4820606648006A0007000F6B490E5C97
:1008E00031466C4804F09AFD20616148006A03219A
:1008F00089020840800A69490E5C3146654804F067
:100900008DFDE06000BF00BF59484068F0210840FD
:10091000000963490E5C3146206804F07FFD606089
:1009200053484068072109020840000A5D490E5CEF
:100930003146606804F072FDA06070BD4C490969E1
:1009400001434B4A11617047494909698143484A4B
:1009500011617047464949690143454A51617047F1
:10096000434949698143424A516170474049C968D6
:1009700001433F4AD1601146C9688143D160704745
:10098000014600203A4A50680001000902460A4325
:100990001046374A5060704701460020344A50687C
:1009A00003235B0602469A43104602460A4310465A
:1009B0002F4A506070470146002200234A11012A45
:1009C00002D0022A06D102E02948036805E028483F
:1009D000836902E02648C36900BF00BFCA06D20E81
:1009E000012090401840002801D0012070470020CD
:1009F000FCE71F48C069012108431D49C86108463A
:100A0000C06940084000C86170471948406A012128
:100A1000090388431649486270471548406A012116
:100A2000090308431249486270471148406A400868
:100A300040000F49486270470D48406A0121084351
:100A40000B49486270470A488069802188430849F9
:100A5000886170470648806980210843044988619D
:100A600070470348806910490840000A7047000039
:100A7000001002400FF8FFF9F0FFFF3F010C0000EB
:100A800000700040005A620200127A0026660008D8
:100A900040420F00006CDC0200366E013666000832
:100AA0000E6600081E66000800FFFF0010B5044631
:100AB000F848844203D1C014FFF758FF0CE0F64811
:100AC000844203D18014FFF751FF05E0F3488442CC
:100AD00002D14014FFF74AFF10BD10B50A460021AD
:100AE000016870240B46A34319460B46134319466D
:100AF000016010BD81857047018570478182704714
:100B000001867047002905D002680123DB021A43E1
:100B1000026004E002680123DB029A43026070472E
:100B2000002905D002680123DB031A43026004E0B8
:100B300002680123DB039A430260704702680323C3
:100B40001B029A43026002680A430260704730B594
:100B500005460C46D148854207D061882846FFF7F4
:100B6000BCFFE1882846FFF7E9FFA1882846FFF788
:100B7000C1FF21882846FFF7BFFFC648854203D141
:100B8000217A2846FFF7BCFF01212846FFF7B6FF70
:100B9000C248854203D0617A2846FFF7B3FFBD48BB
:100BA000854202D0BC48854203D1A17A2846FFF78E
:100BB000B7FF30BD0021C943818000210180C18081
:100BC0004180017241728172704781847047014691
:100BD000888C70470146888D70470146088D7047A4
:100BE000016801221143016070470168490849000A
:100BF000016070470A460021018BA94B19400B4642
:100C000013431946018370470A460021018BA54B07
:100C1000194013061B0C1943018370470A46002133
:100C2000818B9F4B19400B461343194681837047B4
:100C30000A460021818B9B4B194013061B0C19435C
:100C4000818370470A4600215423195A944B194056
:100C50000B461343194654231952704701688022EA
:100C60001143016070470168802291430160704721
:100C7000016802229143016070470168022211431A
:100C800001607047002904D0026804231A430260FF
:100C900003E0026804239A43026070478182704730
:100CA0004168042211434160704741680422914326
:100CB00041607047416801221143416070474168BB
:100CC0004908490041607047818670470187704735
:100CD0008187704740221152704758221152704745
:100CE0000146888E70470146088F70470146888FFD
:100CF000704701464020405A704701465820405AEC
:100D000070470A4600210189654B683B19400B4634
:100D10001343194601817047F0B50C4600250021A8
:100D2000066A760876000662058B016A5C4EEB3E29
:100D300035401E05360C16433543564EB04202D0A0
:100D4000554EB04207D102260F46B7433946012619
:100D50002643314306E00A260F46B74339460126AB
:100D60002643314305830162F0BDF8B50C460025EA
:100D7000002100260096066A1027BE430662058BF6
:100D8000016A26010096484E35401E07360C354351
:100D90001606360C35433F4EB04202D03E4EB042AE
:100DA00008D120260F46B74339461027009E3E4300
:100DB000314306E0A0260F46B743394610262643A6
:100DC000314305830162F8BDF8B50C4600250021CA
:100DD00000260096066AFF270137BE430662858B10
:100DE000016A260200962E4EEB3E35401E05360C5B
:100DF00016433543274EB04208D146150F46B74338
:100E000039468715009E3E43314308E005267602A9
:100E10000F46B7433946FF260136264331438583C3
:100E20000162F8BDF8B50C460025002100260096A9
:100E3000066A01273F03BE430662858B016A2603CB
:100E40000096194E35401606360C35431E07360CF3
:100E50003543104EB04208D146140F46B7433946C9
:100E60008714009E3E43314307E0012676030F4678
:100E7000B743394676102643314385830162F8BD76
:100E80000A460189094B194013061B0C19430181BD
:100E900070470000000C00400004004000100040BB
:100EA000F7FF0000FFF70000FF0C0000FFF000005C
:100EB0000A460189FB4B19400B4613431946018131
:100EC00070470122D203914204D102890B461A4392
:100ED000028103E002895204520C028170470189A9
:100EE000F14A114001817047028BEF4B5B1F1A40A2
:100EF0000283028B0A4302837047028BEB4B1A403A
:100F00000283028B0B061B0C1A4302837047828BF1
:100F1000E54B5B1F1A408283828B0A4382837047B2
:100F2000828BE24B1A408283828B0B021A438283AC
:100F3000704730B504460D4629462046FFF7E1FECE
:100F4000208907210843208130BDF0B504460D46B5
:100F500016461F46602D06D13B46012231462046EB
:100F6000FFF703FF05E03B46012231462046FFF72D
:100F7000D3FE29462046FFF7C4FE208907210843F7
:100F80002081F0BDFFB5054616461F4600243946B0
:100F90002846FFF775FF31462846FFF792FF28469F
:100FA0000199FFF785FF2C89BF48044007200443BF
:100FB000BD4869380440702004432C81FFBDF0B562
:100FC00004460F4615461E4631462046FFF758FF99
:100FD00029462046FFF775FF39462046FFF768FF90
:100FE00020890121890308432081F0BD0289AE4B8D
:100FF0001A40028102890A43028170470289AA4B82
:10100000793B1A40028102890A4302817047426893
:1010100070239A43426042680A4342607047026804
:1010200008239A43026002680A4302607047002165
:101030004180012181800021C1800181704730B54C
:1010400005460C46208800280AD12389A288618899
:101050002846FFF761FEE1882846FFF745FF25E0B7
:10106000208804280AD12389A28861882846FFF7AE
:101070007CFEE1882846FFF740FF17E0208808281B
:101080000AD12389A28861882846FFF79DFEE1885E
:101090002846FFF73CFF09E02389A288618828469B
:1010A000FFF7C0FEE1882846FFF73AFF30BDF0B5F4
:1010B00005460C46002601276088002801D102263B
:1010C00000E00026A088012801D1022700E00127C6
:1010D0002088002814D12389A28861882846FFF738
:1010E0001BFEE1882846FFF7FFFE23893A4631467A
:1010F0002846FFF73AFEE1882846FFF7FEFE13E098
:101100002389A28861882846FFF72FFEE1882846B8
:10111000FFF7F3FE23893A4631462846FFF7FCFDE8
:10112000E1882846FFF7E0FEF0BD30B50B46016AC6
:10113000022494400D46A54329461C469440214371
:10114000016230BD30B50B46016A082494400D465B
:10115000A54329461C4694402143016230BD026AE2
:1011600001238B401A4302627047026A01238B40BD
:101170009A4302627047026A04238B401A43026258
:101180007047026A04238B409A430262704702460A
:10119000106A0840002801D0012070470020FCE7B9
:1011A00070B50346002000241846183001259540EC
:1011B000ACB21D6AE643B6B235401D62002A01D0CA
:1011C000082A09D15510281805687026B54305600E
:1011D00005680D4305600DE0151F2D046D0C2818E2
:1011E000056807263603B543056005680E06360C0C
:1011F0003543056070BD0A460021018B2A4B693BCF
:1012000019400B4613431946018370470A460021D3
:10121000018B274B194013061B0C194301837047A0
:101220000A460021818B204B693B19400B46134332
:101230001946818370470A460021818B1C4B194057
:1012400013061B0C1943818370470A46002154235F
:10125000195A154B693B19400B4613431946542341
:10126000195270470A460021018B0F4BDB1C1940B5
:101270000B4613431946018370470A460021018B30
:101280000C4B194013061B0C1943018370470A4687
:101290000021818B044BDB1C19400B46134319467C
:1012A00081837047FFCF0000F8FF0000FFF30000CC
:1012B000FF8F0000FFFB00000A460021818BFB4BE3
:1012C000194013061B0C1943818370470A460021FD
:1012D0005423195AF64B19400B461343194654230D
:1012E000195270470A460021018BF14B7C3B194093
:1012F0000B4613431946018370470A460021018BB0
:101300004904490C13061B0C1943018370470A4614
:101310000021818BE64B7C3B19400B461343194659
:10132000818370470A460021818B4904490C1306CA
:101330001B0C1943818370470A4600215423195A14
:10134000DB4B7C3B19400B4613431946542319527F
:101350007047F0B505460C460027002600212846B8
:10136000FFF703FF6E682F8BD1486C380740D048D9
:10137000401C074020880743218900222846FFF7A8
:10138000D4FE6088002804D000212846FFF7E7FE3D
:1013900003E000212846FFF7E8FEC64885421DD13C
:1013A000618900222846FFF7CDFEA088002804D0DE
:1013B00000212846FFF7DFFE03E000212846FFF763
:1013C000E0FEFF21013130468843064649003046A1
:1013D00088430646A0890643E08906436E602F8352
:1013E000E088A886F0BDF0B505460C46002700262B
:1013F00004212846FFF7B9FE6E682F8BAE480740E0
:10140000AE48074020780006000C074321890422DB
:101410002846FFF78AFE6088002804D00421284669
:10142000FFF79DFE03E004212846FFF79EFEA1483A
:1014300085421FD1618904222846FFF783FEA088D8
:10144000002804D004212846FFF795FE03E004217C
:101450002846FFF796FE012189023046884306465A
:101460004900304688430646A08980000643E0894B
:10147000800006436E602F83E0882887F0BDF0B5BA
:1014800005460C460027002608212846FFF76DFE7A
:101490006E68AF8B86486C3807408548401C074013
:1014A00020880743218908222846FFF73EFE6088EE
:1014B000002804D008212846FFF751FE03E0082148
:1014C0002846FFF752FE7B4885421FD161890822DA
:1014D0002846FFF737FEA088002804D008212846B8
:1014E000FFF749FE03E008212846FFF74AFE0121E5
:1014F000090330468843064649003046884306467D
:10150000A08900010643E089000106436E60AF83B5
:10151000E088A887F0BDF0B504460D4600260027F8
:101520000C212046FFF721FE6768A68B6248064023
:101530006248064028780006000C064329890C22E0
:101540002046FFF7F2FD6888002804D00C212046D1
:10155000FFF705FE03E00C212046FFF706FE554885
:10156000844206D10114384688430746A889800181
:1015700007436760A683E98840200153F0BDF0B5BA
:1015800004460D460026002710212046FFF7EDFDFA
:1015900067685420065B46486C3806402888064336
:1015A000298910222046FFF7C0FD6888002804D052
:1015B00010212046FFF7D3FD03E010212046FFF75E
:1015C000D4FD3C48844206D18113384688430746FF
:1015D000A88900020743676054200653E988582011
:1015E0000153F0BD4421095A0122D2031143442280
:1015F000115270474421095A4A04520C44210A529C
:1016000070470021018041808180C180018141813A
:101610008181C18170470168012212041143016078
:10162000704701680122120491430160704701680C
:1016300001225204114301607047016801225204E3
:10164000914301607047002905D0026801239B0285
:101650001A43026004E0026801239B029A4302607D
:10166000704730B505460C46208861880843A1883C
:101670000843E18808432189084361890843A18917
:10168000084344214853A07B002804D00021284669
:10169000FFF7D9FF03E001212846FFF7D4FFE07BE5
:1016A00000280DD02846FFF7B6FF0CE0FFFB000036
:1016B000FBFF0000000C0040FF8F0000FFFC00005B
:1016C0002846FFF7AEFF207C002803D02846FFF70E
:1016D000AEFF02E02846FFF7B0FF30BD00210180D9
:1016E00041808180C1800181418181818173C17389
:1016F0000174704782890A438281704782898A43D4
:101700008281704710B5024600230024106908400A
:101710000346908908400446002B03D0002C01D0DA
:10172000012010BD0020FCE7CA4302617047024659
:1017300010690840002801D0012070470020FCE714
:10174000CA4302617047000010B50446A7488442AE
:1017500003D11020FFF70AF905E0A548844202D121
:101760002020FFF703F910BD10B50A46002181893A
:101770000C240B46A34319460B461343194681819B
:1017800010BD10B50A4600218189032464020B466E
:10179000A34319460B4613431946818110BD10B56A
:1017A0000A460021018A032424030B46A343194659
:1017B0000B4613431946018210BD10B50A4600219D
:1017C0008189012424030B46A34319460B46134386
:1017D0001946818110BDF0B587B005460E4600BFA1
:1017E00000BF00BF00BF6846FFF737F802980690B9
:1017F000B1001923069A5A43104603F00FFE07461C
:101800006421384603F00AFE040121096422514391
:10181000791A090108463230114603F0FFFD0590A0
:1018200005980009012805D16421384603F0F6FD2A
:10183000401C040105980007000F04432C8107B0E9
:10184000F0BD70B505460C4628462168FFF7C3FF7A
:10185000A1882846FFF7B1FFE1882846FFF79FFFE0
:1018600021892846FFF78DFF61892846FFF77CFF15
:1018700070BD4B21C901016000218180C1800181BF
:101880000C214181704781890122520311438181DA
:10189000704781890122520391438181704770B55D
:1018A0000246002300240025002010460E06730F78
:1018B000CC06E40E0126A6403546012B01D10C30A2
:1018C00004E0022B01D1103000E0143006682E43F2
:1018D000066070BD70B5024600230024002500207C
:1018E00010460E06730FCC06E40E0126A6403546C0
:1018F000012B01D10C3004E0022B01D1103000E0AB
:1019000014300668AE43066070BD028A12091201E7
:101910000282028A0A430282704782890123DB0223
:101920009A43828182890A43828170478189022297
:1019300011438181704781890222914381817047DF
:10194000CA05D20D8280704701468888C005C00D47
:10195000704781890122114381817047818A082261
:10196000114381827047818A0822914381827047A6
:10197000024610880840002801D00120704700204E
:10198000FCE7CA430280704730B502460B4600248C
:10199000002100251806450FD906C90E01208840F0
:1019A0000146012D02D19089014006E0022D02D1AD
:1019B000108A014001E0908A01401C120120A040E1
:1019C000044610880440002903D0002C01D00120D7
:1019D00030BD0020FCE710B5002300220B120124CB
:1019E0009C40A2B2D443048010BD000000440040DB
:1019F0000048004010B50220FEF7B8FF10BD1349A3
:101A00000968FC229143114A11601146096801439B
:101A1000116070470D480068022108430B490860B7
:101A200070470A48006802218843084908607047E7
:101A300006480068012108430449086070470348CC
:101A400000684008400001490860704700380040C5
:101A500010B5044661780020205600F035F8A078D3
:101A6000002809D000202056C206D20E0121914044
:101A7000324A116000BF0AE000202056C206D20E92
:101A8000012191402D4A8032116000BF00BF10BD7E
:101A90002B49096901432A4A11617047284909699C
:101AA0008143274A11617047042806D125490969F5
:101AB00004221143234A116105E0224909690422E5
:101AC0009143204A1161704710B500281BDA1C4A67
:101AD0001C3203071B0F083B9B089B00D25883074F
:101AE000DC0EFF23A3409A438B071B0E8407E40EF2
:101AF000A3401A43124B1C330407240F083CA408CC
:101B0000A4001A5118E00D4A03231B02D2188308BF
:101B10009B00D2588307DC0EFF23A3409A438B0718
:101B20001B0E8407E40EA3401A43044B0324240233
:101B30001B198408A4001A5110BD000000E100E048
:101B400000ED00E000E000E001460020FD4A1068E2
:101B5000C008C00002460A431046FA4A10607047A7
:101B6000F84800684007400F7047F64800681021A9
:101B70000843F44908607047F24800681021884320
:101B8000F04908607047F048EE494860EF48486007
:101B90007047EC48006980210843EA4908617047B2
:101BA000E948E8498860E94888607047E548006985
:101BB000012149028843E34908617047E14800690F
:101BC000012149020840002801D00120704700206F
:101BD000FCE70420DB49C968C907C90F002901D007
:101BE000012010E0D749C96804221140002901D022
:101BF000022008E0D349C96810221140002901D011
:101C0000032000E00420704710B503460424FFF7CA
:101C1000E0FF044603E0FFF7DCFF04465B1E012CF7
:101C200001D1002BF7D1002B00D10724204610BD95
:101C3000C449C9680143C34AD160704730B50446FE
:101C400004256806844202D3C148844201D9062093
:101C500030BD3420FFF7ECFF0B200004FFF7D4FF6A
:101C60000546042D19D1B748006902210843B5493A
:101C70000861B848044008464461006940210843AF
:101C8000B04908610B200004FFF7BEFF0546AD48D0
:101C9000006902218843AB4908612846D8E710B59E
:101CA00004243420FFF7C4FF0B200004FFF7ACFF2F
:101CB0000446042C16D1A348006904210843A14915
:101CC000086108460069402108439E4908610B20CD
:101CD0000004FFF799FF04469A48006904218843ED
:101CE00098490861204610BD10B504243420FFF740
:101CF0009FFF0B200004FFF787FF0446042C17D139
:101D000090480069A10108438E49086108460069AE
:101D1000402108438B4908610B200004FFF774FF42
:101D2000044688480069FF210131884385490861DC
:101D3000204610BD70B504460D460426A007800F4E
:101D4000002801D0062070BD3420FFF771FF01206C
:101D50004003FFF759FF0646042E10D17948006969
:101D600001210843774908612560F002FFF74CFF25
:101D700006467448006940084000724908613046D0
:101D8000E1E77048C069C00FC007002801D00120FA
:101D900070470020FCE710B50424FFF7F2FF00288D
:101DA00001D0052010BD3420FFF742FF0B200004B6
:101DB000FFF72AFF0446042C26D1FFF7F1FE614805
:101DC0000069202108435F490861084600694021F5
:101DD00008435C4908610B200004FFF715FF044627
:101DE000042C09D13420FFF723FF56480069202135
:101DF00088435449086107E0072C05D05148006921
:101E0000202188434F4908612046CBE7FFB50546AE
:101E10000E4617460424FFF7B4FF002802D0052021
:101E200004B0F0BDFFF7BCFE3420FFF701FF0B202C
:101E30000004FFF7E9FE0446042C1DD14148006967
:101E4000102108433F49086130463843039908434D
:101E5000099908430A990843000428433E49086049
:101E6000E002FFF7D1FE0446072C05D03548006993
:101E700010218843334908612046D1E770B50546F3
:101E80000E460424FFF77DFF002801D0052070BD19
:101E90003420FFF7CDFE01204003FFF7B5FE0446D6
:101EA000042C17D1FFF77CFE264800691021084357
:101EB000244908613004284327494860E002FFF7BD
:101EC000A3FE0446072C05D01E4800691021884354
:101ED0001C4908612046DAE7FFB505460E4617465D
:101EE00004243420FFF7A4FEE002FFF78DFE044631
:101EF000FFF747FF002802D0052004B0F0BD042CF6
:101F00001DD1FFF74DFE0F480069102108430D4910
:101F1000086130463843039908430999084300048F
:101F200028430D498860E002FFF76EFE0446072C47
:101F300005D0044800691021884302490861204601
:101F4000DBE700000020024023016745AB89EFCDAD
:101F5000FF750008FF7F000800F6FF1F70B50546FB
:101F60000E460424FFF70DFF002801D0052070BDA8
:101F70003420FFF75DFE01204003FFF745FE0446D5
:101F8000042C17D1FFF70CFEC74800691021084345
:101F9000C549086130042843C449C860E002FFF71E
:101FA00033FE0446072C05D0BF4800691021884342
:101FB000BD4908612046DAE730B50424BA48C06953
:101FC0007C2108408503FFF7DCFE002801D00520B6
:101FD00030BD3420FFF72CFE0B200004FFF714FE69
:101FE0000446042C3ED1FFF7DBFDAF4800692021F9
:101FF0000843AD4908610846006940210843AA49E1
:1020000008610B200004FFF7FFFD0446042C21D1DA
:102010003420FFF70DFEA448006920218843A2491F
:10202000086108460069102108439F490861FF20A4
:10203000000428409D4908600B200004FFF7E4FDE0
:102040000446072C0ED09848006910218843964911
:10205000086107E0072C05D09348006920218843D8
:10206000914908612046B3E730B504248E48C06921
:102070007C2108408503FFF784FE002801D005205D
:1020800030BD3420FFF7D4FD0B200004FFF7BCFD6A
:102090000446042C3DD1FFF783FD834800692021CD
:1020A00008438149086108460069402108437E4988
:1020B00008610B200004FFF7A7FD0446042C20D183
:1020C0003420FFF7B5FD7848006920218843764920
:1020D0000861084600691021084373490861A5207A
:1020E0002843724908600B200004FFF78DFD044669
:1020F000072C0ED06C480069102188436A4908619A
:1021000007E0072C05D0684800692021884366490C
:1021100008612046B4E76448C069022108400028ED
:1021200001D0012070470020FCE730B504245E4850
:10213000C0697C2108408503FFF7EDFF002801D12D
:10214000A5200543FFF71DFE002801D0052030BD66
:102150003420FFF76DFD0B200004FFF755FD04460A
:10216000042C48D1FFF71CFD4F480069202108438B
:102170004D49086108460069402108434A49086101
:102180000B200004FFF740FD0446042C2BD1342023
:10219000FFF74EFD44480069202188434249086109
:1021A00008460069102108433F4908613F4805601F
:1021B0000B200004FFF728FD0446042C0AD134202C
:1021C000FFF736FD3A483949C8600B200004FFF795
:1021D0001BFD0446072C0ED03348006910218843AC
:1021E0003149086107E0072C05D02F4800692021FC
:1021F00088432D4908612046A9E701462A48C0695D
:1022000080080840002801D0012070470020FCE72A
:102210002548006AC0B270472348006A0F210902AE
:102220000840000A704701461F48006A000A08403B
:10223000002801D0012070470020FCE71A48006AFE
:10224000FF2109040840000C70471748006820214E
:102250000840002801D0012070470020FCE7124907
:1022600009690143104A116170470F4909698143A7
:102270000D4A1161704701460B48C06808400028AC
:1022800001D0012070470020FCE701460648C069E4
:102290000840002801D0012070470020FCE70A46D2
:1022A0000243014B5A6270470020024000F6FF1FB4
:1022B000CC33FFFF00B587B00420FEF74BFB01A82D
:1022C000FEF788F910200190002002900220039070
:1022D00001A98A48FEF752F907B000BD1CB51321C9
:1022E0008901864800F052F9C021844800F080F945
:1022F0000120800281498861C021804800F070F986
:1023000002F0F0FA00F082F900F074FA694601A8D0
:1023100002F0AEFA68460079002803D168460078DA
:10232000002804D068460178007900F09DFA02F098
:102330001FFB00F07AFF7D20C00003F00AF801F0D7
:1023400045FFFFF7B7FF01214B20C00102F03EFB24
:1023500002F086FE002400F09EFB694805682EE02E
:1023600001F0E8F800F0DAF900F0A2FB00280CD048
:10237000644800F0F4F900F0D1F9FF20F53002F0E4
:10238000E8FF642002F0D3FA20E05D480068411BBA
:10239000601CFA225043814211D3601CC4B2E00792
:1023A000C00F002805D0584800F0D9F900F0B6F960
:1023B00005E00521554803F074F800F0AFF95048E6
:1023C0000068401B7D2109018842C9D300BF00F08D
:1023D0006BFB4B20C00002F0AAFA02F01FFF02F0D4
:1023E00049FF01F077FF88E049480078002804D0D1
:1023F00002F04CFF0020464908704648007800284B
:1024000007D000204349087043A246A149A002F02A
:102410007EF94C480078002807D000204949087010
:1024200049A24BA14EA002F072F951480078002851
:1024300004D000204E49087002F095F94D4800780C
:10244000002819D04B480178684601714948417805
:102450006846417147488178684681714548C1782E
:102460006846C1710020434908706B46DA79997952
:10247000587902F009F900BF214800683E4909680F
:10248000401A322807D300F0EFFD00F047F91C484E
:1024900000683949086002F0E4FD194800683749CE
:1024A0000968401AFF21F531884203D314480068B7
:1024B0003249086032480078002806D11048006888
:1024C00030490968401AC82808D300202C490870F0
:1024D00001F023FF0A4800682A490860084800689C
:1024E00029490968401A7D210901884205D302F073
:1024F000FDF8034800682449086075E7001C0040A7
:1025000004000020672B000003D90000D400002045
:10251000A4000020AA0000206F76657268656174CF
:10252000000000004F766572686561742073746FF7
:10253000700000004F564552484541545F53544F78
:1025400050000000AB0000206E6F726D616C0000E7
:10255000456D657267656E63792073746F700000F6
:10256000454D455247454E43595F53544F50000027
:10257000A9000020A50000200C0000201000002071
:1025800068000020140000201800002030B587B03B
:1025900005460C461A48854203D10420FEF7DAF9B5
:1025A00005E01848854202D10820FEF7D3F9164805
:1025B00084420BDA01A8FEF70DF801940120029085
:1025C0000020059001A92846FDF7D8FF07B030BDCF
:1025D00070B504460D4629462046FEF72BF870BD1F
:1025E00070B504460D4629462046FEF718F870BD22
:1025F00070B504460D4629462046FEF712F870BD18
:10260000001C004000200040FFFF000000B587B024
:102610000420FEF79FF901A8FDF7DCFF28200190B8
:102620000120029001A96F48FDF7A8FF08216D481D
:10263000FDF7F5FF20216B48FDF7F1FF07B000BD66
:1026400008B509E00021009103E000BF0099491C92
:10265000009100990C29F8D30146421E90B200293E
:10266000F0D108BD10B520215E48FDF7D8FF082144
:102670005C48FDF7D4FF0220FFF7E2FF2021594814
:10268000FDF7CFFF0220FFF7DBFF10BD10B52021C3
:102690005448FDF7C6FF0220FFF7D2FF082151483A
:1026A000FDF7BDFF0220FFF7CBFF20214D48FDF7CE
:1026B000B6FF0220FFF7C4FF10BD70B50446002529
:1026C00022E008214748FDF7ACFF0220FFF7B8FFE2
:1026D00000BFE007C00F002804D020214148FDF7CB
:1026E0009EFF03E020213F48FDF79BFF00BF022033
:1026F000FFF7A6FF08213B48FDF791FF0420FFF7F5
:102700009FFF6410681CC5B2082DDADB082135482C
:10271000FDF787FF0220FFF793FF70BD10B5FFF7AD
:10272000A1FF4020FFF7C9FFFFF7B0FFFFF79AFFB7
:10273000C020FFF7C2FF002405E02B49085DFFF72A
:10274000BCFF601CC4B2102CF7DBFFF79FFFFFF744
:1027500089FF8F20FFF7B1FFFFF798FF10BDFEB58F
:1027600004460A21204602F06FFECDB20A2120461F
:1027700002F06AFE0A21009002F066FECEB26421E9
:10278000204602F061FE0A21009002F05DFECFB209
:102790007D21C900204602F057FE0A21009002F078
:1027A00053FEC8B202901149204602F04DFE0A21A4
:1027B000009002F049FEC8B201900D490198085CF2
:1027C000094908700A490298085C07494870084896
:1027D000C05D88700648805DC8700548405D08711E
:1027E000FEBD0000001C0040D400002010270000A7
:1027F0003A66000800B587B00420FEF7ABF801A8E0
:10280000FDF7E8FE01200003019000200290012066
:10281000039001A9FE48FDF7B1FE0120FD490870B3
:102820000020FD490870FD490870FD490870487096
:10283000FC490870FC490870FC490870FC49088094
:10284000FC490880FC490870FC4908704870887091
:10285000C870FF20FA490870487088700020F94954
:102860000870487007B000BDF64A1070517070478C
:10287000FCB5E74A126901231B031A40100BEA4A10
:10288000127890427ED0F04A11780022EE4B1A70F6
:10289000012878D1DF4A1278012A13D123290EDBCF
:1028A00041290CDC0222DB4B1A700022DA4B1A7031
:1028B000E64B1A70E14B1A705A709A70B6E0DA4A19
:1028C0001070FCBDD34A1278022AF7D1DF4A127881
:1028D000012A7DD10A46DE4B1B789B18DBB201939F
:1028E000019B052B26DB019B0B2B23DCD84B1B7894
:1028F000012B0ADBD64B1B78042B06DC042A04DBF5
:10290000082A02DC002300931AE0D14B1B78042B29
:102910000ADBCF4B1B78082B06DC012A04DB042AD8
:1029200002DC012300930BE00123BA4C2370BE4B61
:102930001870C6E70123B74C2370BB4B1870C0E773
:10294000B54B1B78182B27DA009B002B1FD0B24DFC
:102950002B78DD176D0FED18ED10B84E755DAE4E8E
:102960003478E617760F3619F610F600A61B0727FF
:10297000BF1B0126BE403543A74E3378DE17760FC6
:10298000F61801E055E042E0F610AC4FBD55A24B01
:102990001B785B1CA04C23709F4B1B78182B2ED1EF
:1029A000A64B1B78A64C2478A3421BD1A34B5B7883
:1029B000A34C6478A34215D1A04B9B78A04CA4787B
:1029C000A3420FD19D4B1B78954C23709B4B00E08D
:1029D00019E05B786370994B9B78924C23700123CC
:1029E0008E4C2370954B1B78954C2370934B5B78E2
:1029F0006370924B9B78A3700123864C2370002355
:102A0000924C237012E00122824B1A700EE00028D3
:102A10000CD1804A1278022A08D18C4A1278002AF6
:102A200004D18B4A11700122884B1A707E4A1070B3
:102A300010E0854A1278521C834B1A701A4612789D
:102A4000642A07DD0122734B1A7000227E4B1A7034
:102A50007E4B1A7000BF34E7724800787047002838
:102A600005D06F49097801706D4949784170704708
:102A70007848006870477749086070477648007862
:102A800070477549087070476448007870470020A7
:102A90006249087070470120704908700020704931
:102AA00008705E490870704700206C4908707047D4
:102AB0006B4800787047002805D06249097801709A
:102AC0006049497841707047664B1860664B1960E1
:102AD000664B1A60704710B556480088002804DD20
:102AE00054480088401E534908805C4800780028FC
:102AF00015D04A480078012811D14A4800780128A9
:102B000009D1474800784F490870454840784870D7
:102B100001205349087000204049087010BD3F480B
:102B20000078012872D1474800783D4909788842E9
:102B3000F8D1444840783A4949788842F2D13E4831
:102B40000078002807D137480078012803D035489D
:102B50000078042807D138480078012807D1354883
:102B60000088002803DD00202C490870D6E72D4896
:102B700000782E490978884249D02A4800780128EF
:102B80007CD0022804D0042879D0062878D126E009
:102B9000364801682F48006802F095FC2D4908600E
:102BA000314801682B48006802F09AFD03D22E4894
:102BB0000068284908602C4801682648006802F02F
:102BC00085FD02D1FF20913000E0C820284908800F
:102BD000012028490870002027490870BFE02348D9
:102BE00001681C48006802F0BFFC1A4908601D48D3
:102BF00001681848006802F069FD03D219480068AE
:102C0000144908601748016812483AE0B3E0AEE0A2
:102C1000001C00402B0000202C0000201D00002084
:102C20001F0000201E000020330000203400002080
:102C300036000020480000201C0000202D0000204D
:102C400038000020310000204A0000204B00002006
:102C50004C00002024000020280000202900002033
:102C60002A000020400000203C00002044000020FA
:102C7000980000209A0000209B00002044E011E012
:102C80006CE0006802F022FD02D1FF20913000E0EC
:102C9000C82041490880012040490870002040496F
:102CA00008705CE03F48007801281AD13E4800785F
:102CB000012803D03C480078022807D103203A4974
:102CC0000870FF209130344908801CE036480078B5
:102CD000032818D1042034490870C8202E490880E0
:102CE00011E0C8202C49088030480078401C2F494A
:102CF000087007202C4908702C480078042802DD51
:102D000001202A4908702AE026480078002801D1CD
:102D1000012000E0002023490870084600780028C0
:102D200003D02148007807280ED11F4800780728D3
:102D300002D100201B49087005201B490870FF20A4
:102D400091301549088008E0062017490870C8200E
:102D50001149088016481749088000E000BF00BFED
:102D60001548007815490870002015490880002092
:102D7000144908700EE01248008819218901884220
:102D800005DA0F480088401C0D49088002E0002049
:102D90000A49087000BFC1E6980000209A00002090
:102DA0009B0000201C0000209C0000209D000020B3
:102DB000983A0000480000201E0000203400002047
:102DC000360000201D0000200146012906D00229FE
:102DD00006D0042907D0062907D102E00120704758
:102DE00000BF0220FBE70320F9E70020F7E7FEB56C
:102DF0000646FA49304602F0BFFB3F210906009023
:102E000002F061FB074602F039FCC0B201900021DC
:102E1000304602F05BFC00D20026F149304602F059
:102E20005FFC00D2EE4E0A21019802F00DFBC4B205
:102E30000A21019802F008FBCDB20521E94802F011
:102E400030FBE948005D80210843E6498870E64888
:102E5000405DC870FEBD7320E2490870772048705D
:102E60003E2088706D20C870792008717047F8B5D1
:102E700005460021284602F029FC00D20025DB4946
:102E8000284602F02DFC00D2D84DD949284602F040
:102E900073FB07463F21090602F015FB064602F0C8
:102EA000EDFB84B20521CF4802F0FBFAD149204660
:102EB00002F0CAFA06460A2102F0C6FACA48405C85
:102EC000C84908707D21C900204602F0BDFA0646B7
:102ED0000A2102F0B9FAC448405CC2494870642132
:102EE000204602F0B1FA06460A2102F0ADFABE48C9
:102EF000405C80210843BB4988700A21204602F0CB
:102F0000A3FA06460A2102F09FFAB748405CB54989
:102F1000C8700A21204602F097FAB348405CB149D4
:102F20000871F8BDF8B505460521AE4802F0B9FABA
:102F3000E1200001854245DA3C21284602F084FA6E
:102F4000C4B23C21284602F07FFACEB20A2C22DB22
:102F50000A21204602F078FAA349085CA1490870CA
:102F60000A21204602F070FA9F48405C8021084305
:102F70009C4948700A21304602F066FA9A49085C7A
:102F8000984988700A21304602F05EFA9648405C03
:102F90009449C87015E09448005D80210843914928
:102FA00048700A21304602F04FFA8F49085C8D497B
:102FB00088700A21304602F047FA8B48405C894904
:102FC000C87050E0E1210901284602F03DFAC4B280
:102FD000E1210901284602F037FA0F463C21384624
:102FE00002F032FAC6B2632C01DD63243B260A2CC0
:102FF00022DB0A21204602F027FA7B49085C794946
:1030000008700A21204602F01FFA7748405C8021B0
:103010000843744948700A21304602F015FA724993
:10302000085C704988700A21304602F00DFA6E483B
:10303000405C6C49C87015E06B48005D8021084316
:10304000684948700A21304602F0FEF96649085C7A
:10305000644988700A21304602F0F6F96248405C03
:103060006049C87000BFF8BD70B500205D49487167
:1030700061480078030002F048FE0A0610204E1155
:103080005A6377825FD5002404E0402055490855F3
:10309000601CC4B2052CF8DBC5E000BF0521514817
:1030A00002F0FFF955480088002805DD4E485349D5
:1030B0000988405C4B490871B5E051480078002808
:1030C00006D001280DD0022813D0032821D118E002
:1030D000FFF7CEFC0546FFF78AFE01204149487103
:1030E00017E048480088FFF71DFF10203D49487150
:1030F0000FE045480088FFF732FB2020394948712E
:1031000007E042480068FFF7B2FE022035494871E7
:1031100000BF00BF87E03E480078002802D0FFF7DC
:103120009AFE03E005212F4802F0BBF97BE0394805
:103130000068FFF75CFE76E00020FFF758FE72E0C3
:10314000FFF79CFC0546042D00DD0425732025496E
:103150000870002048708870C8702348405D08716E
:103160002D48405D48715EE000201E49087048709F
:1031700088707920C8701C488078087153E027480F
:10318000007800280DD0002016490870487088701B
:103190007920C870144821490978405C11490871A8
:1031A0001AE01F48007800280CD000200D49087054
:1031B0004870792088700C484078C8700A48C079F7
:1031C000087109E00020074908704870887079206C
:1031D000C87005480078087125E000000000204113
:1031E00066661E41D40000203A6600085CFF794400
:1031F0000000C84210270000500000205C000020A2
:1032000069000020520000205400002058000020D7
:1032100074000020780000205B660008C1000020D8
:10322000C000002000BF00BF70BD10B5FD48FFF713
:1032300042FC0020FC490870FC490880FC490880D9
:10324000FC490880FC4908600320FC4908800020F4
:10325000FB490880FB4908800120FFF712FC002091
:10326000F9490870F9490860F94908600120F949ED
:1032700008700020F8490860F8490860F8490860BB
:10328000F8490870FFF7F0FE10BD10B50446E64897
:1032900004700020ED490860ED4908600120F24902
:1032A0000870230002F031FD0A06183A4E595D6994
:1032B000717D14890120FFF7E4FB0020E9490870C3
:1032C0007F20C005FFF7D7FB0A20E849487075E06A
:1032D0000020FFF7D0FB71E00320D8490880D848D0
:1032E0000088401CD64908800020D0490880D04979
:1032F000088001F0D1FDCF4908800020CE49086048
:10330000D0490880D64908607F20C005D8490860A8
:10331000FFF7B1FB0A20D54948704FE0D448006858
:10332000FFF7A9FB0020C8490870C9490860CC49CB
:103330000860D0490860D0490870D0490870D04969
:1033400008703BE0FFF794FBC34908600020C349C5
:1033500008600120BF49087030E00320B7490880A9
:103360002CE0FFF785FBBC4908600020BB490860E2
:103370007F20C005BE49086020E00120FFF781FBE7
:10338000FF202D30AD49088018E00020FFF773FBC7
:103390007F20C005B6490860FF209130B9490880F8
:1033A0000CE00020FFF767FB7F20C005B0490860F4
:1033B00019204001B349088000E000BF00BF10BDE4
:1033C000F8B504460D4698480078030002F09DFCCD
:1033D0000A06191A737C7D7E99A307AF00BF012CE2
:1033E00006D10120FFF751FFC820A649088007E059
:1033F000032C05D10620FFF748FFC820A14908800B
:1034000096E095E0022C42D1022D1BD1FFF730FB54
:1034100007469D4902F057F806469C49304602F09F
:103420005FF900D2994E3046FFF725FB97493046A9
:1034300002F04CF902D1FF20913000E0C820914900
:1034400008801EE0FFF714FB07468F4902F08CF856
:1034500006467F21C905304602F038F901D27F26A1
:10346000F6053046FFF707FB7F21C905304602F01D
:103470002DF902D1FF20913000E0C8208149088059
:1034800000BF0020704908707149086012E0032CE9
:1034900007D10320FFF7F9FEFF209130794908801A
:1034A00008E0012C06D10520FFF7EFFEFF20913048
:1034B000744908803CE0012C05D10420FFF7E5FEAB
:1034C000C8207049088033E000BF31E0012C07D1EB
:1034D0000020FFF7DAFEFF2091306A4908800FE0F4
:1034E000032C0DD1FFF7CAFA401CC6B2042E00DD32
:1034F00001263046FFF7C5FAC8206249088000BFA0
:1035000016E0012C06D10020FFF7BFFEFF2091300E
:103510005C4908800CE0012C08D100205C4908704F
:10352000FFF7B3FEFF2091305649088000E000BF4E
:1035300000BFF8BDF0B585B0564800680490564904
:1035400004980968441A002C01D105B0F0BD524915
:10355000049808605148007800281CD0FFF794FABE
:10356000002817D0FFF778FA0546012D0FD14C4AF5
:1035700051781078FFF778F9494A5178107801F0BE
:1035800088F90120474908702648FFF794FAFFF7A9
:103590007EFA00BFD9E7FFF777FA00282CD003A8FE
:1035A000FFF75DFA6846007B1E490978884220D102
:1035B0006846407B1B49497888421AD1FFF74CFA8C
:1035C00005462846FFF700FC064626480078854257
:1035D00003D124480078002807D1002E03D02946C3
:1035E0003046FFF7EDFE1F48057000202E490860A9
:1035F00000BFFFF74CFA0DE02B48006800192A497C
:10360000086008460068782804D30020154908702F
:10361000254908600D48006800190C4908600248F7
:10362000007843E08F00002050000020520000206E
:103630005400002084000020580000205C0000207E
:103640005E00002060000020690000206C00002067
:103650007000002074000020780000207C00002012
:10366000800000209100002068000020E40000207D
:1036700064000020880000208C0000208D000020C5
:103680008E00002098000020CDCCCC3D3333734019
:10369000C100002004000020A0000020290000201C
:1036A0001F0000202A00002094000020030002F0E8
:1036B0002CFB0AF80627FAF6F5F4F9F2F1F2F748CE
:1036C00000687D21C900884212D3F548008800288F
:1036D0000EDDF3480088401EF1490880EF4800687D
:1036E0007D21C900401AED4908606420ED49088039
:1036F000EB480088002802D10220FFF7C6FD7BE1DD
:1037000001F0D1FB0746822F01DD04250CE07D2F5F
:1037100001DD032508E0782F01DD022504E06E2F8E
:1037200001DD012500E00025DF480078854205D055
:10373000DD4805700020DD4908600DE0DB480068C9
:103740000019DA49086008460068D949884203D35D
:10375000D5480078D7490870D6480078D649097806
:10376000884216D0D3480078012807DBD14800787A
:10377000032803DC0120D149087006E0CD48007819
:10378000042802D10120CE490870CA480078CA49ED
:103790000870C848007801280DD0022809D00328F5
:1037A00005D0042809D10720FFF76FFD07E0C54EBB
:1037B00005E0C54E03E0C54E01E0C54E00BF00BFA9
:1037C000FFF756F93146039001F08AFF04D23046E4
:1037D000FFF751F9BF480660B6480078042800D1C9
:1037E0000AE1BD4800680019BB4908600846006846
:1037F0007D21C90088420BD3B8480088401CB749D6
:103800000880B54800687D21C900401AB2490860A7
:10381000204601F02CFF0190FFF72AF90090019952
:1038200001F0AAFEAE49029001F0E3FE0390AD481C
:103830000168039801F047FEAA490860AA49A9480F
:10384000006801F099FE039001F018FFA749088075
:10385000A74800680019A649086008460068A549FD
:1038600088420FD3A2480068401AA1490860A249C3
:103870000978481CC117890F091889108900411A55
:103880009D4A117001F008FB9C490988401A9C4927
:103890000880B1E08CE0ADE004E093E05FE040E060
:1038A00001E0A8E0A8E09748006800199549086081
:1038B00000219548006801F013FF18D29148006874
:1038C000962814D38F48006896388E4908608F492F
:1038D0008D48006801F048FE8B49086000218A4845
:1038E000006801F0F3FE02D200208749086080489A
:1038F000006800197E49086008460068FF21F5311C
:1039000088420DD37A480068401A79490860804897
:103910000078002801D1012000E000207C490870D7
:103920006AE05E4800687D21C90088420FD35C4888
:10393000008800280BDD5A480088401E584908803E
:10394000564800687D21C900401A5449086054480F
:103950000088002802D10220FFF797FC4CE069485C
:10396000006800196749086000216748006801F095
:10397000B7FE19D263480068962818D361480068DA
:1039800096386049086061495F48006801F0ECFDC5
:103990005D49086000215C48006801F097FE06D28E
:1039A00000205949086002E00920FFF76EFC23E07F
:1039B0003A4800687D21C900884202D30020FFF701
:1039C00064FC19E0354800685249884207D300205A
:1039D000FFF75BFCFF2091303249088009E02F4956
:1039E00009684C4A501A7D21C90001F017FD2C4985
:1039F000088001E000BF00BF00BF00BFA5E510B513
:103A0000044645480078030002F07FF90A061F3497
:103A10008820C79BB1BB07C700BF012C06D101207E
:103A2000FFF733FCC8201F4908800DE0042C0BDB96
:103A3000072C09DCE11EC8B2FFF723F80620FFF7C8
:103A400024FCC82017490880A8E000BF002C07D13B
:103A50000520FFF71AFCFF2091301249088008E08A
:103A6000022C06D10320FFF710FCFF2091300D49F6
:103A7000088093E0002C07D10520FFF706FCFF200B
:103A800091300849088008E0022C06D10320FFF796
:103A9000FCFBFF209130034908807FE06C00002090
:103AA0005C000020980000208C000020880000208E
:103AB000102700008D0000208E000020A9000020AB
:103AC000AA000020000040409A995940666666406E
:103AD0003333734064000020800000205200002037
:103AE00000BA5B4A580000200000C8426000002075
:103AF00070000020B80B0000690000208400002046
:103B0000540000207C00002078000020CDCCCC3D6B
:103B100074000020E093040050000020002C07D126
:103B20000520FFF7B2FBFF2091301D49088007E018
:103B3000032C05D10420FFF7A8FBC82018490880F2
:103B40002CE0002C07D10020FFF79FFBFF209130D5
:103B5000134908800AE0042C08DB072C06DCE11E70
:103B6000C8B2FEF78EFFC8200D49088016E0002C71
:103B700006D10020FFF789FBFF209130084908801B
:103B80000CE0002C08D1002006490870FFF77DFBEF
:103B9000FF2091300249088000E000BF00BF10BD47
:103BA00098000020C1000020FB480068401CFA4932
:103BB0000860704710B51021F84801F072FC10BD84
:103BC00070B504460D460BE000BF8021F448FDF7B8
:103BD000CFFE0028F9D02178641CF148FDF7B0FE33
:103BE0002846691E8DB20028EED100BF4021EC4866
:103BF000FDF7BEFE0028F9D070BD3FB581B01D466F
:103C0000AA21009101216846FFF7DAFF55210091B2
:103C100001216846FFF7D4FF012101A8FFF7D0FF7B
:103C2000012102A8FFF7CCFF012103A8FFF7C8FF7D
:103C3000002405E028190121FFF7C2FF601CC4B26F
:103C40006846007B8442F5DB5520009001216846E0
:103C5000FFF7B6FF05B030BD10B5D24B5870997064
:103C6000DA700123CF4C237010BD00B501460B0064
:103C700002F04BF8080507090B0D0F111315022070
:103C800000BD0120FCE70320FAE70420F8E7062046
:103C9000F6E70720F4E70820F2E70920F0E7002024
:103CA000EEE700B501460B0002F02FF80B1B0709E9
:103CB0000B0D0F11131517191B00BBA000BDBCA0E5
:103CC000FCE7BDA0FAE7BEA0F8E7BFA0F6E7C1A0F9
:103CD000F4E7C2A0F2E7C3A0F0E7C4A0EEE7C5A0F6
:103CE000ECE7B4A0EAE710B5C6480078072801D190
:103CF000012010BD01F0D7F86E2801DD0120F8E7A2
:103D00000020F6E700B50246130001F0FEFF0A06A8
:103D1000112A435C757B8187078D00BF002903D082
:103D2000012903D1002000BD0120FCE70320FAE7B0
:103D300002290ED004DC002909D001290FD104E0AA
:103D4000032908D080290AD107E00120EBE70020F1
:103D5000E9E70020E7E70120E5E70020E3E70320AB
:103D6000E1E702290ED004DC002909D001290FD196
:103D700004E0032908D080290AD107E00120D2E716
:103D80000020D0E70020CEE70120CCE70020CAE7E2
:103D90000320C8E702290ED004DC002909D001293C
:103DA0000FD104E0032908D080290AD107E00320BD
:103DB000B9E70020B7E70120B5E70020B3E700200E
:103DC000B1E70320AFE702290ED004DC002909D0B7
:103DD00001290FD104E0032908D080290AD107E086
:103DE0000120A0E700209EE700209CE701209AE741
:103DF000002098E7032096E7002901D1012092E7EF
:103E0000022090E7002901D100208CE703208AE7F7
:103E1000002901D1002086E7032084E7002901D191
:103E2000012080E703207EE703207CE7F8B5054604
:103E3000284601F01CFC0646734901F0DAFB0446F3
:103E40007F21C905204601F041FC01D27F24E40511
:103E50006E49204601F044FC00D26C4C6C48046072
:103E600068480078022802D12046FEF704FE664921
:103E7000204601F081FB07463F21090601F023FBA4
:103E8000064601F0FBFB45494870F8BD70B5054694
:103E9000FFF729FF002805D0012211460520FFF772
:103EA000DBFE70BD802157480078FFF72BFF0446EA
:103EB000002C06D0012C0DD0022C11D0032C15D1D2
:103EC00015E02846FFF7B2FF002211460520FFF754
:103ED000C3FE12E0002211460520FFF7BDFE0CE0F4
:103EE000022201210520FFF7B7FE06E000BF0122F4
:103EF00011460520FFF7B0FE00BF00BF00BFD0E7AE
:103F000070B504462046FFF7B0FE0646042C1CDBC5
:103F1000072C1ADC3B480078002807D03948007885
:103F2000092803D037480078062808D12046FFF733
:103F300066FD002211463046FFF78EFE04E00122A6
:103F400011463046FFF788FE70BD012C01D0032CCE
:103F500009D1FFF7C8FE002805D0012211463046DE
:103F6000FFF77AFEF0E7214626480078FFF7CAFE01
:103F70000546002D06D0012D4CD0022D50D0032D2A
:103F800054D154E02046FFF73AFD00221146304656
:103F9000FFF762FE51E00000AC000020E4000020CA
:103FA00000480040A5000020737461727400000096
:103FB00073746F700000000070617573650000001D
:103FC000726573756D650000736574537065656423
:103FD000000000006D6F6465310000006D6F646566
:103FE000320000006D6F6465330000006D6F646522
:103FF00034000000636F6E6669726D5061697269AA
:104000006E670000500000200000204133337340F1
:1040100064000020002211463046FFF71DFE0CE030
:10402000022201213046FFF717FE06E000BF012201
:1040300011463046FFF710FE00BF00BF00BF83E708
:1040400010B5FB48007802284DD1FA4800780328C3
:1040500017DCF8480078F84909784018032810DD83
:10406000F44800780321081AF4490C5C012C07D1AC
:104070000120F3490870002211460A20FFF7ECFDE9
:1040800010BDEC48007801281ADCEA480078EA49BB
:1040900009784018012813DDE64800780121081A44
:1040A000E6490C5C0A2C01DB262C05DD01221146B9
:1040B0000520FFF7D1FDE3E72046FFF7E7FEDFE746
:1040C000DC480078002808D1DB480078002804DDAF
:1040D000DA490878FFF714FFD2E7012211460020E1
:1040E000FFF7BAFDCCE7D248007803280AD1D548BB
:1040F000D04909784318D0480278CE480178032087
:10410000FFF77BFD00BFBBE710B50446CE48007843
:10411000030001F0FAFD07050B1321273F51590059
:10412000AA2C02D10120C84908704DE0552C01D1BC
:10413000022000E00020C449087045E0022C01D0B4
:10414000032C05D1BA4804700320BF49087002E06F
:104150000020BD49087037E0B64804700420BA4911
:10416000087031E0B44804700078002803D10620BC
:10417000B54908700DE0B0480078102806DC002032
:10418000B24908700520B049087002E00020AE492D
:10419000087019E0AD4801780078401CAB4A1070F7
:1041A000A648445410460078A3490978884202DBA7
:1041B0000620A549087007E0552C01D1FFF740FF04
:1041C0000020A149087000BF00BF10BD00B58BB032
:1041D00002A8FCF7FFF90420FCF7BCFB8020FCF7E9
:1041E000B9FB042002900220039001200490079064
:1041F00002A99748FCF7C2F9022002900020039020
:104200000120079002A99248FCF7B8F908A8FDF729
:1042100030FB08A8FDF72DFBE120400208900021AB
:1042200068468184C18401850C21418508A989489B
:10423000FDF707FB88498748FDF731FB8548FDF707
:1042400022FB0E216846017101214171817101A893
:10425000FDF7FEFB0BB000BD10B58048FCF7B7FCC6
:104260007F490968484004467E49204601F0D6F857
:10427000084610BD70B50446204601F01DF985B210
:1042800029462046FFF79CFC70BD00B595B076A28C
:104290007EA101A801F00EFD01A8FFF7EBFF64204D
:1042A00001F057F87DA286A101A801F003FD01A845
:1042B000FFF7E0FF642001F04CF885A28DA101A872
:1042C00001F0F8FC01A8FFF7D5FF642001F041F8E8
:1042D00015B000BD70B590B000F0BFFF0446204699
:1042E00001F0EAF80546042D02DB6019001F00E02A
:1042F00084A00646324685A1684601F0DBFC68468C
:10430000FFF7B8FFFF202D3001F023F8FFF7BDFFC6
:1043100083A0FFF7AFFF10B070BDF0B5FFB09EB047
:1043200083480078030001F0F0FC0A06080A0C0E2E
:1043300010141618121A7FA413E080A411E082A4AE
:104340000FE083A40DE084A40BE086A409E088A418
:1043500007E07DA405E088A403E087A401E075A43C
:1043600000BF00BF00F09FFD064671480078072897
:1043700001D183A508E0822E01DD81A504E06E2E27
:1043800001DD82A500E082A569480078062834D1C5
:1043900000F073FF002801D07FA000E080A01B90F8
:1043A00000F05BFF1A90FEF769FB1990FFF7FCFB2A
:1043B00018907DA27FA31A991B98069308920791E3
:1043C00009907E4800887E4909887E4A12880595B2
:1043D0000292039104907C490988199800910190F8
:1043E0001F48036879491DA8189A01F063FC1DA8AD
:1043F000FFF740FF7FB01EB0F0BD4D4800780228A7
:1044000003D04B480078062801D163A000E064A0E7
:104410001C9047480078002806D0072805D00828B7
:1044200004D0092803D1D4E0D2E0D3E0D3E0D4E033
:10443000B1000020B2000020B3000020F4000020F2
:10444000A4000020E4000020B0000020B400002000
:10445000001C00400048004025050000000C004002
:104460000400002010270000303030303530343662
:104470003030303238303030303030303030303032
:1044800030303030303030310000000041542B5596
:10449000554944533D25730D0A000000303030303B
:1044A00035303436303030323830303030303030F3
:1044B00030303030303030303030303200000000BA
:1044C00041542B555549444E3D25730D0A000000BB
:1044D00030303030353034363030303238303030C3
:1044E00030303030303030303030303030303033C9
:1044F0000000000041542B55554944573D25730D8C
:104500000A000000303030300000000041542B4ED3
:10451000414D453D54572D30343C25733E0D0A0026
:1045200041542B5245424F4F543D310D0A0000007B
:104530005000002069646C650000000073746172B3
:1045400074696E670000000072756E6E696E6700B8
:104550007061757365640000726573756D696E676F
:104560000000000073746F7070696E6700000000D7
:1045700073746F70706564006572726F7200000012
:104580006F7665726865617400000000686F740082
:104590006E6F726D616C00007472756500000000D2
:1045A00066616C736500000032303236303331356D
:1045B0000000000054572D30340000005C00002043
:1045C00052000020600000205E0000207C6800088F
:1045D00000BF00BF00BF002703E0FEF749FA07460F
:1045E00000BF00BF00F049FE002801D0874801E06D
:1045F000864808301B9000F030FE1A90844800680E
:1046000001F050F8199118908248006801F04AF8BA
:1046100017911690384601F045F815911490FFF760
:10462000C3FA1390794A103213460C331A991B9827
:104630000E9310920F91119077480088774909885E
:10464000774A12880D950A920B910C901999189837
:104650000991089017991698079106901599149842
:10466000059104906F4909881C980094019102906B
:104670006D4803686D491DA8139A01F01BFB1DA826
:10468000FFF7F8FD00BFB5E6F7B5C4B00C46154618
:10469000002C0FD14498FFF704FB0646FFF784FA7D
:1046A00007466148009603683A46614904A801F04C
:1046B00001FB16E0022D01D15EA000E060A00646DD
:1046C0004498FFF7EEFA0746FFF76EFA0097019657
:1046D0000390554803685F4904A8039A01F0EAFA79
:1046E00000BF04A8FFF7C6FD47B0F0BD10B5A0B0ED
:1046F000FFF75AFA04464C48036822465649684672
:1047000001F0D8FA6846FFF7B5FD20B010BDF0B54E
:10471000FFB08EB004460D4616463D48006800F0D6
:10472000C1FF0B910A90FFF73FFA07463B4800880C
:1047300006960895079405903948008804900B99CF
:104740000A98039102903748008800903648036821
:104750003A4642490CA801F0ADFA0CA8FFF78AFDD1
:104760007FB00EB0F0BDF0B5E7B0FEF781F906906E
:104770002848006800F096FF04460D46069800F0B1
:1047800091FF06460F46FFF70FFA01970096039533
:104790000294059024480368314907A8059A01F05E
:1047A00089FA07A8FFF766FD67B0F0BD10B52D497F
:1047B0002D48FDF7E9F8002807D02B48FDF7C4F88D
:1047C000C4B22046FFF7A0FC00BF28492648FDF7E9
:1047D000DBF808212448FDF7CBF8002811D104218B
:1047E0002148FDF7C5F800280BD102211E48FDF72E
:1047F000BFF8002805D101211B48FDF7B9F80028B2
:1048000003D0194800881848808810BD98450008D2
:1048100058000020640000205C00002052000020AE
:10482000600000205E000020040000201C670008DB
:10483000746600084445564943455F425553590044
:10484000434F4D4D414E445F52454A4543544544C4
:1048500000000000B86A0008CC660008686B000819
:10486000B86900082505000000480040270700003F
:1048700010B51A4B1A68130C1B04194CA34204D12F
:1048800013041B0E03700A7002E0002303700B7008
:1048900010BD7CB504460D46694601A8FFF7E8FF48
:1048A00068460079A04204D168460078A84200D149
:1048B0007CBDFDF768F90948FDF7C0F9042809D166
:1048C0002002074908432843064631460348FDF7BE
:1048D00031FA00BFFDF75DF900BFE9E70074000899
:1048E0000000A5A500B587B00220FCF733F804202E
:1048F000FCF730F801A8FBF76DFE01208003019062
:10490000022002900720069001A91648FBF736FE08
:10491000FDF770F81C20FDF772F8FDF77BF807B083
:1049200000BD10B504462046FDF769F810BD0E49DC
:10493000088000BF0C4909880029FBDC704770B56E
:1049400005460C462046FFF7ECFF0748058000BFF0
:10495000054800880028FBDC04480068FFF7E1FFF9
:1049600070BD0000001C004098000020B80000202E
:104970001FB50120C002FBF7EDFF0120C007FBF7C8
:1049800037FF01A8FCF716F92F2168468180C7215F
:1049900001810021C180418101A90B48FCF7D7F8B2
:1049A00001210948FCF7AAF801210748FCF7A2FEFB
:1049B000052168460170012141708170FDF748F8BA
:1049C0000148FCF70DF91FBD000C004030B58BB05D
:1049D00004460D46FE4805700820FBF7BBFF40204B
:1049E000FBF7B8FF02A8FBF7F5FD012002900220BB
:1049F0000390012004900220079002A9F548FBF7DC
:104A0000BDFD02200290002003900220079002A921
:104A1000F048FBF7B3FD08A8FCF72BFF0894002132
:104A200068468184C18401850C21418508A9EA4832
:104A3000FCF707FFE949E848FCF731FF0D2168461C
:104A40000171002141710121817101A8FDF700F878
:104A5000E148FCF718FF0BB030BD70B504460D46B9
:104A60000BE000BF8021DC48FCF782FF0028F9D072
:104A70002178641CD848FCF763FF2846691E8DB274
:104A80000028EED100BF4021D348FCF771FF002879
:104A9000F9D070BDFFB581B0074616461D4600240B
:104AA000AA222146641CCE48425455222146641C49
:104AB0004254C74802782146641CC94842542146E2
:104AC000641C47542246641C029981542146641C8C
:104AD0004554002E09D0002D07DD014608192A464D
:104AE000314600F0C5FC6019C4B255222046611C55
:104AF000CCB2BB490A542146B948FFF7AEFF05B016
:104B0000F0BDF8B50646B749304600F035FD07461A
:104B100000F0B4FD85B2002429126846017045708A
:104B2000AA222146641CAE48425455222146641CE8
:104B3000425401222146641C425402222146641C34
:104B400042540A222146641C425402222146641C1B
:104B50004254684602782146641CA1484254684683
:104B600042782046611CCCB29D490A545522204609
:104B7000611CCCB29A490A5421469948FFF76DFF4F
:104B8000F8BD70B505460024AA222146641C94484D
:104B9000425455222146641C425401222146641C81
:104BA000425402222146641C42540E222146641CB7
:104BB000425401222146641C42542146641C45543F
:104BC00055222046611CCCB285490A5421468448AE
:104BD000FFF743FF70BD10B50024AA222146641CD4
:104BE0007F48425455222146641C425401222146EA
:104BF000641C425402222146641C42541022214665
:104C0000641C425402222146641C4254AA222146BA
:104C1000641C425455222046611CCCB270490A548F
:104C20002046611CCCB26E490A5421466C48FFF7FD
:104C300014FF10BD10B50024AA222146641C684848
:104C4000425455222146641C425401222146641CD0
:104C5000425402222146641C425410222146641C04
:104C6000425402222146641C425455222146641CAF
:104C700042542046611CCCB259490A542046611C5A
:104C8000CCB257490A5421465548FFF7E6FE10BDFD
:104C900055480078704700287ED054490978017043
:104CA0005249497841705149897881704F49C97892
:104CB000C1704E49097901714C494A7942718A792A
:104CC0008271CA79C2710A7A02724A7A42728A7A07
:104CD0008272CA7AC2720A7B02734A7B42738A7BEF
:104CE0008273CA7BC2730A7C02744A7C42748A7CD7
:104CF0008274CA7CC2740A7D02754A7D42758A7DBF
:104D00008275CA7DC2750A7E02764A7E42768A7EA6
:104D10008276CA7EC2760A7F02774A7F42778A7F8E
:104D20008277CA7FC277091D0A7F20210A542F4942
:104D3000091D4A7F21210A542C49091D8A7F2221FD
:104D40000A542A49091DCA7F23210A5427492431BC
:104D50000A7824210A54254924314A7825210A5405
:104D6000224924318A7826210A5420492431CA78DC
:104D700027210A541D4924310A7928210A541B4944
:104D800024314A7929210A54184924318A792A215F
:104D90000A541649243100E07DE0CA792B210A54D7
:104DA000124924310A7A2C210A54104924314A7AB2
:104DB0002D210A540D4924318A7A2E210A540B4997
:104DC0002431CA7A2F210A54084924310A7B0FE082
:104DD000BC000020002000400044004025050000E9
:104DE000040100200080A244BF00002054010020E4
:104DF00030210A5492494A7B31210A5490498A7BD6
:104E000032210A548E49CA7B33210A548C490A7CC8
:104E100034210A548A494A7C35210A5488498A7CBB
:104E200036210A548649CA7C37210A5484490A7DAE
:104E300038210A5482494A7D39210A5480498A7DA1
:104E40003A210A547E49CA7D3B210A547C490A7E94
:104E50003C210A547A494A7E3D210A5478498A7E87
:104E60003E210A547649CA7E3F210A5474490A7F7A
:104E700040210A5472494A7F41210A5470498A7F6D
:104E800042210A546E49CA7F43210A546C491C319D
:104E90000A7944210A5470476A48807800026949B7
:104EA000C9780843704767484078704710B565482F
:104EB0004479002C04D0FFF78EFE00206149487130
:104EC000204610BD5F480078552804D100205D4978
:104ED0000870012070470020FCE700205A49087044
:104EE000704710B559495A48FCF74EFD00287DD04F
:104EF0005748FCF729FDC4B256480078030000F07B
:104F000004FF08050B151C232A3A4C7CAA2C02D15D
:104F100001205049087074E0552C03D102204D49FE
:104F2000087002E000204B4908706AE044482438C9
:104F3000047003204749087063E0414824384470F6
:104F40000420444908705CE03D4824388470052002
:104F50004049087055E03A482438C470002C06DDFA
:104F600000203D49087006203A49087002E00720F9
:104F70003849087045E038490878411C364A1170B4
:104F80002F4920390C54081FC078114609788842EF
:104F900002DC07202F49087033E029481C300471D7
:104FA000403800782D490978884204D024482438B4
:104FB000007800281DD100200DE0214A243A927883
:104FC0001218D1B2102904DA1D4A203A125C1D4B86
:104FD0005A54411CC8B21A492439C9788142ECDCC0
:104FE0005521184A11700121174A00E00BE0117099
:104FF00000BF00201749087003E000201549087021
:1050000000BF00BF00BF08211148FCF7B1FC002819
:1050100011D104210E48FCF7ABFC00280BD1022172
:105020000B48FCF7A5FC002805D101210848FCF736
:105030009FFC002803D0064800880548808810BDE2
:105040007801002044010020BF0000202505000059
:1050500000440040BD000020BE000020BC00002035
:10506000704770B56048046860480068201AC82816
:1050700000D270BD5D4804605D480078002804D10E
:105080005C48046001205A49087010215A48FBF717
:10509000ACFA012800D100E000200546002D16D012
:1050A000012056490870002055490870554800787D
:1050B00008280CD00820534908700020FDF7DBFCBD
:1050C0001920400150490880012050490870FFF71D
:1050D000F9FE002826D04748046000204C4908709B
:1050E0004848007808281DD144480078002803D19A
:1050F00048480078002803D041480078002811D0A3
:1051000000203E490870434908703D4908707F20DF
:10511000C005FDF7B0FC192040013B490880002084
:1051200038490870FFF7C2FE0646002E12D03548F7
:10513000007808280ED037480670082031490870DA
:105140000020FDF798FC192040012F49088001201C
:105150002E49087030480078062806D12948007882
:10516000062802D001202A4908702648007806281F
:1051700002D100202649087022480078264908708C
:1051800020480078022804D0062808D008281BD11F
:105190000BE0FDF76DFC0646FFF7B3FC20E0FDF7E2
:1051A0006DFC0646FFF7EDFC1AE014480078002875
:1051B00007D0002D05D1FFF73DFD012010490870F3
:1051C00001E0FFF708FD0BE011480078002803D04C
:1051D0000020FFF7D6FC02E00020FFF792FC00BFA2
:1051E00000BF00BF45E7000004000020C40000200D
:1051F000D0000020CC000020001C0040C000002097
:10520000D10000205000002098000020AB000020BA
:10521000D2000020C1000020C800002030B5104B93
:10522000104811A203E014780470521C401C14783A
:10523000002CF8D100210BE05A5C14110C4D2C5DB0
:105240000470401C1407240F2C5D0470401C491C82
:105250000C29F1D30022027030BD024870470000D3
:10526000FCF4FF1F9901002050462D54322D000000
:1052700060660008154800687047144800681449C3
:10528000884201D0012070470020FCE710B50F488C
:1052900000680F49884200D110BD00BFEFF31080B5
:1052A000044672B6FCF76FFC0848FCF7C7FC0428FC
:1052B00003D107490548FCF73DFDFCF76AFC00BF38
:1052C00084F3108800BF00BFE6E70000007200080A
:1052D0000300A5A510B504464B48844201D901201E
:1052E00010BD2002000A401E484948610321081FE2
:1052F00000F052F800204549886105200861084601
:10530000006902218843414908610020E8E731B57E
:1053100086B001A8FBF7A1FA3D49019800F07EF89C
:105320000546FFF7D7FF002408E000BF37480069B3
:105330000121090408400028F8D0641C0698844222
:10534000F3D332480069400840003049086107B093
:1053500030BD31B586B001A8FBF77FFA7D21C900C9
:10536000019800F05BF80546FFF7B4FF002408E061
:1053700000BF264800690121090408400028F8D030
:10538000641C06988442F3D320480069400840001A
:105390001E49086107B030BD10B5002819DA1D4A52
:1053A00003071B0F083B9B089B00D2588307DC0EAA
:1053B000FF23A3409A438B071B0E8407E40EA340F0
:1053C0001A43144B0407240F083CA408A4001A51E4
:1053D00018E0114A03231B02D21883089B00D258FD
:1053E0008307DC0EFF23A3409A438B071B0E840721
:1053F000E40EA3401A43084B032424021B1984081B
:10540000A4001A5110BD0000FFFFFF0000E000E003
:1054100040420F001CED00E000E100E030B50B461B
:10542000014600202022012409E00D46D5409D427E
:1054300005D31D469540491B254695404019154604
:10544000521E002DF1DC30BD70B500242546002829
:1054500001DA01244042002901DA01254942FFF71F
:10546000DDFFAC4200D04042002C00D0494270BD6C
:1054700003460B439B0703D009E008C9121F08C06D
:10548000042AFAD203E00B780370401C491C521E18
:10549000F9D27047D2B201E00270401C491EFBD223
:1054A00070470022F6E710B513460A46044619462F
:1054B000FFF7F0FF204610BD421C0178401C002978
:1054C000FBD1801A7047F8B502464A40D40F42001B
:1054D0004B0052085B089A4202D202460846114627
:1054E0004A0023D0C30D4A00DDB2120EAD1A202DA2
:1054F00035DA49020126490AF6058A19002C00D03E
:10550000524220214F1B1146B9402A411018C20DAA
:105510009A4221D0002C17D0012D08DCDA05801A20
:10552000D20F8019D207DBB200F01CF9F8BDDA0502
:10553000801A012340001B06C01880185A428018A8
:10554000CA0F1043490007E04908C2071143DA05B2
:10555000801A80194008801800F0FCF8F8BD61003E
:105560000122511A001BF7E70122D2075140AAE796
:105570000122D2075040A6E7024670B54A40D30F39
:10558000DB0740002DD04A002AD0010E140E000285
:1055900012020919400A520A8418E50104465443CC
:1055A000000A120A2E045043A4194219200CC543C4
:1055B000AA18120C0125AD03521C521912047F398E
:1055C000240400D0521C104301D44000491EC2B232
:1055D0000C06C0092018401C4008802A02D003E0B5
:1055E000002070BD40084000002900DA0020184368
:1055F00070BD70B502464A40D50F40004A00ED0725
:1056000040085208002814D0002A12D0C40DD30D2F
:1056100041020120C0055202490A520AE41A09183F
:1056200012187D34914201D3641C00E04900002C23
:1056300001DA002070BD0023914201D3891A03438F
:10564000400849000028F7D100290AD0914202D130
:105650000121C90705E0914201D2012101E00121A8
:10566000C943E005C018401900F074F870BD10B5CA
:1056700000229623114600F075F810BD410040024B
:105680000122400AD205090E80187F2901DA002084
:105690007047962903DC9622511AC8407047963904
:1056A00088407047C20FD207400040080BD0C10DA0
:1056B0000723DB01C91840020905400A1143C2084B
:1056C0004007114370470020014670470122D2076E
:1056D000002800DB101A002900DB511A81427047B4
:1056E0000122D207002800DB101A002900DB511A22
:1056F00088427047F0B51FB40646002082B00546C8
:105700004024019100901BE0019922460F4630464B
:1057100000F04CFA049A059B801A994110D3104668
:105720001946224600F032FA361A8F410197224676
:1057300001200021009F00F029FA38184D41009007
:105740002046641E0028DFDC019B00982946324673
:1057500007B0F0BD002904DA401C490001D140081F
:105760004000704770B40024050C05D110240004DB
:1057700002D1002921D01124050E01D100020834E4
:10578000050F01D10001241D850F01D18000A41C4B
:10579000002801DB4000641C002908D020252E1BB6
:1057A0000D46F540A14000D00121294308430106E0
:1057B0001B1B000ADB1D02D5002070BC7047DB05F7
:1057C000181880180029F8DA401C4900F5D170BC7F
:1057D0004008400070470000F0B5074608465840B2
:1057E00087B0C00F049048000E4659004008490891
:1057F000BC1A884105D2384631461E4617460B462C
:1058000002465800400810434DD0300D039040052B
:105810005900400D490D0590401A0290402873DA56
:1058200018030121000B0905084301900498009218
:10583000002806D01146019A49420020904100916B
:105840000190029840210A1A0199009800F09EF9EF
:1058500005460C466B4607CB00F0B9F9C0197141FB
:10586000039A0E0D0023D71756401A467A40164366
:1058700044D0049A002A2DD0029A012A039A15DCFA
:105880001205C01A914101263605001C7141D20F44
:10589000059ED2070093019202962A46234600F005
:1058A000B6F907B0F0BD38463146FAE71605234A87
:1058B0000F46B218C01AB74101210905001C4F411B
:1058C00000187F41114618187941E20F10436D19F5
:1058D000644113E0E2076D0815436408C2071443EE
:1058E000039A01261205C01A91413605001C714128
:1058F000CE07400830434908C01851412A46234684
:1059000000F078F9CDE7FFE7049801224000C117C5
:10591000121A00238B4104983146C417381AA1414A
:10592000EEE730B40124E407634030BC54E730B400
:105930000124E407614030BC4EE700000000E0FFB6
:10594000F0B51FB488B00B99099800244840099914
:10595000C00F490049080991C0070B990090490000
:1059600049080B9109990898A64608431CD00B9941
:105970000A98084318D0099801244000420D4800B5
:10598000410D099824050003000B204309900B9852
:105990000003000B20430B9050181C4940180022B4
:1059A00001901446104605E0002001460DB0F0BD00
:1059B000032801DA034600E003239C46C11A0AAE1D
:1059C0000AE05F0008ADED5B4F00F75B7D43002709
:1059D000AA187C41491C5B1E6145F2DD410004AB05
:1059E0005A522104120C0A43240C401C0828DFDB05
:1059F000019802900099704601910090059B049ACD
:105A00000799069800F003F9D0E700000DFCFFFFAE
:105A1000F0B50C465C4085B0E40FE40703944C00FD
:105A2000002664085900944649080246029622431B
:105A300021D062460A431ED06200570D4A000E0371
:105A40002303550D012402462C492405781B1B0B0A
:105A5000360B401823432643614600901C46501ADB
:105A6000B44103D30098401C009002E092180098C3
:105A70005B41002803DA0020014605B0F0BD00209C
:105A8000012109050746864611E064461D46141BA0
:105A9000B54106D36546521BB341744607430C43D8
:105AA000A646CD0740084908284392185B410546A1
:105AB0000D43EAD11046184313D0604619465040B2
:105AC0007140084306D06046101AB34106D2012245
:105AD000002306E000220123DB0702E00122D2437B
