:020000040800F2
:100000000804002099000008A1000008A3000008CF
:1000100000000000000000000000000000000000E0
:10002000000000000000000000000000A500000823
:100030000000000000000000A7000008A900000860
:10004000AB000008AB000008AB000008AB000008E4
:10005000AB000008AB000008AB000008AB000008D4
:10006000AB000008AB000008AB000008AB000008C4
:10007000AB000008AB000008AB000008AB000008B4
:100080000448854600F0F6FD00480047150A0008C0
:10009000C046C04608040020044880470448004782
:1000A000FEE7FEE7FEE7FEE7FEE7FEE72D010008BC
:1000B0008100000801460020584A1068C008C000AE
:1000C00002460A431046554A106070470EB500209C
:1000D0000290019000900120FFF7ECFF504840682B
:1000E0004F4948600846406848604E484069402192
:1000F00088434C49486100BF4948006802210840D4
:1001000001900098401C00900198002804D105211E
:10011000090200988842EFD10198022803D10020FB
:1001200000F0EEFA01E000BFFEE70EBD10B53D485D
:100130004069402188433B49486139484068032170
:100140000903084336494860084640683649084074
:100150003349486008468069802188433049886176
:100160000846006A314908402D4908620846006A7D
:100170002F4908432A49086228480068102108438B
:1001800026490860FFF7A2FF0120C0062349486204
:1001900010BD70B500240025224840694021084068
:1001A0000446402C0ED11E48406803210903084034
:1001B000002803D11F482049086002E01F481E495B
:1001C00008601BE016484068032109030840002826
:1001D00003D11B48184908600FE01148406803210B
:1001E0000903084001210903884203D11548124937
:1001F000086002E011481049086000BF00BF0848CD
:100200004068F021084000090F490D5C29460A4862
:10021000006800F019FD0849086070BD0020024028
:1002200000100240007000400FF8FFF9F0FFFF3FA0
:10023000010C0000005A62020000002000127A0047
:10024000006CDC0200366E01B60C000810B50446E6
:10025000F648844203D1042000F03CFB07E0F44858
:10026000844203D1082000F035FB00E010BD00BF40
:10027000FCE710B5012000F02DFB10BD30B50146A4
:100280000020002273E0012383400B401A46002A1D
:100290006CD0082801D0092808D1E44B1B68450020
:1002A0000224AC402343E14C236007E0DF4B1B6892
:1002B00045000324AC402343DC4C23600823034067
:1002C000002B17D0082801D0092809D1D74B5B6A29
:1002D0004407E50E0F24AC40A343D44C636212E004
:1002E000D24B5B6A4407E50E0F24AC402343CF4C4E
:1002F000636208E0CD4B1B6A4407E50E0F24AC4057
:100300002343CA4C2362C94B5B6801248440A34346
:10031000C64C6360082808D12346DB6845000124E9
:10032000AC402343C14CE36012E0092808D1BF4B25
:10033000DB6845000224AC402343BC4CE36007E08B
:10034000BA4BDC6845000323AB409C43B74BDC60F1
:10035000B64B9B68012484402343B44CA3602346DE
:10036000DB6A01248440A343B04CE362401C0B468B
:100370000341002B87D130BD30B50146002000225B
:1003800033E0012383400B401A46002A2CD0A84BAF
:100390001B6845000324AC402343A54C236023463F
:1003A0001B6A4407E50E0F24AC402343A04C236294
:1003B00023465B6801248440A3439D4C636023462D
:1003C000DC6845000323AB409C43994BDC609B6891
:1003D000012484402343964CA3602346DB6A012416
:1003E0008440A343924CE362401C0B460341002B24
:1003F000C7D130BD30B50346002008241440002C7E
:100400000ED0586A5407E50E0F24AC400546A543AC
:1004100028465407E50E0C46AC40204358620DE0D8
:10042000186A5407E50E0F24AC400546A54328463C
:100430005407E50E0C46AC402043186230BD70B541
:1004400003460020002418688C07A40F56000325DB
:10045000B5400646AE43304656002546B5402843D3
:100460001860012905D0112903D0022901D01229D1
:100470000BD15868012595400646AE4330461025FD
:100480000D402D0995402843586070BD30B50B468E
:100490000021C16855000324AC400D46A543294600
:1004A00055001C46AC402143C16030BD30B50B4601
:1004B00000218168012494400D46A54329461C462D
:1004C00094402143816030BD30B50B460021C16AA4
:1004D000012494400D46A54329461C4694402143DF
:1004E000C16230BDF0B506460C460025002720E06D
:1004F0000121A940206808400746002F18D02A464D
:1005000030466169FFF776FF2A4630466168FFF79B
:1005100096FF2A463046A168FFF7B8FF2A463046C4
:10052000E168FFF7C3FF2A4630462169FFF7CCFF99
:100530006D1C2068E8400028DAD1F0BD3D4901601B
:100540000021C16041600F21416100218160016192
:100550007047024610690840002801D0012070470A
:100560000020FCE70146086980B2704702465069E6
:100570000840002801D0012070470020FCE7014618
:10058000486980B2704781617047816270470A0490
:1005900082617047816270474161704742694A4099
:1005A00042617047002201231B040B431A46C261BB
:1005B000C161C261C269C2697047F0B5054614469F
:1005C00000220020002D01D1184E00E0184E3346C5
:1005D00008260E40002E0ED04A07520F586A970088
:1005E0000F26BE400746B743384697002646BE4012
:1005F000304358620DE04A07520F186A97000F26E1
:10060000BE400746B743384697002646BE403043B3
:100610001862F0BD01460020074A106840094001F9
:1006200002460A431046044A10607047001C00400E
:1006300000200040FFFF00000014004001460020A1
:10064000114A126840239A431046002902D04022E2
:10065000104303E0402302469A4310460A4A1060C2
:10066000704701460020084A126820239A4310462A
:10067000002902D02022104303E0202302469A439F
:100680001046014A1060704700140040D24840688C
:10069000032109030843D049486008464068CF4910
:1006A0000840CD4948600846806980218843CA498E
:1006B00088610846006ACA490840C7490862084676
:1006C000006AC8490843C4490862704701460020CF
:1006D000C14A1068F02302469A4310460A011043AB
:1006E000BD4A1060704701460020BB4A90697C23D8
:1006F00002469A4310468A001043B74A90617047F9
:1007000001460020B44A506803231B0302469A4363
:10071000104602460A431046AF4A506070470146F1
:100720000020AD4A5068F02302469A431046024624
:100730000A431046A84A5060704701460020A64A66
:10074000506807231B0202469A43104602460A439A
:100750001046A14A50607047014600209E4A106A28
:100760004000400802460A4310469B4A1062704708
:1007700001460020984A106A03239B0202469A43CE
:10078000104602460A431046934A106270470146DB
:100790000020914A106A0009000102460A431046EF
:1007A0008D4A10627047014600208B4A106A9304FC
:1007B00002469A43104602460A431046864A106291
:1007C000704770B5044600250026874840694021DF
:1007D00008400546402D19D17F4840680321090390
:1007E0000840002802D18148206001E08048206054
:1007F0007948006A0007000F7E490E5C31467B484D
:1008000000F022FA20617C48E06030E072484068E5
:10081000032109030840002802D1784820600DE038
:100820006D484068032109030840012109038842FB
:1008300002D17348206001E06D4820606648006A7C
:100840000007000F6B490E5C31466C4800F0FCF964
:1008500020616148006A032189020840800A6949D1
:100860000E5C3146654800F0EFF9E06000BF00BF64
:1008700059484068F0210840000963490E5C314640
:10088000206800F0E1F960605348406807210902E0
:100890000840000A5D490E5C3146606800F0D4F9FA
:1008A000A06070BD4C49096901434B4A1161704712
:1008B000494909698143484A116170474649496974
:1008C0000143454A51617047434949698143424A5E
:1008D000516170474049C96801433F4AD1601146A0
:1008E000C9688143D1607047014600203A4A506888
:1008F0000001000902460A431046374A506070471B
:1009000001460020344A506803235B0602469A439E
:10091000104602460A4310462F4A5060704701466F
:10092000002200234A11012A02D0022A06D102E045
:100930002948036805E02848836902E02648C3691E
:1009400000BF00BFCA06D20E012090401840002808
:1009500001D0012070470020FCE71F48C069012139
:1009600008431D49C8610846C06940084000C86185
:1009700070471948406A01210903884316494862B3
:1009800070471548406A012109030843124948622B
:1009900070471148406A400840000F49486270475C
:1009A0000D48406A012108430B49486270470A48D4
:1009B00080698021884308498861704706488069BA
:1009C00080210843044988617047034880691049C1
:1009D0000840000A70470000001002400FF8FFF9BD
:1009E000F0FFFF3F010C000000700040005A62025F
:1009F00000127A00DE0C000840420F00006CDC029E
:100A000000366E01EE0C0008C60C0008D60C00087B
:100A100000FFFF0013218901184800F031F8C021C0
:100A2000164800F05FF80120800214498861C02157
:100A3000124800F04FF87D20C00000F0A0F81BE045
:100A4000012080020D49886280210C4800F03AF8AC
:100A50007D20C00000F093F84021084800F032F8F3
:100A60007D20C00000F08BF80120800203498861DE
:100A70007D20C00000F083F8E2E70000001C004089
:100A800030B587B005460C461A48854203D104208C
:100A9000FFF714FF05E01848854202D10820FFF750
:100AA0000DFF164884420BDA01A8FFF747FD0194B9
:100AB000012002900020059001A92846FFF712FDB1
:100AC00007B030BD70B504460D4629462046FFF7F5
:100AD00065FD70BD70B504460D4629462046FFF7FA
:100AE00052FD70BD70B504460D4629462046FFF7FD
:100AF0004CFD70BD001C004000200040FFFF0000C6
:100B000010B504464B48844201D9012010BD200293
:100B1000000A401E484948610321081F00F052F8AE
:100B200000204549886105200861084600690221C6
:100B30008843414908610020E8E731B586B001A843
:100B4000FFF73FFE3D49019800F07EF80546FFF7AC
:100B5000D7FF002408E000BF3748006901210904DD
:100B600008400028F8D0641C06988442F3D3324829
:100B70000069400840003049086107B030BD31B518
:100B800086B001A8FFF71DFE7D21C900019800F085
:100B90005BF80546FFF7B4FF002408E000BF2648D5
:100BA00000690121090408400028F8D0641C069857
:100BB0008442F3D320480069400840001E49086180
:100BC00007B030BD10B5002819DA1D4A03071B0F06
:100BD000083B9B089B00D2588307DC0EFF23A340F1
:100BE0009A438B071B0E8407E40EA3401A43144B51
:100BF0000407240F083CA408A4001A5118E0114A65
:100C000003231B02D21883089B00D2588307DC0EF3
:100C1000FF23A3409A438B071B0E8407E40EA340D7
:100C20001A43084B032424021B198408A4001A51F8
:100C300010BD0000FFFFFF0000E000E040420F0099
:100C40001CED00E000E100E030B50B46014600205D
:100C50002022012409E00D46D5409D4205D31D46C2
:100C60009540491B2546954040191546521E002DBA
:100C7000F1DC30BD064C0125064E05E0E36807CCEB
:100C80002B430C3C98471034B442F7D3FFF7FCF9E0
:100C9000F40C0008140D000802E008C8121F08C177
:100CA000002AFAD170477047002001E001C1121FED
:100CB000002AFBD170470101010101010101020479
:100CC000080C1018181801010101010101010204AA
:100CD000080C101818180101010102040810010283
:100CE000030406080A0C1820202020202020060CCF
:100CF00018300000140D000800000020040000005F
:100D0000980C0008180D00080400002004040000DE
:080D1000A80C0008006CDC02D5
:04000005080000816E
:00000001FF
