:020000040800F2
:1000000050060020990000084D0200084F02000829
:1000100000000000000000000000000000000000E0
:100020000000000000000000000000005F02000867
:100030000000000000000000A700000863020008A4
:10004000AB000008AB000008AB000008AB000008E4
:10005000AB00000865020008AB000008AB00000818
:10006000AB000008AB000008AB000008AB000008C4
:10007000AB00000869560008DD4E0008AB00000820
:100080000448854606F040F80048004783230008EE
:10009000C046C04650060020044880470448004738
:1000A000FEE7FEE7FEE7FEE7FEE7FEE72D010008BC
:1000B0008100000801460020584A1068C008C000AE
:1000C00002460A431046554A106070470EB500209C
:1000D0000290019000900120FFF7ECFF504840682B
:1000E0004F4948600846406848604E484069402192
:1000F00088434C49486100BF4948006802210840D4
:1001000001900098401C00900198002804D105211E
:10011000090200988842EFD10198022803D10020FB
:1001200000F03AFB01E000BFFEE70EBD10B53D4810
:100130004069402188433B49486139484068032170
:100140000903084336494860084640683649084074
:100150003349486008468069802188433049886176
:100160000846006A314908402D4908620846006A7D
:100170002F4908432A49086228480068102108438B
:1001800026490860FFF7A2FF0120C0062349486204
:1001900010BD70B500240025224840694021084068
:1001A0000446402C0ED11E48406803210903084034
:1001B000002803D11F482049086002E01F481E495B
:1001C00008601BE016484068032109030840002826
:1001D00003D11B48184908600FE01148406803210B
:1001E0000903084001210903884203D11548124937
:1001F000086002E011481049086000BF00BF0848CD
:100200004068F021084000090F490D5C29460A4862
:10021000006805F0BDFD0849086070BD002002407F
:1002200000100240007000400FF8FFF9F0FFFF3FA0
:10023000010C0000005A62020000002000127A0047
:10024000006CDC0200366E01EA640008704700BFF3
:10025000FEE700BFFEE700BFFEE700BFFEE7704716
:100260007047704710B50121194801F04BFA00287A
:100270002DD00121164801F057FA16480078401C8D
:10028000C0B21449087005281DDB00200870124810
:100290000068401C1049086010480088002812DDE2
:1002A0000F480068C007C00F002801D101F004FC0E
:1002B0000A480088401E094908800846008800282E
:1002C00001D101F000FC02F055FB03F001FA10BD72
:1002D000000C0040080000200400002090000020D6
:1002E0000038004010B50446F648844203D104208B
:1002F00000F03CFB07E0F448844203D1082000F002
:1003000035FB00E010BD00BFFCE710B5012000F098
:100310002DFB10BD30B501460020002273E0012303
:1003200083400B401A46002A6CD0082801D00928C7
:1003300008D1E44B1B6845000224AC402343E14C48
:10034000236007E0DF4B1B6845000324AC402343D8
:10035000DC4C236008230340002B17D0082801D071
:10036000092809D1D74B5B6A4407E50E0F24AC403E
:10037000A343D44C636212E0D24B5B6A4407E50EA0
:100380000F24AC402343CF4C636208E0CD4B1B6A83
:100390004407E50E0F24AC402343CA4C2362C94BEB
:1003A0005B6801248440A343C64C6360082808D1DD
:1003B0002346DB6845000124AC402343C14CE36085
:1003C00012E0092808D1BF4BDB6845000224AC408D
:1003D0002343BC4CE36007E0BA4BDC6845000323D1
:1003E000AB409C43B74BDC60B64B9B680124844018
:1003F0002343B44CA3602346DB6A01248440A34317
:10040000B04CE362401C0B460341002B87D130BD4A
:1004100030B501460020002233E0012383400B4029
:100420001A46002A2CD0A84B1B6845000324AC4078
:100430002343A54C236023461B6A4407E50E0F2483
:10044000AC402343A04C236223465B6801248440D4
:10045000A3439D4C63602346DC6845000323AB4007
:100460009C43994BDC609B68012484402343964C59
:10047000A3602346DB6A01248440A343924CE362D9
:10048000401C0B460341002BC7D130BD30B503469D
:10049000002008241440002C0ED0586A5407E50EA2
:1004A0000F24AC400546A54328465407E50E0C46EC
:1004B000AC40204358620DE0186A5407E50E0F2443
:1004C000AC400546A54328465407E50E0C46AC4013
:1004D0002043186230BD70B5034600200024186820
:1004E0008C07A40F56000325B5400646AE433046A0
:1004F00056002546B54028431860012905D011292A
:1005000003D0022901D012290BD15868012595404A
:100510000646AE43304610250D402D099540284330
:10052000586070BD30B50B460021C16855000324EA
:10053000AC400D46A543294655001C46AC4021431E
:10054000C16030BD30B50B46002181680124944064
:100550000D46A54329461C4694402143816030BD89
:1005600030B50B460021C16A012494400D46A543D5
:1005700029461C4694402143C16230BDF0B5064671
:100580000C460025002720E00121A94020680840F2
:100590000746002F18D02A4630466169FFF776FFDC
:1005A0002A4630466168FFF796FF2A463046A16822
:1005B000FFF7B8FF2A463046E168FFF7C3FF2A4637
:1005C00030462169FFF7CCFF6D1C2068E840002809
:1005D000DAD1F0BD3D4901600021C16041600F21C9
:1005E0004161002181600161704702461069084045
:1005F000002801D0012070470020FCE7014608696F
:1006000080B27047024650690840002801D001209E
:1006100070470020FCE70146486980B2704781615D
:100620007047816270470A04826170478162704737
:100630004161704742694A4042617047002201238C
:100640001B040B431A46C261C161C261C269C2691F
:100650007047F0B50546144600220020002D01D158
:10066000184E00E0184E334608260E40002E0ED0DD
:100670004A07520F586A97000F26BE400746B743F5
:10068000384697002646BE40304358620DE04A0780
:10069000520F186A97000F26BE400746B7433846E8
:1006A00097002646BE4030431862F0BD0146002048
:1006B000074A10684009400102460A431046044AAE
:1006C00010607047001C004000200040FFFF000049
:1006D0000014004001460020114A126840239A434A
:1006E0001046002902D04022104303E04023024676
:1006F0009A4310460A4A1060704701460020084A93
:10070000126820239A431046002902D02022104369
:1007100003E0202302469A431046014A10607047C6
:1007200000140040D2484068032109030843D0491F
:10073000486008464068CF490840CD4948600846AF
:10074000806980218843CA4988610846006ACA498D
:100750000840C74908620846006AC8490843C449B6
:100760000862704701460020C14A1068F023024623
:100770009A4310460A011043BD4A10607047014673
:100780000020BB4A90697C2302469A4310468A00A7
:100790001043B74A9061704701460020B44A506840
:1007A00003231B0302469A43104602460A4310469F
:1007B000AF4A5060704701460020AD4A5068F023B0
:1007C00002469A43104602460A431046A84A506021
:1007D000704701460020A64A506807231B020246C4
:1007E0009A43104602460A431046A14A5060704799
:1007F000014600209E4A106A4000400802460A4313
:1008000010469B4A1062704701460020984A106AC1
:1008100003239B0202469A43104602460A431046AF
:10082000934A1062704701460020914A106A0009FD
:10083000000102460A4310468D4A10627047014685
:1008400000208B4A106A930402469A4310460246DF
:100850000A431046864A1062704770B50446002568
:10086000002687484069402108400546402D19D19F
:100870007F484068032109030840002802D18148CD
:10088000206001E0804820607948006A0007000F7E
:100890007E490E5C31467B4805F07AFA20617C483F
:1008A000E06030E0724840680321090308400028F6
:1008B00002D1784820600DE06D48406803210903AB
:1008C000084001210903884202D17348206001E0F9
:1008D0006D4820606648006A0007000F6B490E5C97
:1008E00031466C4805F054FA20616148006A0321E2
:1008F00089020840800A69490E5C3146654805F066
:1009000047FAE06000BF00BF59484068F021084046
:10091000000963490E5C3146206805F039FA6060D1
:1009200053484068072109020840000A5D490E5CEF
:100930003146606805F02CFAA06070BD4C49096929
:1009400001434B4A11617047494909698143484A4B
:1009500011617047464949690143454A51617047F1
:10096000434949698143424A516170474049C968D6
:1009700001433F4AD1601146C9688143D160704745
:10098000014600203A4A50680001000902460A4325
:100990001046374A5060704701460020344A50687C
:1009A00003235B0602469A43104602460A4310465A
:1009B0002F4A506070470146002200234A11012A45
:1009C00002D0022A06D102E02948036805E028483F
:1009D000836902E02648C36900BF00BFCA06D20E81
:1009E000012090401840002801D0012070470020CD
:1009F000FCE71F48C069012108431D49C86108463A
:100A0000C06940084000C86170471948406A012128
:100A1000090388431649486270471548406A012116
:100A2000090308431249486270471148406A400868
:100A300040000F49486270470D48406A0121084351
:100A40000B49486270470A488069802188430849F9
:100A5000886170470648806980210843044988619D
:100A600070470348806910490840000A7047000039
:100A7000001002400FF8FFF9F0FFFF3F010C0000EB
:100A800000700040005A620200127A0012650008ED
:100A900040420F00006CDC0200366E012265000847
:100AA000FA6400080A65000800FFFF0010B504465C
:100AB000F848844203D1C014FFF758FF0CE0F64811
:100AC000844203D18014FFF751FF05E0F3488442CC
:100AD00002D14014FFF74AFF10BD10B50A460021AD
:100AE000016870240B46A34319460B46134319466D
:100AF000016010BD81857047018570478182704714
:100B000001867047002905D002680123DB021A43E1
:100B1000026004E002680123DB029A43026070472E
:100B2000002905D002680123DB031A43026004E0B8
:100B300002680123DB039A430260704702680323C3
:100B40001B029A43026002680A430260704730B594
:100B500005460C46D148854207D061882846FFF7F4
:100B6000BCFFE1882846FFF7E9FFA1882846FFF788
:100B7000C1FF21882846FFF7BFFFC648854203D141
:100B8000217A2846FFF7BCFF01212846FFF7B6FF70
:100B9000C248854203D0617A2846FFF7B3FFBD48BB
:100BA000854202D0BC48854203D1A17A2846FFF78E
:100BB000B7FF30BD0021C943818000210180C18081
:100BC0004180017241728172704781847047014691
:100BD000888C70470146888D70470146088D7047A4
:100BE000016801221143016070470168490849000A
:100BF000016070470A460021018BA94B19400B4642
:100C000013431946018370470A460021018BA54B07
:100C1000194013061B0C1943018370470A46002133
:100C2000818B9F4B19400B461343194681837047B4
:100C30000A460021818B9B4B194013061B0C19435C
:100C4000818370470A4600215423195A944B194056
:100C50000B461343194654231952704701688022EA
:100C60001143016070470168802291430160704721
:100C7000016802229143016070470168022211431A
:100C800001607047002904D0026804231A430260FF
:100C900003E0026804239A43026070478182704730
:100CA0004168042211434160704741680422914326
:100CB00041607047416801221143416070474168BB
:100CC0004908490041607047818670470187704735
:100CD0008187704740221152704758221152704745
:100CE0000146888E70470146088F70470146888FFD
:100CF000704701464020405A704701465820405AEC
:100D000070470A4600210189654B683B19400B4634
:100D10001343194601817047F0B50C4600250021A8
:100D2000066A760876000662058B016A5C4EEB3E29
:100D300035401E05360C16433543564EB04202D0A0
:100D4000554EB04207D102260F46B7433946012619
:100D50002643314306E00A260F46B74339460126AB
:100D60002643314305830162F0BDF8B50C460025EA
:100D7000002100260096066A1027BE430662058BF6
:100D8000016A26010096484E35401E07360C354351
:100D90001606360C35433F4EB04202D03E4EB042AE
:100DA00008D120260F46B74339461027009E3E4300
:100DB000314306E0A0260F46B743394610262643A6
:100DC000314305830162F8BDF8B50C4600250021CA
:100DD00000260096066AFF270137BE430662858B10
:100DE000016A260200962E4EEB3E35401E05360C5B
:100DF00016433543274EB04208D146150F46B74338
:100E000039468715009E3E43314308E005267602A9
:100E10000F46B7433946FF260136264331438583C3
:100E20000162F8BDF8B50C460025002100260096A9
:100E3000066A01273F03BE430662858B016A2603CB
:100E40000096194E35401606360C35431E07360CF3
:100E50003543104EB04208D146140F46B7433946C9
:100E60008714009E3E43314307E0012676030F4678
:100E7000B743394676102643314385830162F8BD76
:100E80000A460189094B194013061B0C19430181BD
:100E900070470000000C00400004004000100040BB
:100EA000F7FF0000FFF70000FF0C0000FFF000005C
:100EB0000A460189FB4B19400B4613431946018131
:100EC00070470122D203914204D102890B461A4392
:100ED000028103E002895204520C028170470189A9
:100EE000F14A114001817047028BEF4B5B1F1A40A2
:100EF0000283028B0A4302837047028BEB4B1A403A
:100F00000283028B0B061B0C1A4302837047828BF1
:100F1000E54B5B1F1A408283828B0A4382837047B2
:100F2000828BE24B1A408283828B0B021A438283AC
:100F3000704730B504460D4629462046FFF7E1FECE
:100F4000208907210843208130BDF0B504460D46B5
:100F500016461F46602D06D13B46012231462046EB
:100F6000FFF703FF05E03B46012231462046FFF72D
:100F7000D3FE29462046FFF7C4FE208907210843F7
:100F80002081F0BDFFB5054616461F4600243946B0
:100F90002846FFF775FF31462846FFF792FF28469F
:100FA0000199FFF785FF2C89BF48044007200443BF
:100FB000BD4869380440702004432C81FFBDF0B562
:100FC00004460F4615461E4631462046FFF758FF99
:100FD00029462046FFF775FF39462046FFF768FF90
:100FE00020890121890308432081F0BD0289AE4B8D
:100FF0001A40028102890A43028170470289AA4B82
:10100000793B1A40028102890A4302817047426893
:1010100070239A43426042680A4342607047026804
:1010200008239A43026002680A4302607047002165
:101030004180012181800021C1800181704730B54C
:1010400005460C46208800280AD12389A288618899
:101050002846FFF761FEE1882846FFF745FF25E0B7
:10106000208804280AD12389A28861882846FFF7AE
:101070007CFEE1882846FFF740FF17E0208808281B
:101080000AD12389A28861882846FFF79DFEE1885E
:101090002846FFF73CFF09E02389A288618828469B
:1010A000FFF7C0FEE1882846FFF73AFF30BDF0B5F4
:1010B00005460C46002601276088002801D102263B
:1010C00000E00026A088012801D1022700E00127C6
:1010D0002088002814D12389A28861882846FFF738
:1010E0001BFEE1882846FFF7FFFE23893A4631467A
:1010F0002846FFF73AFEE1882846FFF7FEFE13E098
:101100002389A28861882846FFF72FFEE1882846B8
:10111000FFF7F3FE23893A4631462846FFF7FCFDE8
:10112000E1882846FFF7E0FEF0BD30B50B46016AC6
:10113000022494400D46A54329461C469440214371
:10114000016230BD30B50B46016A082494400D465B
:10115000A54329461C4694402143016230BD026AE2
:1011600001238B401A4302627047026A01238B40BD
:101170009A4302627047026A04238B401A43026258
:101180007047026A04238B409A430262704702460A
:10119000106A0840002801D0012070470020FCE7B9
:1011A00070B50346002000241846183001259540EC
:1011B000ACB21D6AE643B6B235401D62002A01D0CA
:1011C000082A09D15510281805687026B54305600E
:1011D00005680D4305600DE0151F2D046D0C2818E2
:1011E000056807263603B543056005680E06360C0C
:1011F0003543056070BD0A460021018B2A4B693BCF
:1012000019400B4613431946018370470A460021D3
:10121000018B274B194013061B0C194301837047A0
:101220000A460021818B204B693B19400B46134332
:101230001946818370470A460021818B1C4B194057
:1012400013061B0C1943818370470A46002154235F
:10125000195A154B693B19400B4613431946542341
:10126000195270470A460021018B0F4BDB1C1940B5
:101270000B4613431946018370470A460021018B30
:101280000C4B194013061B0C1943018370470A4687
:101290000021818B044BDB1C19400B46134319467C
:1012A00081837047FFCF0000F8FF0000FFF30000CC
:1012B000FF8F0000FFFB00000A460021818BFB4BE3
:1012C000194013061B0C1943818370470A460021FD
:1012D0005423195AF64B19400B461343194654230D
:1012E000195270470A460021018BF14B7C3B194093
:1012F0000B4613431946018370470A460021018BB0
:101300004904490C13061B0C1943018370470A4614
:101310000021818BE64B7C3B19400B461343194659
:10132000818370470A460021818B4904490C1306CA
:101330001B0C1943818370470A4600215423195A14
:10134000DB4B7C3B19400B4613431946542319527F
:101350007047F0B505460C460027002600212846B8
:10136000FFF703FF6E682F8BD1486C380740D048D9
:10137000401C074020880743218900222846FFF7A8
:10138000D4FE6088002804D000212846FFF7E7FE3D
:1013900003E000212846FFF7E8FEC64885421DD13C
:1013A000618900222846FFF7CDFEA088002804D0DE
:1013B00000212846FFF7DFFE03E000212846FFF763
:1013C000E0FEFF21013130468843064649003046A1
:1013D00088430646A0890643E08906436E602F8352
:1013E000E088A886F0BDF0B505460C46002700262B
:1013F00004212846FFF7B9FE6E682F8BAE480740E0
:10140000AE48074020780006000C074321890422DB
:101410002846FFF78AFE6088002804D00421284669
:10142000FFF79DFE03E004212846FFF79EFEA1483A
:1014300085421FD1618904222846FFF783FEA088D8
:10144000002804D004212846FFF795FE03E004217C
:101450002846FFF796FE012189023046884306465A
:101460004900304688430646A08980000643E0894B
:10147000800006436E602F83E0882887F0BDF0B5BA
:1014800005460C460027002608212846FFF76DFE7A
:101490006E68AF8B86486C3807408548401C074013
:1014A00020880743218908222846FFF73EFE6088EE
:1014B000002804D008212846FFF751FE03E0082148
:1014C0002846FFF752FE7B4885421FD161890822DA
:1014D0002846FFF737FEA088002804D008212846B8
:1014E000FFF749FE03E008212846FFF74AFE0121E5
:1014F000090330468843064649003046884306467D
:10150000A08900010643E089000106436E60AF83B5
:10151000E088A887F0BDF0B504460D4600260027F8
:101520000C212046FFF721FE6768A68B6248064023
:101530006248064028780006000C064329890C22E0
:101540002046FFF7F2FD6888002804D00C212046D1
:10155000FFF705FE03E00C212046FFF706FE554885
:10156000844206D10114384688430746A889800181
:1015700007436760A683E98840200153F0BDF0B5BA
:1015800004460D460026002710212046FFF7EDFDFA
:1015900067685420065B46486C3806402888064336
:1015A000298910222046FFF7C0FD6888002804D052
:1015B00010212046FFF7D3FD03E010212046FFF75E
:1015C000D4FD3C48844206D18113384688430746FF
:1015D000A88900020743676054200653E988582011
:1015E0000153F0BD4421095A0122D2031143442280
:1015F000115270474421095A4A04520C44210A529C
:1016000070470021018041808180C180018141813A
:101610008181C18170470168012212041143016078
:10162000704701680122120491430160704701680C
:1016300001225204114301607047016801225204E3
:10164000914301607047002905D0026801239B0285
:101650001A43026004E0026801239B029A4302607D
:10166000704730B505460C46208861880843A1883C
:101670000843E18808432189084361890843A18917
:10168000084344214853A07B002804D00021284669
:10169000FFF7D9FF03E001212846FFF7D4FFE07BE5
:1016A00000280DD02846FFF7B6FF0CE0FFFB000036
:1016B000FBFF0000000C0040FF8F0000FFFC00005B
:1016C0002846FFF7AEFF207C002803D02846FFF70E
:1016D000AEFF02E02846FFF7B0FF30BD00210180D9
:1016E00041808180C1800181418181818173C17389
:1016F0000174704782890A438281704782898A43D4
:101700008281704710B5024600230024106908400A
:101710000346908908400446002B03D0002C01D0DA
:10172000012010BD0020FCE7CA4302617047024659
:1017300010690840002801D0012070470020FCE714
:10174000CA4302617047000010B50446A7488442AE
:1017500003D11020FFF70AF905E0A548844202D121
:101760002020FFF703F910BD10B50A46002181893A
:101770000C240B46A34319460B461343194681819B
:1017800010BD10B50A4600218189032464020B466E
:10179000A34319460B4613431946818110BD10B56A
:1017A0000A460021018A032424030B46A343194659
:1017B0000B4613431946018210BD10B50A4600219D
:1017C0008189012424030B46A34319460B46134386
:1017D0001946818110BDF0B587B005460E4600BFA1
:1017E00000BF00BF00BF6846FFF737F802980690B9
:1017F000B1001923069A5A43104604F0C9FA074665
:101800006421384604F0C4FA0401210964225143DA
:10181000791A090108463230114604F0B9FA0590E8
:1018200005980009012805D16421384604F0B0FA72
:10183000401C040105980007000F04432C8107B0E9
:10184000F0BD70B505460C4628462168FFF7C3FF7A
:10185000A1882846FFF7B1FFE1882846FFF79FFFE0
:1018600021892846FFF78DFF61892846FFF77CFF15
:1018700070BD4B21C901016000218180C1800181BF
:101880000C214181704781890122520311438181DA
:10189000704781890122520391438181704770B55D
:1018A0000246002300240025002010460E06730F78
:1018B000CC06E40E0126A6403546012B01D10C30A2
:1018C00004E0022B01D1103000E0143006682E43F2
:1018D000066070BD70B5024600230024002500207C
:1018E00010460E06730FCC06E40E0126A6403546C0
:1018F000012B01D10C3004E0022B01D1103000E0AB
:1019000014300668AE43066070BD028A12091201E7
:101910000282028A0A430282704782890123DB0223
:101920009A43828182890A43828170478189022297
:1019300011438181704781890222914381817047DF
:10194000CA05D20D8280704701468888C005C00D47
:10195000704781890122114381817047818A082261
:10196000114381827047818A0822914381827047A6
:10197000024610880840002801D00120704700204E
:10198000FCE7CA430280704730B502460B4600248C
:10199000002100251806450FD906C90E01208840F0
:1019A0000146012D02D19089014006E0022D02D1AD
:1019B000108A014001E0908A01401C120120A040E1
:1019C000044610880440002903D0002C01D00120D7
:1019D00030BD0020FCE710B5002300220B120124CB
:1019E0009C40A2B2D443048010BD000000440040DB
:1019F000004800401C481D490860704700201B49F2
:101A000008607047194948607047184988607047F6
:101A1000174816490860704716481449086070470F
:101A200015481249086108460069C007C00F002820
:101A300001D0012070470020FCE70F480B490861E6
:101A400008460069C007C00F002801D10120704777
:101A50000020FCE701460548C0680840002801D086
:101A6000012070470020FCE755550000002C004085
:101A7000AAAA0000CCCC0000DDDD000010B50220D9
:101A8000FEF774FF10BD13490968FC229143114A07
:101A90001160114609680143116070470D480068E4
:101AA000022108430B49086070470A480068022178
:101AB00088430849086070470648006801210843C8
:101AC0000449086070470348006840084000014925
:101AD000086070470038004010B504466178002067
:101AE000205600F035F8A078002809D000202056B4
:101AF000C206D20E01219140324A116000BF0AE0B5
:101B000000202056C206D20E012191402D4A80327B
:101B1000116000BF00BF10BD2B49096901432A4A6B
:101B200011617047284909698143274A116170474B
:101B3000042806D12549096904221143234A116169
:101B400005E02249096904229143204A1161704746
:101B500010B500281BDA1C4A1C3203071B0F083B78
:101B60009B089B00D2588307DC0EFF23A3409A43B7
:101B70008B071B0E8407E40EA3401A43124B1C3341
:101B80000407240F083CA408A4001A5118E00D4AC9
:101B900003231B02D21883089B00D2588307DC0E54
:101BA000FF23A3409A438B071B0E8407E40EA34038
:101BB0001A43044B032424021B198408A4001A515D
:101BC00010BD000000E100E000ED00E000E000E0FA
:101BD00001460020FD4A1068C008C00002460A43C2
:101BE0001046FA4A10607047F84800684007400FF6
:101BF0007047F648006810210843F44908607047B0
:101C0000F248006810218843F04908607047F048A6
:101C1000EE494860EF4848607047EC480069802111
:101C20000843EA4908617047E948E8498860E9489B
:101C300088607047E5480069012149028843E3490B
:101C400008617047E1480069012149020840002805
:101C500001D0012070470020FCE70420DB49C9685F
:101C6000C907C90F002901D0012010E0D749C96870
:101C700004221140002901D0022008E0D349C9689C
:101C800010221140002901D0032000E004207047F9
:101C900010B503460424FFF7E0FF044603E0FFF716
:101CA000DCFF04465B1E012C01D1002BF7D1002B79
:101CB00000D10724204610BDC449C9680143C34A66
:101CC000D160704730B5044604256806844202D3CB
:101CD000C148844201D9062030BD3420FFF7ECFF13
:101CE0000B200004FFF7D4FF0546042D19D1B74897
:101CF000006902210843B5490861B8480440084614
:101D00004461006940210843B04908610B20000488
:101D1000FFF7BEFF0546AD48006902218843AB4985
:101D200008612846D8E710B504243420FFF7C4FF23
:101D30000B200004FFF7ACFF0446042C16D1A34887
:101D4000006904210843A14908610846006940214F
:101D500008439E4908610B200004FFF799FF0446E1
:101D60009A4800690421884398490861204610BDBB
:101D700010B504243420FFF79FFF0B200004FFF769
:101D800087FF0446042C17D190480069A10108433D
:101D90008E49086108460069402108438B49086163
:101DA0000B200004FFF774FF044688480069FF21F8
:101DB0000131884385490861204610BD70B504464D
:101DC0000D460426A007800F002801D0062070BD14
:101DD0003420FFF771FF01204003FFF759FF06464B
:101DE000042E10D179480069012108437749086120
:101DF0002560F002FFF74CFF064674480069400872
:101E00004000724908613046E1E77048C069C00F80
:101E1000C007002801D0012070470020FCE710B562
:101E20000424FFF7F2FF002801D0052010BD342064
:101E3000FFF742FF0B200004FFF72AFF0446042CA3
:101E400026D1FFF7F1FE61480069202108435F4970
:101E5000086108460069402108435C4908610B207D
:101E60000004FFF715FF0446042C09D13420FFF7C6
:101E700023FF56480069202188435449086107E040
:101E8000072C05D051480069202188434F4908613B
:101E90002046CBE7FFB505460E4617460424FFF75C
:101EA000B4FF002802D0052004B0F0BDFFF7BCFE4F
:101EB0003420FFF701FF0B200004FFF7E9FE044682
:101EC000042C1DD141480069102108433F49086195
:101ED0003046384303990843099908430A9908434F
:101EE000000428433E490860E002FFF7D1FE0446A3
:101EF000072C05D035480069102188433349086113
:101F00002046D1E770B505460E460424FFF77DFF55
:101F1000002801D0052070BD3420FFF7CDFE012040
:101F20004003FFF7B5FE0446042C17D1FFF77CFEF3
:101F300026480069102108432449086130042843D9
:101F400027494860E002FFF7A3FE0446072C05D0AE
:101F50001E480069102188431C4908612046DAE7C1
:101F6000FFB505460E46174604243420FFF7A4FEAD
:101F7000E002FFF78DFE0446FFF747FF002802D07E
:101F8000052004B0F0BD042C1DD1FFF74DFE0F4815
:101F90000069102108430D49086130463843039910
:101FA000084309990843000428430D498860E0026A
:101FB000FFF76EFE0446072C05D004480069102187
:101FC0008843024908612046DBE700000020024008
:101FD00023016745AB89EFCDFF750008FF7F00083F
:101FE00000F6FF1F70B505460E460424FFF70DFFEF
:101FF000002801D0052070BD3420FFF75DFE0120D0
:102000004003FFF745FE0446042C17D1FFF70CFEF2
:10201000C748006910210843C549086130042843B6
:10202000C449C860E002FFF733FE0446072C05D020
:10203000BF48006910218843BD4908612046DAE79E
:1020400030B50424BA48C0697C2108408503FFF7F5
:10205000DCFE002801D0052030BD3420FFF72CFE27
:102060000B200004FFF714FE0446042C3ED1FFF7BA
:10207000DBFDAF48006920210843AD4908610846EF
:10208000006940210843AA4908610B200004FFF7BA
:10209000FFFD0446042C21D13420FFF70DFEA44897
:1020A000006920218843A24908610846006910217F
:1020B00008439F490861FF20000428409D490860AB
:1020C0000B200004FFF7E4FD0446072C0ED09848CF
:1020D0000069102188439649086107E0072C05D064
:1020E0009348006920218843914908612046B3E75D
:1020F00030B504248E48C0697C2108408503FFF771
:1021000084FE002801D0052030BD3420FFF7D4FD27
:102110000B200004FFF7BCFD0446042C3DD1FFF763
:1021200083FD8348006920210843814908610846EE
:102130000069402108437E4908610B200004FFF735
:10214000A7FD0446042C20D13420FFF7B5FD7848C4
:1021500000692021884376490861084600691021FA
:10216000084373490861A5202843724908600B2081
:102170000004FFF78DFD0446072C0ED06C48006963
:10218000102188436A49086107E0072C05D0684898
:10219000006920218843664908612046B4E7644805
:1021A000C06902210840002801D0012070470020AA
:1021B000FCE730B504245E48C0697C2108408503F3
:1021C000FFF7EDFF002801D1A5200543FFF71DFE15
:1021D000002801D0052030BD3420FFF76DFD0B2015
:1021E0000004FFF755FD0446042C48D1FFF71CFD01
:1021F0004F480069202108434D490861084600699D
:10220000402108434A4908610B200004FFF740FDC4
:102210000446042C2BD13420FFF74EFD44480069BE
:10222000202188434249086108460069102108437B
:102230003F4908613F4805600B200004FFF728FD77
:102240000446042C0AD13420FFF736FD3A483949B8
:10225000C8600B200004FFF71BFD0446072C0ED0BE
:1022600033480069102188433149086107E0072C91
:1022700005D02F480069202188432D490861204658
:10228000A9E701462A48C06980080840002801D013
:10229000012070470020FCE72548006AC0B2704763
:1022A0002348006A0F2109020840000A70470146CE
:1022B0001F48006A000A0840002801D0012070472A
:1022C0000020FCE71A48006AFF2109040840000CBE
:1022D00070471748006820210840002801D00120DD
:1022E00070470020FCE7124909690143104A116157
:1022F00070470F49096981430D4A116170470146D2
:102300000B48C0680840002801D001207047002019
:10231000FCE701460648C0690840002801D00120BA
:1023200070470020FCE70A460243014B5A6270479F
:102330000020024000F6FF1FCC33FFFF10B5FFF76F
:1023400059FB0720FFF75EFBFF20F530FFF75DFB31
:10235000FFF75EFBFFF760FB10BD00B587B0042000
:10236000FEF7F8FA01A8FEF735F9102001900020D9
:1023700002900220039001A99A48FEF7FFF807B0E7
:1023800000BD1CB513218901964800F083F9C021D6
:10239000944800F0B1F90120800292498861C0217F
:1023A000904800F0A1F902F03DFE00F0B3F900F012
:1023B000A3FA694601A802F0FBFD684600790028EF
:1023C00003D168460078002804D068460178007977
:1023D00000F0CCFA02F06CFE00F0CDFF7D20C000D2
:1023E00003F071FC02F010F9FFF7B7FF01214B2059
:1023F000C00102F098FE03F01DFA002400F0CDFBAE
:10240000794805682EE001F063F900F00BFA00F05E
:10241000D1FB00280CD0754800F025FA00F002FA34
:10242000FF20F53003F04FFC642002F020FE20E096
:102430006D480068411B601CFA225043814211D351
:10244000601CC4B2E007C00F002805D0684800F047
:102450000AFA00F0E7F905E00521664803F0DBFC25
:1024600000F0E0F960480068401B7D2109018842C6
:10247000C9D300BF00F09AFB4B20C00002F0F7FD6B
:1024800003F086FB03F0B0FB02F052F9FFF756FFB2
:10249000A6E0FFF7BDFA58480078002804D003F002
:1024A000AFFB00205449087054480078002807D03A
:1024B00000205249087052A254A158A002F06CFCAE
:1024C0005A480078002804D000205849087002F0CB
:1024D00082FC5748007800281AD05648047800201B
:1024E00053490870062C05D153A255A158A002F0FB
:1024F00053FC0CE0072C05D141A244A147A002F0F7
:102500004BFC04E04CA256A158A002F045FC00BFD1
:1025100059480078002804D000205749087002F07C
:1025200094FC56480078002819D054480178684631
:102530000171524841786846417150488178684637
:1025400081714E48C1786846C17100204B490870BE
:102550006B46DA799979587902F0E9FA00BF224896
:10256000006847490968401A322807D300F00EFE78
:1025700000F058F91C4800684149086003F07CF9F4
:10258000194800683F490968401AFF21F53188421F
:1025900003D3154800683B4908603B480078002891
:1025A00006D11148006839490968401AC82808D37B
:1025B00000203549087002F062F90B480068334981
:1025C00008600948006832490968401A7D210901FC
:1025D000884205D302F0DDFA034800682C49086000
:1025E00057E70000001C004004000020672B00009B
:1025F000385B0100D40000209C000020A2000020D5
:102600006F76657268656174000000004F766572D0
:10261000686561742073746F700000004F564552F6
:10262000484541545F53544F50000000A300002020
:10263000A4000020BD0000206E6F726D616C000070
:1026400053656E736F72206661756C7400000000D4
:1026500053454E534F525F4641554C5400000000C5
:102660004D6F746F72206661756C74004D4F544FDE
:10267000525F4641554C5400A10000209D000020AF
:102680000C00002010000020680000201400002032
:102690001800002030B587B005460C461A48854220
:1026A00003D10420FEF756F905E01848854202D10F
:1026B0000820FEF74FF9164884420BDA01A8FDF70F
:1026C00089FF0194012002900020059001A928466D
:1026D000FDF754FF07B030BD70B504460D462946DE
:1026E0002046FDF7A7FF70BD70B504460D4629468C
:1026F0002046FDF794FF70BD70B504460D4629468F
:102700002046FDF78EFF70BD001C004000200040F9
:10271000FFFF000000B587B00420FEF71BF901A8F9
:10272000FDF758FF282001900120029001A96E4872
:10273000FDF724FF08216C48FDF771FF20216A484E
:10274000FDF76DFF07B000BD08B509E0002100915D
:1027500003E000BF0099491C009100990C29F8D3AF
:102760000146421E90B20029F0D108BD10B52021CB
:102770005D48FDF754FF08215B48FDF750FF02203C
:10278000FFF7E2FF20215848FDF74BFF0220FFF73B
:10279000DBFF10BD10B520215348FDF742FF02209A
:1027A000FFF7D2FF08215048FDF739FF0220FFF75D
:1027B000CBFF20214C48FDF732FF0220FFF7C4FF7A
:1027C00010BD70B50446002522E008214648FDF7FB
:1027D00028FF0220FFF7B8FF00BFE007C00F002866
:1027E00004D020214048FDF71AFF03E020213E4895
:1027F000FDF717FF00BF0220FFF7A6FF08213A48A8
:10280000FDF70DFF0420FFF79FFF6410681CC5B2A1
:10281000082DDADB08213448FDF703FF0220FFF71B
:1028200093FF70BD10B5FFF7A1FF4020FFF7C9FF70
:10283000FFF7B0FFFFF79AFFC020FFF7C2FF0024A9
:1028400005E02A49085DFFF7BCFF601CC4B2102CEC
:10285000F7DBFFF79FFFFFF789FF8F20FFF7B1FF3F
:10286000FFF798FF10BDFEB504460A21204603F08D
:102870008FFA0D460A21204603F08AFA0A210090B9
:1028800003F086FA0E466421204603F081FA0A21FD
:10289000009003F07DFA0F467D21C900204603F029
:1028A00077FA0A21009003F073FA0291104920464A
:1028B00003F06EFA0A21009003F06AFA01910D49C3
:1028C0000198085C094908700A490298085C0749A0
:1028D00048700848C05D88700648805DC87005482B
:1028E000405D0871FEBD0000001C0040D4000020C7
:1028F000102700002665000800B587B00420FEF709
:1029000029F801A8FDF766FE0120000301900020D0
:1029100002900120039001A9FE48FDF72FFE01203F
:10292000FD4908700020FD490870FD490870FD4907
:1029300008704870FC490870FC490870FC49087030
:10294000FC490880FC490880FC490870FC49087073
:1029500048708870C870FF20FA4908704870887005
:102960000020F9490870487007B000BDF64A1070A1
:1029700051707047FCB5E74A126901231B031A40E6
:10298000100BEA4A127890427ED0F04A1178002269
:10299000EE4B1A70012878D1DF4A1278012A13D140
:1029A00023290EDB41290CDC0222DB4B1A700022AA
:1029B000DA4B1A70E64B1A70E14B1A705A709A7023
:1029C000B6E0DA4A1070FCBDD34A1278022AF7D179
:1029D000DF4A1278012A7DD10A46DE4B1B789B180C
:1029E000DBB20193019B052B26DB019B0B2B23DC28
:1029F000D84B1B78012B0ADBD64B1B78042B06DC4B
:102A0000042A04DB082A02DC002300931AE0D14BDD
:102A10001B78042B0ADBCF4B1B78082B06DC012A22
:102A200004DB042A02DC012300930BE00123BA4CEF
:102A30002370BE4B1870C6E70123B74C2370BB4B05
:102A40001870C0E7B54B1B78182B27DA009B002BBA
:102A50001FD0B24D2B78DD176D0FED18ED10B84E6D
:102A6000755DAE4E3478E617760F3619F610F6001F
:102A7000A61B0727BF1B0126BE403543A74E337850
:102A8000DE17760FF61801E055E042E0F610AC4F85
:102A9000BD55A24B1B785B1CA04C23709F4B1B7831
:102AA000182B2ED1A64B1B78A64C2478A3421BD101
:102AB000A34B5B78A34C6478A34215D1A04B9B78C1
:102AC000A04CA478A3420FD19D4B1B78954C23704A
:102AD0009B4B00E019E05B786370994B9B78924CBC
:102AE000237001238E4C2370954B1B78954C2370DB
:102AF000934B5B786370924B9B78A3700123864C59
:102B000023700023924C237012E00122824B1A7032
:102B10000EE000280CD1804A1278022A08D18C4A93
:102B20001278002A04D18B4A11700122884B1A7046
:102B30007E4A107010E0854A1278521C834B1A703E
:102B40001A461278642A07DD0122734B1A7000229C
:102B50007E4B1A707E4B1A7000BF34E772480078C3
:102B60007047002805D06F49097801706D49497890
:102B7000417070477848006870477749086070472F
:102B80007648007870477549087070476448007847
:102B90007047002062490870704701207049087032
:102BA0000020704908705E490870704700206C4929
:102BB000087070476B4800787047002805D062495C
:102BC000097801706049497841707047664B186018
:102BD000664B1960664B1A60704710B556480088FE
:102BE000002804DD54480088401E534908805C4892
:102BF0000078002815D04A480078012811D14A48A9
:102C00000078012809D1474800784F4908704548A5
:102C100040784870012053490870002040490870EE
:102C200010BD3F480078012872D1474800783D49DF
:102C300009788842F8D1444840783A49497888422E
:102C4000F2D13E480078002807D1374800780128A3
:102C500003D035480078042807D138480078012887
:102C600007D135480088002803DD00202C49087072
:102C7000D6E72D4800782E490978884249D02A485D
:102C8000007801287CD0022804D0042879D00628B6
:102C900078D126E0364801682F48006803F0EFF845
:102CA0002D490860314801682B48006803F0E0F9BD
:102CB00003D22E480068284908602C48016826483D
:102CC000006803F0CBF902D1FF20913000E0C8206A
:102CD00028490880012028490870002027490870E9
:102CE000BFE0234801681C48006803F019F91A493D
:102CF00008601D4801681848006803F0AFF903D266
:102D000019480068144908601748016812483AE0F9
:102D1000B3E0AEE0001C00402B0000202C0000209F
:102D20001D0000201F0000201E0000203300002096
:102D30003400002036000020480000201C00002045
:102D40002D00002038000020310000204A00002023
:102D50004B0000204C000020240000202800002010
:102D6000290000202A000020400000203C00002014
:102D700044000020900000209200002093000020DA
:102D800044E011E06CE0006803F068F902D1FF2034
:102D9000913000E0C8204149088001204049087076
:102DA0000020404908705CE03F48007801281AD1B3
:102DB0003E480078012803D03C480078022807D11B
:102DC00003203A490870FF209130344908801CE004
:102DD00036480078032818D1042034490870C820E8
:102DE0002E49088011E0C8202C490880304800781E
:102DF000401C2F49087007202C4908702C48007887
:102E0000042802DD01202A4908702AE026480078BB
:102E1000002801D1012000E0002023490870084665
:102E20000078002803D02148007807280ED11F48D9
:102E30000078072802D100201B49087005201B4993
:102E40000870FF2091301549088008E006201749D6
:102E50000870C8201149088016481749088000E00A
:102E600000BF00BF154800781549087000201549BB
:102E700008800020144908700EE0124800881921CB
:102E80008901884205DA0F480088401C0D490880F6
:102E900002E000200A49087000BFC1E6900000204F
:102EA00092000020930000201C00002094000020CD
:102EB00095000020983A0000480000201E000020E5
:102EC00034000020360000201D000020FA48007861
:102ED000012807D0022803D0032805D1F7487047FE
:102EE000F748FCE7F748FAE7F748F8E70146012911
:102EF00006D0022906D0042907D0062907D102E00E
:102F00000120704700BF0220FBE70320F9E7002003
:102F1000F7E7F8B505460521EC4802F07CFFE12013
:102F20000001854245DA3C21284602F047FFC4B241
:102F30003C21284602F042FFCEB20A2C22DB0A21B5
:102F4000204602F03BFFE249085CE04908700A2194
:102F5000204602F033FFDE48405C80210843DB4915
:102F600048700A21304602F029FFD949085CD74948
:102F700088700A21304602F021FFD548405CD349D1
:102F8000C87015E0D248005D80210843CF494870E1
:102F90000A21304602F012FFCD49085CCB49887007
:102FA0000A21304602F00AFFC948405CC749C87090
:102FB00050E0E1210901284602F000FFC4B2E121FE
:102FC0000901284602F0FAFE0F463C21384602F07D
:102FD000F5FEC6B2632C01DD63243B260A2C22DBFE
:102FE0000A21204602F0EAFEB949085CB749087098
:102FF0000A21204602F0E2FEB548405C80210843E9
:10300000B24948700A21304602F0D8FEB049085C47
:10301000AE4988700A21304602F0D0FEAC48405CD0
:10302000AA49C87015E0AA48005D80210843A74955
:1030300048700A21304602F0C1FEA549085CA34948
:1030400088700A21304602F0B9FEA148405C9F49D1
:10305000C87000BFF8BDFEB506469E49304602F076
:1030600067FF3F210906009002F009FF074602F0C2
:10307000E1FFC0B201900021304602F0EFFF00D224
:1030800000269549304602F0F3FF00D2924E0A2105
:10309000019802F093FEC4B20A21019802F08EFE5C
:1030A000CDB20521894802F0B6FE8948005D802135
:1030B0000843864988708648405DC870FEBD73200D
:1030C00082490870772048703E2088706D20C87053
:1030D000792008717047F8B505460021284602F0AE
:1030E000BDFF00D200257D49284602F0C1FF00D275
:1030F0007A4D7B49284602F01BFF07463F2109060F
:1031000002F0BDFE064602F095FF84B205216F482D
:1031100002F081FE7349204602F050FE06460A2165
:1031200002F04CFE6A48405C684908707D21C90085
:10313000204602F043FE06460A2102F03FFE6448A4
:10314000405C624948706421204602F037FE064622
:103150000A2102F033FE5E48405C802108435B494F
:1031600088700A21204602F029FE06460A2102F054
:1031700025FE5748405C5549C8700A21204602F098
:103180001DFE5348405C51490871F8BD70B50020E0
:103190004E49487154480078030002F0DBFF0A06EC
:1031A00010204E115A6382BB5FE9002404E04020E6
:1031B00046490855601CC4B2052CF8DBD9E000BFB5
:1031C0000521424802F027FE48480088002805DD16
:1031D0003F4846490988405C3C490871C9E0444879
:1031E0000078002806D001280DD0022813D003282B
:1031F00021D118E0FFF7BEFC0546FFF72CFF0120A8
:103200003249487117E03B480088FFF782FE1020E2
:103210002E4948710FE038480088FFF724FB202032
:103220002A49487107E035480068FFF754FF02203B
:103230002649487100BF00BF9BE031480078002854
:1032400002D0FFF73CFF03E00521204802F0E3FD38
:103250008FE02C480068FFF7FEFE8AE00020FFF7B1
:10326000FAFE86E0FFF78CFC0546042D00DD042500
:1032700025480068254988420AD2732013490870FE
:10328000002048708870C8701148405D087103E0E4
:1032900016480088FFF73DFE1D48405D0B49487108
:1032A00067E0002009490870487088707920C8706C
:1032B0000748807808715CE0860000203333334093
:1032C000000040409A99594033337340D4000020A5
:1032D000266500080000204166661E415CFF7944B7
:1032E0000000C84210270000500000205C000020B1
:1032F00069000020520000205400002058000020E7
:103300007400002078000020700000208813000066
:1033100047650008FE48007800280DD00020FD49D0
:103320000870487088707920C870FB48F84909789F
:10333000405CF84908711AE0F848007800280CD081
:103340000020F4490870487079208870F24840786D
:10335000C870F148C079087109E00020ED49087093
:10336000487088707920C870EB480078087100E0D8
:1033700000BF00BF70BD10B5E948FFF71EFC00207C
:10338000E8490870E8490880E8490880E849088069
:10339000E84908600320E84908800020E7490880E0
:1033A000E74908800120FFF7EEFB0020E54908709F
:1033B000E5490860E54908600120E54908700020FA
:1033C000E4490860E4490860E4490860E449087099
:1033D0001421E44802F01FFDFFF7D8FE10BD10B520
:1033E0000446D04804700020D7490860D7490860D7
:1033F0000120DD490870230002F0ACFE0A061E4BD6
:103400005762667277831A8F0120FFF7BCFB00209A
:10341000D3490870D54AD6497F20C005FFF7D6FBAF
:103420007F20C005FFF7A9FB0A20D249487075E04C
:103430000020FFF7A2FB71E00320BF490880BF48CE
:103440000088401CBD4908800020B7490880B74962
:10345000088002F0EAF8B64908800020B549086003
:10346000B7490880BD4908607F20C005C24908608F
:10347000BE4ABF49FFF7AAFB7F20C005FFF77DFBCF
:103480000A20BC4948700020BC490870BC4908703B
:1034900044E0B9480068FFF770FB0020A9490870B4
:1034A000AA490860AD49086038E0FFF763FBA94905
:1034B00008600020A84908600120A54908702DE097
:1034C00003209D49088029E0FFF754FBA1490860CB
:1034D0000020A14908607F20C005A74908601DE0C1
:1034E000FF202D309449088018E00020FFF745FBAD
:1034F0007F20C005A0490860FF209130A1490880C5
:103500000CE00020FFF739FB7F20C0059A490860D6
:10351000192040019B49088000E000BF00BF10BD9A
:10352000F8B504460D467F480078030002F012FE0D
:103530000A06191A80898A8BA9B307CD00BF012C0E
:1035400006D10120FFF74BFFC8208E49088007E015
:10355000032C05D10620FFF742FFC82089490880C7
:10356000B4E0B3E0022C4FD1022D26D1834800787D
:10357000002804D0FF209130824908803EE0FFF708
:10358000F9FA0746794902F07AFC0646784930464E
:1035900002F06EFD00D2764E3046FFF7EEFA764826
:1035A00006607349304602F059FD02D1FF20913088
:1035B00000E0C8207349088020E0FFF7DBFA0746E7
:1035C0006A4902F0ADFC06467F21C905304602F08B
:1035D00045FD01D27F26F6053046FFF7CEFA664854
:1035E00006607F21C905304602F038FD02D1FF2078
:1035F000913000E0C8206349088000BF0020514995
:1036000008705249086012E0032C07D10320FFF72D
:10361000E6FEFF2091305B49088008E0012C06D1CE
:103620000520FFF7DCFEFF209130564908804DE071
:10363000012C05D10420FFF7D2FEC8205149088093
:1036400044E000BF42E0012C07D10020FFF7C7FE95
:10365000FF2091304B49088012E0032C10D1FFF776
:103660008FFA401CC6B2042E00DD01263046FFF75B
:103670008AFA002035490860C8204249088000BF06
:1036800024E0012C06D10020FFF7A9FEFF20913095
:103690003C4908801AE0012C16D120480078002807
:1036A00012D11B48007800280AD002F0C4F8002884
:1036B00001D0C82001E0FF2091303249088003E0AA
:1036C000FF2091302F49088000E000BF00BFF8BD07
:1036D000F0B585B02C48006804902C49049809681E
:1036E000441A002C01D105B0F0BD284904980860A7
:1036F00027480078002861D0FFF748FA00285CD0FE
:10370000FFF72CFA0546012D54D1224A517843E0A7
:10371000BD000020D400002026650008BC00002069
:10372000880000205000002052000020540000209B
:1037300084000020580000205C0000205E00002073
:1037400060000020690000206C0000207000002054
:1037500074000020780000207C0000208000002001
:103760008A000020E400002068000020CDCCCC3D81
:1037700033337340F80000206400002086000020EE
:103780008700002090000020040000209800002006
:10379000290000201F0000201078FFF7E7F8FE4AFC
:1037A0005178107801F015FC0120FC490870FC48A4
:1037B000FFF703FAFFF7EDF900BF94E7FFF7E6F92B
:1037C00000282CD003A8FFF7CCF96846007BF44909
:1037D0000978884220D16846407BF149497888427F
:1037E0001AD1FFF7BBF905462846FFF77FFB0646CF
:1037F000EC480078854203D1EA480078002807D1D8
:10380000002E03D029463046FFF78AFEE5480570B2
:103810000020E549086000BFFFF7BBF90DE0E24872
:1038200000680019E049086008460068782804D359
:103830000020DC490870DC490860DC480068001999
:10384000DA490860DA480078030002F083FC0AFED7
:103850000627C2FDFCFBC1FAF9FAD44800687D21B5
:10386000C900884212D3D348008800280EDDD14811
:103870000088401ECF490880CC4800687D21C900DF
:10388000401ACA4908606420CB490880C9480088AA
:10389000002802D10220FFF7A2FD54E101F0CFFE83
:1038A0000746662F01D3032508E0642F01D30225C4
:1038B00004E0622F01D3012500E00025BF48057018
:1038C0000078BF49097888420AD0BC4800780128AE
:1038D00002DB0120BB490870B8480078B84908707D
:1038E000FFF7F4FA0646B84A31467F20C005FFF7D5
:1038F0006DF9B2480078012811DB3146B348006801
:1039000002F0B6FB06D3FFF735F93146039002F01B
:10391000AFFB04D23046FFF730F9AC480660AC4844
:1039200000680019AA490860084600687D21C9009E
:1039300088420BD3A7480088401CA6490880A448A9
:1039400000687D21C900401AA1490860204602F0A4
:103950006AFB0190FFF70EF90090019902F0E8FA76
:103960009D49029002F021FB03909C480168039856
:1039700002F085FA9949086099499848006802F070
:10398000D7FA039002F056FB9649088096480068E3
:1039900000199549086008460068944988420FD389
:1039A00091480068401A9049086091490978481C7C
:1039B000C117890F091889108900411A8C4A1170A2
:1039C00001F033FE8B490988401A8B490880BAE020
:1039D000B9E08A48006800198849086000218848D1
:1039E000006802F045FB18D284480068962814D37A
:1039F00082480068963881490860734980480068A9
:103A000002F08EFA7E49086000217D48006802F0CD
:103A100025FB02D200207A4908607348006800192B
:103A20007149086008460068FF21F531884214D3C7
:103A30006D480068401A6C4908607248007805E0DB
:103A400053E07EE05BE027E008E07BE0002801D166
:103A5000012000E000206B49087074E053480068C2
:103A60007D21C90088420FD35248008800280BDD11
:103A700050480088401E4F4908804C4800687D210E
:103A8000C900401A494908604A480088002802D104
:103A90000220FFF7A4FC56E0584800680019574977
:103AA000086000215648006802F0E2FA19D2534833
:103AB0000068962818D35148006896384F49086026
:103AC00041494F48006802F02BFA4D490860002137
:103AD0004B48006802F0C2FA06D20020484908604C
:103AE00002E00920FFF77BFC2DE0304800687D21D3
:103AF000C900884202D30020FFF771FC23E03A4856
:103B00000068001938490860284800683E49884222
:103B100009D3002027490880FFF761FCFF2091307E
:103B2000254908800CE02148006837490D1A7D219D
:103B3000C900481E281802F02BF91E49088000BF52
:103B400001E000BF00BF00BF00BFCCE510B52F48AB
:103B50000078002819D116480078082815D00120CF
:103B60002A49087012480078487018480068486070
:103B7000FFF706F8254908720E48008848810B486F
:103B80000068C8601848006808610948007808287B
:103B900041D008203CE000001F0000202A00002047
:103BA000880000208A0000208C0000206C0000208B
:103BB000500000205C0000209000002086000020C3
:103BC00087000020A1000020CDCCCC3D6400002067
:103BD000800000205200002000BA5B4A58000020FC
:103BE0000000C8426000002070000020B80B0000F8
:103BF0006900002084000020540000207C00002088
:103C00007800002074000020E0930400E40000200D
:103C1000FFF7E5FB02E001209849087010BD9848C5
:103C20000078704796480078002805D0944840787E
:103C3000062801D1012070470020FCE710B590480C
:103C40000078002802D08E48007A10BDFEF798FF59
:103C5000FBE78B480078002802D0894840897047EC
:103C600088480088FBE786480078002802D084480E
:103C70004068704784480068FBE710B5142180480D
:103C800002F0C9F810BD00B585B07D480078002865
:103C900003D1FFF7A4FB05B000BD142278496846A4
:103CA00002F0A0F81421764802F0B5F876490198A0
:103CB000086068464078030002F04CFA0A2F0706B5
:103CC0000C0822102A2E262E00BF00BF0420FFF76A
:103CD00086FB26E00320FFF782FB22E06946087A94
:103CE000FEF751FF0620FFF77AFB6849039808604A
:103CF000674904980860694648896249088010E06D
:103D00000520FFF76CFB0CE00920FFF768FB08E0DB
:103D10000720FFF764FB04E000BF0020FFF75FFB14
:103D200000BF00BF00BFB6E710B5FFF7A6FF7F20BA
:103D3000C00555490860574A5749FEF747FF00201C
:103D4000FFF74DFBFF2091305449088010BD10B59E
:103D5000044653480078030002F0FCF90A061F34B9
:103D600048208D5B747E078D00BF012C06D1012099
:103D7000FFF735FBC820494908800DE0042C0BDB18
:103D8000072C09DCE11EC8B2FEF7FDFE0620FFF796
:103D900026FBC820414908806EE000BF002C07D1F7
:103DA0000520FFF71CFBFF2091303C49088008E00C
:103DB000022C06D10320FFF712FBFF209130374978
:103DC000088059E0002C07D10520FFF708FBFF20F1
:103DD00091303249088008E0022C06D10320FFF719
:103DE000FEFAFF2091302D49088045E0002C07D1D4
:103DF0000520FFF7F4FAFF2091302849088007E0FA
:103E0000032C05D10420FFF7EAFAC82023490880D3
:103E100032E0002C07D10020FFF7E1FAFF209130BB
:103E20001E4908800DE0042C0BDB072C09DCE11E89
:103E3000C8B2FEF7A8FE002015490860C82017493F
:103E4000088019E0002C06D10020FFF7C8FAFF20F7
:103E50009130124908800FE0002C0BD111480078F6
:103E6000002807D110490870FFF7B9FAFF209130F8
:103E70000A49088000E000BF00BF10BD68000020B4
:103E8000E40000205C000020640000206C000020A2
:103E900070000020CDCCCC3D333373409000002027
:103EA00050000020BC000020BD000020FE4800683B
:103EB000401CFD490860704710B51021FB4801F017
:103EC000AAFF10BD0020FA490870FA49087070472F
:103ED0000D2805D00A2803D0202812DB7E2810DC0C
:103EE000F34909787F2902DB0021F14A1170F04A79
:103EF00011784A1CEE4B1A70EE4A505400211B7880
:103F0000D154704710B504462146EA4801F08EFFAF
:103F1000002801D0012010BD0020FCE770B5054647
:103F20000C46E54806680DE02846FFF7EBFF002841
:103F300001D0012070BDE1A0FFF7E4FF002801D00F
:103F40000020F7E7DC480068801BA042ECD300208B
:103F5000F0E770B504460D460BE000BF8021D9485C
:103F6000FDF706FD0028F9D02178641CD548FDF73F
:103F7000E7FC2846691E8DB20028EED100BF402123
:103F8000D048FDF7F5FC0028F9D070BD70B50446A7
:103F9000204601F05FFF85B229462046FFF7D9FF92
:103FA00070BD70B506460C461546FFF78BFF3046D0
:103FB000FFF7ECFF29462046FFF7B0FF70BD70B554
:103FC00006460C4600250DE02246BFA13046FFF70D
:103FD000E8FF002801D0012070BD782001F073FEB9
:103FE000681CC5B2032DEFDB0020F5E770B506466F
:103FF0000C461546FFF766FF3046FFF7C7FF294618
:104000002046FFF78BFF70BD3FB581B01D46AA214A
:10401000009101216846FFF79CFF55210091012185
:104020006846FFF796FF012101A8FFF792FF0121E3
:1040300002A8FFF78EFF012103A8FFF78AFF0024E3
:1040400005E028190121FFF784FF601CC4B268460F
:10405000007B8442F5DB5520009001216846FFF784
:1040600078FF05B030BD10B5984B58709970DA7074
:104070000123964C237010BD00B501460B0002F0E1
:1040800069F8080507090B0D0F111315022000BD73
:104090000120FCE70320FAE70420F8E70620F6E712
:1040A0000720F4E70820F2E70920F0E70020EEE718
:1040B00000B501460B0002F04DF80B1B07090B0D74
:1040C0000F11131517191B0081A000BD82A0FCE77A
:1040D00083A0FAE784A0F8E785A0F6E787A0F4E7D5
:1040E00088A0F2E789A0F0E78AA0EEE78BA0ECE7D2
:1040F0007AA0EAE710B58D480078072801D10120A1
:1041000010BD8B480078072801D10120F8E701F0A5
:1041100096FA622801D30120F2E70020F0E700B50B
:104120000246130002F016F80A06112A435C757B5A
:104130008187078D00BF002903D0012903D100200A
:1041400000BD0120FCE70320FAE702290ED004DCC1
:10415000002909D001290FD104E0032908D08029C2
:104160000AD107E00120EBE70020E9E70020E7E7BC
:104170000120E5E70020E3E70320E1E702290ED074
:1041800004DC002909D001290FD104E0032908D05B
:1041900080290AD107E00120D2E70020D0E70020E3
:1041A000CEE70120CCE70020CAE70320C8E70229B8
:1041B0000ED004DC002909D001290FD104E0032925
:1041C00008D080290AD107E00320B9E70020B7E72B
:1041D0000120B5E70020B3E70020B1E70320AFE7F7
:1041E00002290ED004DC002909D001290FD104E0F6
:1041F000032908D080290AD107E00120A0E7002088
:104200009EE700209CE701209AE7002098E7032022
:1042100096E7002901D1012092E7022090E70029CA
:1042200001D100208CE703208AE7002901D100207A
:1042300086E7032084E7002901D1012080E70320DD
:104240007EE703207CE7F8B50546284601F0EBFE43
:104250000646384901F0A9FE04467F21C9052046DB
:1042600001F0FCFE01D27F24E4053349204601F031
:10427000FFFE00D2304C314804602C480078022800
:1042800002D12046FEF779FC2A49204601F050FE73
:1042900007463F21090601F0F2FD064601F0CAFE7D
:1042A00002494870F8BD0000A8000020F800002076
:1042B000B100002018010020040000204552524F98
:1042C00052000000004800404F4B00009D000020BD
:1042D000737461727400000073746F7000000000EA
:1042E0007061757365000000726573756D6500001F
:1042F0007365745370656564000000006D6F6465DC
:10430000310000006D6F6465320000006D6F646500
:10431000330000006D6F646534000000636F6E66EB
:1043200069726D50616972696E670000500000200B
:10433000BD000020000020413333734064000020A2
:1043400070B50546FFF7D6FE002805D001221146BC
:104350000520FFF788FE70BD8021FE480078FFF73A
:10436000DEFE0446002C06D0012C0DD0022C11D00C
:10437000032C15D115E02846FFF765FF00221146F2
:104380000520FFF770FE12E0002211460520FFF71E
:104390006AFE0CE0022201210520FFF764FE06E020
:1043A00000BF012211460520FFF75DFE00BF00BFE0
:1043B00000BFD0E770B504462046FFF75DFE064615
:1043C000042C1CDB072C1ADCE2480078002807D0FC
:1043D000E0480078092803D0DE480078062808D194
:1043E0002046FFF7B4FC002211463046FFF73BFEA3
:1043F00004E0012211463046FFF735FE70BD012C66
:1044000001D0032C09D1FFF775FE002805D0012249
:1044100011463046FFF727FEF0E72146CD480078E9
:10442000FFF77DFE0546002D06D0012D0DD0022D93
:1044300011D0032D15D115E02046FFF788FC00228E
:1044400011463046FFF70FFE12E0002211463046BB
:10445000FFF709FE0CE0022201213046FFF703FEC0
:1044600006E000BF012211463046FFF7FCFD00BF09
:1044700000BF00BFC2E710B5B748007802284DD191
:10448000B6480078032817DCB4480078B4490978A6
:104490004018032810DDB14800780321081AB149FB
:1044A0000C5C012C07D10120AF4908700022114695
:1044B0000A20FFF7D8FD10BDA848007801281ADCB3
:1044C000A6480078A64909784018012813DDA348BA
:1044D00000780121081AA3490C5C0A2C01DB262C68
:1044E00005DD012211460520FFF7BDFDE3E720466B
:1044F000FFF726FFDFE799480078002808D19848A1
:104500000078002804DD97490878FFF753FFD2E7C9
:10451000012211460020FFF7A6FDCCE78E48007867
:1045200003280AD191488D49097843188C480278AC
:104530008A4801780320FFF767FD00BFBBE710B58D
:1045400004462046FFF7C4FC89480078030001F0C8
:1045500001FE07050B1321273F515900AA2C02D158
:104560000120834908704DE0552C01D1022000E064
:1045700000207F49087045E0022C01D0032C05D1B2
:104580007548047003207A49087002E000207849D9
:10459000087037E07148047004207549087031E0F4
:1045A0006F4804700078002803D106207049087015
:1045B0000DE06B480078102806DC00206D4908707B
:1045C00005206B49087002E000206949087019E075
:1045D000684801780078401C664A1070614844546D
:1045E000104600785E490978884202DB062060495F
:1045F000087007E0552C01D1FFF73DFF00205C4912
:10460000087000BF00BF10BD00B58BB002A8FBF75B
:10461000E1FF0420FCF79EF98020FCF79BF90420C1
:1046200002900220039001200490079002A95248B2
:10463000FBF7A4FF022002900020039001200790C6
:1046400002A94D48FBF79AFF08A8FDF712F908A840
:10465000FDF70FF9E12040020890002168468184AF
:10466000C18401850C21418508A94448FDF7E9F87A
:1046700043494248FDF713F94048FDF704F90E217C
:104680006846017101214171817101A8FDF724FA89
:104690000BB000BD10B53B48FCF799FA3A490968E0
:1046A000484004463949204601F072FB084610BDD7
:1046B00010B594B0012436A237A1684601F036FD4A
:1046C000192149016846FFF77AFC044036A238A157
:1046D000684601F02BFD192149016846FFF76FFC80
:1046E000044037A238A1684601F020FD1921490194
:1046F0006846FFF764FC0440204614B010BD10B5B6
:1047000001241922520122A133A0FFF76FFC0440BB
:104710001922520124A133A0FFF768FC044019229A
:10472000520127A132A0FFF761FC0440204610BDD2
:1047300030B593B031A207CA6B4607C301F047FA00
:1047400005460024FFF7BEFB0D49B7312EA0FFF749
:10475000E5FB5DE050000020AD000020AE00002031
:10476000AF000020080100209C000020F80000207D
:10477000AC000020B0000020001C004000480040B9
:1047800025050000000C0040040000201027000058
:10479000464646300000000041542B5555494453CD
:1047A0003D25730D0A00000046464631000000001A
:1047B00041542B555549444E3D25730D0A000000C8
:1047C000464646320000000041542B555549445797
:1047D0003D25730D0A00000041542B5555494453A3
:1047E0003F0D0A0041542B555549444E3F0D0A00D8
:1047F00041542B55554944573F0D0A0054572D300D
:10480000343C303030303E002B524541445900009A
:10481000002D12D001E0601CC4B2202C02DA285D09
:104820000028F8D1042C08D3202C06DA201F4119C7
:10483000042201A8023001F0D5FA6A46FCA103A8BF
:1048400001F074FC1921490103A8FFF7B8FB1921F5
:104850004901FBA0FFF7B3FBFFF72AFFFFF74FFF6C
:104860007D225201F949FAA0FFF79BFB192149016A
:10487000FBA0FFF7A4FBFFF742FF13B030BDF0B57C
:10488000FFB0A2B0F9480078030001F063FC0A060B
:10489000080A0C0E10141618121AF5A413E0F6A448
:1048A00011E0F8A40FE0F9A40DE0FAA40BE0FCA4D9
:1048B00009E0FEA407E0F3A405E0FEA403E0FDA4E4
:1048C00001E0EBA400BF00BF00F0B9FE0746E748D7
:1048D0000078072803D0F9480078072801D1F8A507
:1048E00008E0692F01D3F6A504E0622F01D3F7A5F4
:1048F00000E0F7A5DD480078082809D1F6480078DF
:10490000002805D0FFF78EF9002801D0012000E033
:1049100000200646D5480078062801D0002E4CD04D
:1049200001F065F9002801D0ECA000E0EDA01A909C
:1049300001F04DF91990002E02D0FFF78AF901E03D
:10494000EA4800881890002E02D0FFF777F901E0BE
:10495000FEF716F91790FFF7A9FA1690E4A2E7A35D
:1049600019991A9808930A9209910B90E5490988B8
:10497000E54A1288189807950492059106901798B1
:10498000002E01D0D7A100E0D4A1E04A1288002E69
:1049900001D0C8A300E0BBA3009301920291039051
:1049A000DB480368DB4921A8169A01F0BFFB21A868
:1049B000FFF7ECFA7FB022B0F0BDAC4800780228D7
:1049C00003D0AA480078062801D1C4A000E0C5A001
:1049D0002090A6480078002806D0072806D008288E
:1049E00005D0092806D100E000BF00BF00BF0020AD
:1049F0001F9003E0FEF7BEF81F9000BF00BF9B486A
:104A0000007808280AD1B4480078002806D0FFF7BB
:104A100006F9002802D0FFF726F901E0BE48006839
:104A20001E90BE491F9801F083FA3F210906199094
:104A300001F025FA1A9001F0FDFA80B21D90B749F5
:104A40001E9801F075FA3F210906199001F017FA36
:104A50001A9001F0EFFA80B21C90B149B148006899
:104A600001F066FA3F210906199001F008FA1A9040
:104A700001F0E0FA1B9001F0BAF8002801D097A0ED
:104A800000E098A01A9001F0A2F8642119901B98F8
:104A900001F07EF9189164211B9801F079F90A213F
:104AA00017901C9801F074F916910A211C9801F0D6
:104AB0006FF90A2115901D9801F06AF914910A21E5
:104AC0001D9801F065F91390FFF7F0F9129088A294
:104AD0008AA319991A980D930F920E9110908348FA
:104AE000008888490988884A12880C9509920A9199
:104AF0000B90169B159A1899179806930592089192
:104B00000790824B1B88209A149913980094019364
:104B10000292049103907E480368834921A8129A67
:104B200001F004FB21A8FFF731FA00BF42E7F7B517
:104B3000C4B00C461546002C0FD14498FFF7B8FAC4
:104B40000646FFF7B3F907467148009603683A46F0
:104B5000764904A801F0EAFA16E0022D01D174A00A
:104B600000E076A006464498FFF7A2FA0746FFF752
:104B70009DF900970196039065480368744904A85D
:104B8000039A01F0D3FA00BF04A8FFF7FFF947B07A
:104B9000F0BD10B5A0B0FFF789F904465C48036882
:104BA00022466C49684601F0C1FA6846FFF7EEF903
:104BB00020B010BDF0B5FFB094B004460D461646C7
:104BC0001F465649989801F0B3F93F2109060F9006
:104BD00001F055F9109001F02DFA80B21290504971
:104BE0005048006801F0A4F93F2109060F9001F038
:104BF00046F9109001F01EFA11906421119801F00D
:104C0000C7F810916421119801F0C2F80A210F90A1
:104C1000129801F0BDF80E910A21129801F0B8F82F
:104C20000D90FFF743F909A9B0C108960C9093E0E5
:104C300041542B4E414D453D25730D0A00000000A7
:104C400041542B4144563D300D0A000008480008ED
:104C500041542B5245424F4F543D310D0A00000044
:104C600041542B4144563D310D0A000050000020B4
:104C700069646C65000000007374617274696E672A
:104C80000000000072756E6E696E6700706175736A
:104C900065640000726573756D696E6700000000E1
:104CA00073746F7070696E670000000073746F70CA
:104CB000706564006572726F72000000BD000020B4
:104CC0006F7665726865617400000000686F74003B
:104CD0006E6F726D616C0000BC00002074727565AF
:104CE0000000000066616C73650000005C0000203D
:104CF00032303236303331350000000054572D3019
:104D00003400000052000020600000205E000020FF
:104D10000400002008660008640000200000204114
:104D20000000C842580000203C6700086065000889
:104D30004445564943455F4255535900434F4D4DF5
:104D4000414E445F52454A454354454400000000EB
:104D5000F06A0008B865000878490A8878490B8825
:104D6000109999980593069204910790754B1B88AA
:104D70000D9A0E990F980093019202910390724838
:104D80000368724913A80C9A01F0D0F913A8FFF731
:104D9000FDF87FB014B0F0BDFEB504460D461646D2
:104DA0006BA1204601F05DF8002805D06BA12046DC
:104DB00001F057F8002801D16C4801E06B48083831
:104DC0000746002000903B46324629460190204687
:104DD000FFF7F0FEFEBD70B5FFB087B0FEF722FF13
:104DE000002812D1FEF735FF0446FEF73CFF0546CA
:104DF0005E4B083B1A460C3A5DA10194009061A0FD
:104E0000FFF7D8FE7FB007B070BDFEF722FF044663
:104E1000FEF714FF0546FFF749F8064647480088A5
:104E200047490988019504940291039045480088F8
:104E30000090454803683246564906A801F076F9C5
:104E400006A8FFF7A3F800BFDCE7F0B5E9B0FDF76F
:104E500091FE08905049089801F06AF805463F21F4
:104E6000090601F00CF8044601F0E4F880B207905E
:104E700049494A48006801F05BF805463F210906A8
:104E800000F0FDFF044601F0D5F880B206900A213B
:104E9000069800F07DFF0C460A21069800F078FF86
:104EA00005460A21079800F073FF0E460A2107986D
:104EB00000F06EFF0746FEF7F9FF00970196029596
:104EC0000394059020480368354909A8059A01F024
:104ED0002DF909A8FFF75AF869B0F0BD10B53149AE
:104EE0003148FCF751FD002807D02F48FCF72CFD76
:104EF000C4B22046FFF723FB00BF2C492A48FCF729
:104F000043FD08212848FCF733FD002811D1042176
:104F10002548FCF72DFD00280BD102212248FCF783
:104F200027FD002805D101211F48FCF721FD00289D
:104F300003D01D4800881C48808810BD5200002006
:104F4000600000205E00002004000020A06B00082C
:104F50004D4F544F525F4641554C540053454E53AC
:104F60004F525F4641554C5400000000E44C00088D
:104F7000536166657479206B65792072656D6F7613
:104F800065640000454D455247454E43595F5354B3
:104F90004F500000A4690008000020416400002078
:104FA000A068000825050000004800402707000011
:104FB00010B51A4B1A68130C1B04194CA34204D1E8
:104FC00013041B0E03700A7002E0002303700B70C1
:104FD00010BD7CB504460D46694601A8FFF7E8FF01
:104FE00068460079A04204D168460078A84200D102
:104FF0007CBDFCF70CFE0948FCF764FE042809D1CF
:105000002002074908432843064631460348FCF777
:10501000D5FE00BFFCF701FE00BFE9E70074000801
:105020000000A5A500B587B00220FBF793FC042083
:10503000FBF790FC01A8FBF7CDFA0120800301905B
:10504000022002900720069001A91648FBF796FA65
:10505000FCF714FD1C20FCF716FDFCF71FFD07B044
:1050600000BD10B504462046FCF70DFD10BD0E49ED
:10507000088000BF0C4909880029FBDC704770B527
:1050800005460C462046FFF7ECFF0748058000BFA9
:10509000054800880028FBDC04480068FFF7E1FFB2
:1050A00070BD0000001C004090000020B4000020F3
:1050B0001FB50120C002FBF74DFC0120C007FBF724
:1050C00097FB01A8FBF776FD2F2168468180C72159
:1050D00001810021C180418101A90B48FBF737FD07
:1050E00001210948FBF70AFD01210748FCF702FBF3
:1050F000052168460170012141708170FCF7ECFCCC
:105100000148FBF76DFD1FBD000C004010B50246C5
:105110000B460020002103E0545C60404C1CE1B2CF
:105120009942F9DB10BD30B58BB004460D46FE4800
:1051300005700820FBF70EFC4020FBF70BFC02A8D3
:10514000FBF748FA0120029002200390012004900E
:105150000220079002A9F548FBF710FA02200290FE
:10516000002003900220079002A9F048FBF706FAFE
:1051700008A8FCF77EFB0894002168468184C1845E
:1051800001850C21418508A9E948FCF75AFBE9494A
:10519000E748FCF784FB0D2168460171002141714D
:1051A0000121817101A8FCF797FCE148FCF76BFB3A
:1051B0000BB030BD70B504460D460BE000BF80213A
:1051C000DB48FCF7D5FB0028F9D02178641CD848CF
:1051D000FCF7B6FB2846691E8DB20028EED100BF51
:1051E0004021D348FCF7C4FB0028F9D070BDFFB5BF
:1051F00081B0074616461D460024392D01D905B059
:10520000F0BDAA222046611CCCB2CB490A545522DB
:105210002046611CCCB2C8490A54C34802782046D3
:10522000611CCCB2C4490A542046611CCCB2C249AC
:105230000F542146621CD4B2BF4A029850542046F3
:10524000611CCCB211460D54002E08D0002D06DD95
:1052500008192A46314600F0C5FD6019C4B2A01EE7
:10526000C1B2B548801CFFF751FFB3490855601C17
:10527000C4B22146B048FFF79DFF00BFBFE7F8B5B5
:105280000646AE49304600F053FE074600F0D2FE17
:1052900085B200242912684601704570AA22214671
:1052A000641CA548425455222146641C42540122E4
:1052B0002146641C425402222146641C42540A22A4
:1052C0002146641C425402222146641C4254684612
:1052D00002782146641C9848425468464278204629
:1052E000611CCCB294490A54A01EC1B29248801CE1
:1052F000FFF70CFF90490855601CC4B221468E4848
:10530000FFF758FFF8BD70B505460024AA222146D4
:10531000641C8948425455222146641C425401228F
:105320002146641C425402222146641C42540E222F
:105330002146641C425401222146641C42542146E9
:10534000641C4554A01EC1B27B48801CFFF7DEFEE2
:1053500079490855601CC4B221467748FFF72AFFF7
:1053600070BD10B50024AA222146641C7248425424
:1053700055222146641C425401222146641C425499
:1053800002222146641C425410222146641C4254CD
:1053900002222146641C4254AA222146641C425423
:1053A00055222046611CCCB263490A54A01EC1B2EA
:1053B0006148801CFFF7AAFE5F490855601CC4B213
:1053C00021465D48FFF7F6FE10BD10B50024AA2265
:1053D0002146641C5848425455222146641C4254BC
:1053E00001222146641C425402222146641C42547C
:1053F00010222146641C425402222146641C42545D
:1054000055222146641C42542046611CCCB24A49B4
:105410000A54A01EC1B24848801CFFF777FE4649D7
:105420000855601CC4B221464348FFF7C3FE10BDB7
:10543000434800787047002874D0424909780170C9
:105440004049497841703F49897881703D49C97820
:10545000C1703C49097901713A494A7942718A79A6
:105460008271CA79C2710A7A02724A7A42728A7A5F
:105470008272CA7AC2720A7B02734A7B42738A7B47
:105480008273CA7BC2730A7C02744A7C42748A7C2F
:105490008274CA7CC2740A7D02754A7D42758A7D17
:1054A0008275CA7DC2750A7E02764A7E42768A7EFF
:1054B0008276CA7EC2760A7F02774A7F42778A7FE7
:1054C0008277CA7FC277091D0A7F20210A541D49AD
:1054D000091D4A7F21210A541A49091D8A7F222168
:1054E0000A541849091DCA7F23210A541549243139
:1054F0000A7824210A54134924314A7825210A5470
:10550000104924318A7826210A540E492431CA7858
:1055100027210A540B4924310A7928210A540949C0
:10552000243111E080E00000B8000020002000409D
:105530000044004025050000980100200080A2449E
:10554000BB000020E80100204A7929210A54B14912
:105550008A792A210A54AF49CA792B210A54AD49C4
:105560000A7A2C210A54AB494A7A2D210A54A949B6
:105570008A7A2E210A54A749CA7A2F210A54A549AA
:105580000A7B30210A54A3494A7B31210A54A1499C
:105590008A7B32210A549F49CA7B33210A549D4990
:1055A0000A7C34210A549B494A7C35210A54994982
:1055B0008A7C36210A549749CA7C37210A54954976
:1055C0000A7D38210A5493494A7D39210A54914968
:1055D0008A7D3A210A548F49CA7D3B210A548D495C
:1055E0000A7E3C210A548B494A7E3D210A5489494E
:1055F0008A7E3E210A548749CA7E3F210A54854942
:105600000A7F40210A5483494A7F41210A54814933
:105610008A7F42210A547F49CA7F43210A547D4927
:105620001C310A7944210A5470477B488078000273
:105630007949C97808437047774840787047764879
:10564000007970477448407970477348007855284E
:1056500004D1002070490870012070470020FCE749
:1056600000206E490870704770B56D496D48FCF7B1
:105670008BF9002870D06B48FCF766F9C4B26A4811
:105680000078030000F066FD08050B151C232A4274
:1056900054A2AA2C02D10120634908709AE0552C2B
:1056A00003D102206049087002E000205E490870C2
:1056B00090E058482438047003205B49087089E062
:1056C00054482438447004205749087082E05148F7
:1056D000243884700520544908707BE04D482438F4
:1056E000C470402C05DD0020504908704E490870F8
:1056F0000BE0002C06DD00204C49087006204A49CA
:10570000087002E007204849087063E047490878BC
:10571000411C464A11703F4920390C54081FC0787B
:1057200011460978884202DC07203F49087051E0A1
:1057300038481C30047140380078364B243B5B7885
:105740005840344B243B9B785840324B243BDB7809
:1057500058400246002106E03EE02E482038405CDA
:105760004240481CC1B22B482438C0788842F4DC3F
:10577000944227D12748243800782D4B1B78984233
:1057800004D024482438007800281BD100200DE0E4
:10579000204D243DAD782D18EBB2102B04DA1D4DB1
:1057A000203D2D5C1C4EF554431CD8B2194B243BB4
:1057B000DB788342ECDC5523174D2B700123174D0A
:1057C0002B7000BF00201849087003E00020164924
:1057D000087000BF00BF00BF08211248FCF7C8F8DE
:1057E000002811D104210F48FCF7C2F800280BD182
:1057F00002210C48FCF7BCF8002805D1012109481A
:10580000FCF7B6F8002803D00648008805488088D1
:1058100070BD00000C020020D8010020BB00002059
:105820002505000000440040B9000020BA00002017
:10583000B8000020704710B5C2480078002801D099
:10584000002010BDC0480078052803D10120BF49C1
:105850000870F6E7BC48007807280BD1FFF7EFFE89
:10586000642807D8FFF7E8FE7D2803D80120B74950
:105870000870E6E70020E4E7F8B5B5480468B548E5
:105880000068201AC82800D2F8BDB2480460B248A7
:105890000078002804D1B14804600120AE490870A6
:1058A0001021AF48FAF7A1FE012800D100E0002046
:1058B0000546002D1ED00120A24908700020A349F2
:1058C0000870A8490870A8490870A8490870A84835
:1058D0000078002808D1FEF739F9C820A5490880CA
:1058E0000120A549087005E0A4480078082801D0E7
:1058F000FEF72CF99E480570FFF7A7FE0646002E1E
:1059000042D09648046000209D4908709D49087067
:105910009A480078082837D194480078002818D091
:10592000002D16D1002087490870904908708D49D4
:1059300008708D490870192040018E4908808248FE
:105940000078002802D1FEF79EF91DE0FEF795F9D8
:105950001AE07C480078002816D17B48007800289F
:1059600012D180480078002807D07F4800780028AE
:1059700003D101207C49087006E0002079490870B5
:1059800079490870FEF7D0F96E48007800281ED1DA
:105990007448007800281AD170480068201A7D21C8
:1059A0000901884213D901206E49087000206E4910
:1059B0000870664908706449087008206F490870CB
:1059C0000020FDF7DAF8192040016A490880002E0E
:1059D0003ED0FFF737FE0746002F29D05A480078FF
:1059E000B84201D0012000E00020009000205D4975
:1059F00008705D4908700098002802D000205349C3
:105A00000870514807705D480078082809D00820C0
:105A10005A4908700020FDF7B0F819204001554997
:105A200008800098002802D00120574908700EE035
:105A30004648007800280AD043480078002806D05D
:105A400000204249087040490870FEF76DF900BF18
:105A50004E480078062806D148480078062802D02B
:105A600001204749087045480078062802D10020E7
:105A70004349087045480078072806D13F48007818
:105A8000072802D001203F4908703C4800780728C9
:105A900002D100203B490870384800783B49087023
:105AA00036480078022806D006280AD007280ED0EB
:105AB000082830D10EE0FDF75DF80746FFF7DFFB61
:105AC0003CE0FDF75DF80746FFF71DFC36E0FFF709
:105AD00048FC33E01D480078002802D0FFF775FC31
