:020000040800F2
:10000000380E0020890200081D100008850F000826
:1000100019100008810500085D2500080000000097
:10002000000000000000000000000000A513000810
:10003000AD09000800000000ED1200085D1D000879
:10004000A3020008A3020008A3020008A3020008FC
:10005000A3020008A3020008A3020008A3020008EC
:10006000A3020008A3020008A3020008A3020008DC
:10007000A3020008A3020008A3020008A3020008CC
:10008000A3020008A3020008A3020008A3020008BC
:10009000A3020008A3020008A3020008A3020008AC
:1000A000A3020008F51D0008A3020008D11D0008E6
:1000B00000000000A3020008A91F0008A302000816
:1000C000A3020008A3020008A3020008A30200087C
:1000D000A30200080D250008A3020008000000008C
:1000E000A3020008A30200080000000000000000B6
:1000F0000000000000000000000000000000000000
:1001000000000000000000000000000000000000EF
:100110000000000000000000A3020008A302000885
:1001200000000000000000000000000000000000CF
:1001300000000000000000000000000000000000BF
:10014000A302000800000000000000000000000002
:10015000000000000000000000000000000000009F
:10016000000000000000000000000000000000008F
:10017000000000000000000000000000000000007F
:1001800000000000A30200080000000000000000C2
:10019000000000000000000000000000000000005F
:1001A000000000000000000000000000000000004F
:1001B0000000000000000000A302000800F002F8A8
:1001C00000F052F814A696E8000CB244B344DA45A5
:1001D00001D100F049F8BAE80F000FA696E8300008
:1001E000A5EB040504EB0607AAEB0704A7F101073A
:1001F0004FEA15154FEA3414A4F10104AC4201D3BF
:1002000000F032F813F0010F18BFFB1A43F001039E
:1002100000F001F8DBE71847405E0000605E000078
:10022000103A24BF78C878C1FAD8520724BF30C822
:1002300030C144BF04680C60704700007047000084
:100240000023002400250026103A28BF78C1FBD8DF
:10025000520728BF30C148BF0B6070471FB505F07B
:1002600024FD1FBD10B510BD00F004F91146FFF7C5
:10027000F5FF03F085F900F022F903B4FFF7F2FF70
:1002800003BC00F025F90000094880470948804771
:10029000FEE7FEE7FEE7FEE7FEE7FEE7FEE7FEE736
:1002A000FEE7FEE704480549054A064B7047000093
:1002B000611D0008BD01000838080020380E00202C
:1002C000380A0020380A0020032A40F2308010F05B
:1002D000030C00F0158011F8013BBCF1020F6244E1
:1002E00098BF11F801CB00F8013B38BF11F8013B72
:1002F000A2F1040298BF00F801CB38BF00F8013B1F
:1003000011F0030300F02580083AC0F0088051F88E
:10031000043B083A51F804CBA0E80810F5E7121D99
:100320005CBF51F8043B40F8043BAFF30080D207B8
:1003300024BF11F8013B11F801CB48BF11F8012B84
:1003400024BF00F8013B00F801CB48BF00F8012BA7
:10035000704710B5203AC0F00B80B1E81850A0E803
:100360001850B1E81850A0E81850203ABFF4F5AF83
:100370005FEA027C24BFB1E81850A0E8185044BFDF
:1003800018C918C0BDE810405FEA827C24BF51F84C
:10039000043B40F8043B08BF7047D20728BF31F840
:1003A000023B48BF11F8012B28BF20F8023B48BF91
:1003B00000F8012B70474FF000020429C0F01280B2
:1003C00010F0030C00F01B80CCF1040CBCF1020F08
:1003D00018BF00F8012BA8BF20F8022BA1EB0C01DD
:1003E00000F00DB85FEAC17C24BF00F8012B00F8D3
:1003F000012B48BF00F8012B70474FF0000200B5F9
:10040000134694469646203922BFA0E80C50A0E837
:100410000C50B1F12001BFF4F7AF090728BFA0E8E5
:100420000C5048BF0CC05DF804EB890028BF40F8B1
:10043000042B08BF704748BF20F8022B11F0804FF3
:1004400018BF00F8012B704770477047704710B510
:1004500000F008F8006810BD10B5044600F002F87E
:10046000046010BD004870479000002000487047AD
:10047000900000207546FFF7F9FFAE46050069467B
:10048000534620F00700854618B020B5FFF70AFF55
:10049000BDE820404FF000064FF000074FF0000885
:1004A0004FF0000BAC46ACE8C009ACE8C009ACE8C2
:1004B000C009ACE8C00921F007018D46704710B5AE
:1004C0000446AFF300802046BDE81040FFF7D5BEDC
:1004D00001491820ABBEFEE726000200704700006D
:1004E00010B548F21402C4F2BB52C0E90012002257
:1004F000C4F2C92200210023C4F2C82344F2000C34
:1005000042F2004EC0E9032100F11402C4F21C6C57
:10051000C4F6741E82E80A5046F266624DF20A730F
:10052000C3F66672C3F62343C0E90B23C0E90D236B
:10053000C0E90F2349F2000346F2666C42F6136EDF
:1005400041F26F24C4F2A243C4F2460CC2F6611E0B
:10055000C3F6832480ED020AC0ED090A80ED0A0A81
:10056000C0E91111C0E91C11C1640365C0F854C091
:10057000C0E9162EC0E91824C0E91A1110BD000008
:10058000FEE70000B0B590ED181A90ED192A9FED26
:100590006A3ABEEE000A22EE000A21EE034A9FEDFF
:1005A000675A34EE004A0021B5EE402A21EE055A82
:1005B000F1EE10FAC8BF0121B5EE404A35EE000A4F
:1005C000F1EE10FAC8BF0231B0F86C20B5EE400A67
:1005D000F1EE10FAC8BF043100EE102AA1F1010EAD
:1005E000BEF1050FB8EE400A41D89FED554AB7EE6F
:1005F000086A20EE044A22EE044A21EE066A22EE40
:10060000032A90ED1A5A22EE002A26EE003A33EE23
:10061000023A83EE053ABFEE086A21EE061A21EE91
:10062000001A31EE021A84EE054A81EE052AB0EE78
:10063000431ADFE80EF020030D120817B1EE441A3A
:10064000B0EE432A17E0B1EE431AB0EE442A12E0AE
:10065000B1EE422AB0EE441A0DE0B0EE421AB1EE0D
:10066000442A08E0B1EE421AB1EE432A03E09FEDBE
:10067000351AB0EE412AB0F86E1031EE023A04EEAF
:10068000101AB8EE444A22EE045A21EE046AB4EE7F
:10069000443A86EE036A85EE035AF1EE10FAC4BFBF
:1006A000B0EE461AB0EE452A30EE420A30EE410A6C
:1006B000B5EE003A20EE030ABDEEC00AB8EE403AAD
:1006C00010EE10CAB6EE000A22EE002A32EE032A1D
:1006D000BDEEC22AB8EE423A21EE000A30EE030A1D
:1006E000BDEEC00A12EE103ABEF1050F10EE102A50
:1006F00018D861461C46DFE80EF0030A17060D11F4
:100700001946644610E011461C4662460CE06146FC
:10071000144601E0114664461A4605E0194614469F
:10072000624601E061461C46A0F87010A0F87240D5
:10073000A0F87420B0BD00BF2DB25D3F2DB25DBFEB
:100740002DB2DD3F0000000080F30C0000EE100A27
:10075000B8EE400AB5EE001A20EE010ABDEEC00A5E
:1007600010EE100AC0F301235FFA80FCDFE803F00B
:100770000237112145F65060C0F6000030F81C30F9
:1007800000EE103A8CF0FF0330F81300B8EE400A88
:100790001EE045F65060C0F6000030F81C305B42A9
:1007A00000EE103A8CF0FF0330F81300B8EEC00AE8
:1007B00023E045F650638CF0FF00C0F6000333F8E9
:1007C0001000404200EE100A33F81C00B8EEC00AD8
:1007D00081ED000A00EE100AB8EE400A14E045F67A
:1007E00050638CF0FF00C0F6000333F8100000EEF9
:1007F000100A33F81C00B8EE400A404281ED000AAE
:1008000000EE100AB8EEC00A82ED000A91ED000A6F
:100810009FED061A20EE010A81ED000A92ED000A12
:1008200020EE010A82ED000A704700BF40DAFF3770
:10083000F5EE400AF1EE10FADCBF9FED180A7047A2
:1008400040F27810C2F2000090ED0A1A9FED143ABF
:1008500030EE412AB0EEC24AB4EE434AF1EE10FA4D
:100860000BDDB5EE402AF1EE10FA0BDA9FED0F2A00
:1008700032EE411A30EE011A0AE09FED0A1A22EE1A
:10088000011A05E09FED082A30EE022A32EE411AE5
:1008900080ED0A0AB0EE410A704700BF0000000078
:1008A0007CD9A040EFC91841DB0FC9C0DB0FC9409C
:1008B00090ED000A90ED011A9FED072A9FED073A8F
:1008C00021EE021A20EE032A32EE011A80ED030A0D
:1008D00080ED041A704700BF39CD933F3ACD133FE6
:1008E00010B540F2180143F2333240F2000CC2F26C
:1008F0000001C4F27302C4F2B52C002000244CF6AF
:10090000CD4EC1E9002CC1E902001031C4F24824E7
:10091000C3F6CC6E81E8114040F234014CF6CD4371
:10092000C2F20001C4F20233C1E90023C1E90200AE
:10093000103181E8114040F26C0149F6A63240F2D4
:10094000000C40F2000EC2F20001C3F6444241F234
:100950006F234CF6F744C4F2181CC4F2400EC3F6E1
:100960008323C3F6920481E81C00C1E90300C1E9B6
:1009700005CE40F2500140F2000C40F2000EC2F2EF
:1009800000014FF07C524DF20A734CF6CD44C4F294
:10099000FA4CC4F2963EC3F62343C3F64C5481E8A6
:1009A0001C00C1E90300C1E905CE10BD704700007D
:1009B000F0B581B00446002600250027E088218993
:1009C00007440A200D4403F083FE7F2E06F1010642
:1009D000F4D300EE107A9FED091A02EE105AB8EE29
:1009E000400AB8EE422A20EE010A22EE011A84EDF6
:1009F000080A84ED091A01B0F0BD00BF0000003CF8
:100A0000C18890ED081A00EE101A0189B8EE400A6C
:100A100090ED092A31EE400A01EE101AB8EE411AA3
:100A200032EE411A9FED182A9FED183A20EE024A45
:100A300021EE022A24EE034AB2EE045A22EE032AE1
:100A400084EE054A82EE052A9FED113A80ED030AF5
:100A500080ED041A84EE034A82EE032A80ED054AF3
:100A600034EE020AB1EE400A80ED062A80ED070A54
:100A700040F27810C2F2000080ED000A80ED012AF9
:100A800080ED024A704700BF333353400000803985
:100A90000AD7233C2DE9F0410020C4F20200402196
:100AA000012202F00DFD40F2E867C2F2000738783B
:100AB000022800F0958001282CD0002840F0E28028
:100AC00040F2CC65C2F2000595ED000AB5EE400A91
:100AD000F1EE10FA40F0D88040F20824C2F200048F
:100AE00049F67060C0F6000021461E2202F08AFA24
:100AF000E08B4AF65521884240F0C680208C00EEFB
:100B0000100A40F2F460B8EE400AC2F2000080ED34
:100B1000020AB2E040F27814C2F2000404F130019B
:100B200004F134024FF48060FFF70EFE0020C4F29F
:100B3000A0000026C4E91606204600F025FA20464B
:100B4000FFF720FD40F2CC60C2F2000090ED000AF9
:100B50009FED9C1A30EE010AB7EE001AB4EE410A7E
:100B6000F1EE10FA80ED000AC0F2EB80066000F0B2
:100B700025FA05462046C4E9166600F005FA204627
:100B8000FFF700FD40F2EC60C2F200000088C0EB0D
:100B9000151001B2024611F5006FB8BF02F5805280
:100BA000B1F5006FC8BFA0F5805210B282EAE03103
:100BB000A1EBE030A0F1CC010AB2002A48BFC0F19D
:100BC000CC0108B2282800F3BF800220387040F220
:100BD000D060C2F20000002101800020BDE8F08159
:100BE00040F2D066C2F200063088002500F299116A
:100BF0008AB240F27814B5EB123F18BFA0F66761D5
:100C0000C2F20004318004F1300104F1340200200A
:100C1000FFF79AFD3088BBEE0E1AB0F5006F204644
:100C2000A565B3EE0E0A38BFB0EE401A84ED171A70
:100C300000F0AAF92046FFF7A5FC40F2CC60C2F212
:100C4000000090ED000A9FED5F1A30EE010AB6EE4B
:100C5000001AB4EE410AF1EE10FA80ED000A70DBE2
:100C600005602046C4E9165500F08EF92046FFF7CE
:100C700089FC40F2F460C2F20000012101730020FF
:100C8000BDE8F08100205BE040F27814C2F200047D
:100C900004F1300104F1340200200026FFF754FD76
:100CA0004FF08240C4E91606204600F06DF9204658
:100CB000FFF768FC95ED000A9FED421A30EE010A3D
:100CC000B2EE001AB4EE410AF1EE10FA85ED000A18
:100CD00037DB2E6040F2442549F67068C2F2000509
:100CE000C0F60008404629461E2202F08BF900F0AB
:100CF00065F90009288400EE100A40F2F460B8EEAD
:100D0000400AC2F2000080ED020A4AF65520CFF6F2
:100D1000FF70E883404629461E2202F0D1F900F018
:100D20004DF940F2EC610009C2F200010880204652
:100D3000C4E9166600F028F92046FFF723FC0120DD
:100D400038700020BDE8F08140F2EA60C2F2000095
:100D5000017849F67064C0F60004E1B140F2442520
:100D6000C2F20005204629461E2202F04BF900205F
:100D7000C5F81E00204629461E2202F0A1F940F2C5
:100D8000F460C2F2000005210173062180F82810EA
:100D90000020BDE8F08140F244250121C2F20005A7
:100DA0000170204629461E2202F02CF9002620461A
:100DB00029461E22C5F81E6002F082F900203E700E
:100DC000BDE8F08117B7D13810B542F20014C4F273
:100DD0000104204601210122072301F09DFC204649
:100DE000012101F01BFE00BF2046022101F078FC2A
:100DF0000028F9D0204601F0F1FD044601F08EFAFA
:100E0000002808BF10BD00EE104A9FED191AB8EE79
:100E1000400A80EE010A9FED171A9FED182A20EE76
:100E2000010A9FED151A30EE010A20EE020AB3EE18
:100E3000091A30EE010AB5EE400AF1EE10FA02DAB4
:100E40009FED0F0A08E09FED0F1AB4EE410AF1EE94
:100E500010FAC8BFB0EE410ABDEEC00A40F2F4611C
:100E600010EE100AC2F2000181F8270010BD00BF89
:100E700000F07F4533335340AE4761BF0000084266
:100E8000000000000000D64240F26C10C2F20000E8
:100E900090ED000AB7EE001A9FED072A30EE011A16
:100EA0009FED060AB4EE421AF1EE10FAB8BFB0EEAA
:100EB000410A80ED000A704700F07F450000000005
:100EC00010B542F200040520C4F2010403F000FC56
:100ED0002046002101F0C8FD2046012101F0F6FB6B
:100EE0002046402101F0FCFB0028F9D0204601F00B
:100EF00081FB00BF204601F083FB0028FAD1204689
:100F000001F082FB204601F085FB0028FAD1FFF7B3
:100F1000E7FCA4F5005420460021002202F0DAFD8F
:100F200020460221002202F0D5FD204604210022A5
:100F300002F0D0FD2046062141F2C61202F0CAFDA1
:100F400040F26070C2F20000FFF732FD40F2F000A4
:100F50009FED0A0ADFED0A0AC2F200000121012416
:100F6000FFF7BEFA40F28870C2F2000000F09CFD6C
:100F700040F2E070C2F20000047010BD17B75138A3
:100F800000929246FEE7000090ED0C0A90ED0D1ADB
:100F900090ED172A90ED163A22EE004A23EE015A00
:100FA00023EE000A22EE011A35EE444A31EE000A21
:100FB00080ED184A80ED190A7047000070B543F6BD
:100FC0000005C4F2000505F5EE3420464FF48051CB
:100FD00002F072FA2846022102F01CFC0028F9D027
:100FE0002846002102F014FC2846012102F012FCE0
:100FF0000028F9D0284602F007FC06462846802142
:1010000002F008FC0028F9D120464FF4805102F08C
:1010100055FA304670BD0000FEE700007047000042
:1010200080EC030A9FED0C0AF5EE401A0021F1EE68
:1010300010FAB0EE401AB5EE402AC0E90311C8BF5D
:10104000B0EE611AF1EE10FAC8BFB0EE420A80EDC0
:10105000051A80ED060A7047000000009FED2E2A59
:10106000002849D0B5EE401AF1EE10FA44DD30EE1A
:10107000600A90ED034A20EE013A90ED062A33EE25
:10108000043AB4EE423AF1EE10FA80ED033A02DD92
:1010900080ED032A08E0B1EE422AB4EE423AF1EEC6
:1010A00010FAB8BF80ED032A90ED042A90ED013AC2
:1010B00030EE422A82EE011A90ED002A90ED035A9A
:1010C00090ED024A20EE022A80ED040A90ED050A16
:1010D00023EE053A32EE032AB5EE400AF1EE10FA9D
:1010E00024EE011A32EE012A06DDB4EE402AF1EEBA
:1010F00010FA04DDB0EE402AB0EE420A7047B1EEBD
:10110000400AB4EE402AF1EE10FAB8BFB0EE402A21
:10111000B0EE420A704700BF0000000090ED030AE5
:1011200090ED041A90ED0C2A90ED0D3A21EE024A52
:1011300020EE035A23EE011A20EE020A35EE044A8D
:1011400031EE400A80ED0E4A80ED0F0A7047000034
:101150002DE9F04F81B040F62D05C2F200052F7841
:1011600040F2C026C2F2000637702F78072F03D254
:10117000022001B0BDE8F08F40F60C04C2F200047A
:101180002678AA2E28D16678552E25D194F802B05B
:10119000BBF1000F06D040F21406C2F2000636780A
:1011A000B34532D18146884694F803C020796179ED
:1011B0001A2923D340F62C010020C2F20001287026
:1011C0000870611E202200BF013A01F8010FFBD117
:1011D000062001B0BDE8F08F40F62C010020C2F2DD
:1011E000000128700870611E202200BF013A01F83A
:1011F000010FFBD1032001B0BDE8F08FCE1DB74237
:1012000014D2052001B0BDE8F08F40F62C0100207B
:10121000C2F2000128700870611E2022013A01F814
:10122000010FFBD1042001B0BDE8F08FCDF800C064
:101230000F1997F806A0671C01F1040E002600BFE5
:1012400017F801CFBEF1010E86EA0C06F8D1B245BF
:101250003BD1B9F1000F18BF89F800B0B8F1000F09
:10126000DDF800C018BF88F800C0002A18BF107051
:10127000002B18BF19700A9B002B18BF002908D03B
:10128000621D013B0F4612F8016F013F03F8016F29
:10129000F9D1BCF1020F08D101F062F928B140F296
:1012A000F170C2F200000121017040F62C00002113
:1012B000C2F2000029700170621E2023012000BFCD
:1012C00002F8011F013BFBD10CE040F62C0100208D
:1012D000C2F2000128700870611E2022013A01F854
:1012E000010FFBD101B0BDE8F08F00007047000096
:1012F00070B549F6706440F20825C0F60004C2F2E9
:101300000005204629461E2201F07CFE688CA98C2F
:10131000013082B2824245F65A2040F2442518BF7D
:1013200001220E1AC2F2000518BF164620462946B1
:101330001E2201F067FE032E24BF0026C5F81E60A2
:101340006E840026204629461E22AE8401F0B8FE97
:1013500040F2EF60C2F20000067070BD70B540F25E
:10136000EE66C2F200063078002818BF70BD40F269
:10137000442449F67065C2F20004C0F60005284610
:1013800021461E2201F03EFE0020C5F65A20C4F878
:101390002200284621461E2201F092FE01203070D4
:1013A00070BD000070470000192A88BF7047B0B5B3
:1013B00088B045F2AA54ADF8004040F21404C2F2DD
:1013C000000424788DF802408DF803008DF8041095
:1013D0008DF8052032B16846063019461446FEF7EE
:1013E00073FF2246101DC0B202F1070CC0F1000EBF
:1013F00000234FF0FF3168464418E47801310EEBCA
:101400000105013583EA0403F6D111188B715FFAE7
:101410008CF102F0C9F908B0BDE8B0407047000097
:10142000F0B581B02DED028B40F2EF60C2F200000A
:10143000017840F27814C2F2000401BB40F2F412C9
:1014400040F63F51C2F20002C0F2030113684F1C84
:10145000BB423CBF0133136012688A420FD994ED3E
:10146000140A9FEDC31A0121B4EE410AF1EE10FAFD
:101470000170DEBF40F2F062C2F20002117000782B
:10148000B0B140F2EE60C2F20000007880B940F2E4
:10149000F060C2F20000017851B994ED140A9FED9A
:1014A000B41AB4EE410AF1EE10FADCBF012101706A
:1014B000FFF784FD010901EE101A9FEDAE0AB8EEA8
:1014C000411A81EE002A40F2F467C2F2000784ED6F
:1014D000051A97ED023A32EE021A9FEDA72A21EE85
:1014E000022ABDEEC31A11EE101AC1EB101001EE64
:1014F000100AB8EEC11AB1EE043A21EE031AB5EEA5
:10150000401AF1EE10FA84ED0B2A06DA31EE001AD9
:10151000B5EE401AF1EE10FAF8DBB4EE401AF1EE37
:1015200010FA08DB9FED952A31EE021AB4EE401A4C
:10153000F1EE10FAF8DA40F2C420C2F20000BDEE7B
:10154000C10A04F1300504F1340680ED001A10EEF2
:10155000100A2946324684ED061AFFF7F5F8387B63
:10156000072801D0042825D194ED141A9FED840A90
:10157000B4EE401AF1EE10FA1CDD94ED081A9FED5E
:10158000EC2A21EE021AB4EE401AF1EE10FA11DA4A
:1015900040F2D460C2F20000016849F640420131D5
:1015A000914201600CD3052100223973026087F853
:1015B000281005E040F2D460C2F200000021016072
:1015C000387B082800F25381DFE810F009002D0075
:1015D000840051019B00C400510110007100BDEC5A
:1015E000028B01B0BDE8F040FFF754BA40F2DE6272
:1015F00040F2D860C2F20002C2F200001278018804
:10160000023A0131D2B2022A018089B29ABFC9A33B
:1016100053F822204FF4FA728A4240F29F804FF42E
:10162000FA70606229E140F2CC65C2F2000595EDE6
:10163000000A9FEDCC1A002630EE010A204685ED07
:10164000000AC4E91666FFF733F92046FFF766FD86
:1016500094ED101A9FEDBA2A94ED0E0A21EE021AAB
:101660009FEDB82A94ED0F3A94ED114A20EE020A4C
:1016700030EE010AB6EE001A24EE012A23EE011A1A
:1016800031EE021A84ED100A84ED111AFFF728F9E1
:1016900095ED000AB0EE001AB4EE410AF1EE10FA30
:1016A00026656665C0F2338104202E602EE140F28B
:1016B0006C009FEDA70ADFEDA70A9FEDA31AC2F207
:1016C0000000F1EE061AB7EE002AFFF7A9FC07208A
:1016D0003873CCE0FFF7D8FBBDEEC00A10EE100A5D
:1016E00029463246FFF730F80020C4F220100021CE
:1016F000C4E916012046FFF7DBF82046FFF70EFD90
:1017000009E1388B9FED942A00EE100A40F2DC606C
:10171000C2F200000078B3EE0A1A002818BFB0EE3B
:10172000421A94ED142AB8EE400AB4EE402AF1EEC3
:1017300010FA27DA9FED8A3A21EE031A31EE021AE7
:10174000B4EE401AF1EE10FA84ED141AC8BF84ED1D
:10175000140A2BE00020C4E91600DCE0B1EB420FD4
:1017600080F089804FF24840CFF6FF70606284E0DD
:101770000000484200F07F45DB0F494000F07FC584
:1017800000802244B4EE402AF1EE10FA0EDD9FED07
:10179000733A21EE031A32EE011AB4EE401AF1EE5A
:1017A00010FA84ED141A01DA84ED140A94ED140A87
:1017B0009FED5E1AB4EE410AF1EE10FA4EDD40F2F2
:1017C000F010C2F20000017829B9616D0022C4E96D
:1017D0001021012101702046FFF76AF82046FFF72B
:1017E0009DFC94ED101A9FED562A94ED0E0A21EE01
:1017F000021A9FED542A94ED0F3A94ED114A20EE0F
:10180000020A70EE010AB6EE000A24EE001A23EE78
:10181000000A30EE010A9FED4D8A84ED110A40F274
:1018200018009FED490AC2F20000B0EE481AC4ED5C
:10183000100AFFF713FC94ED151AD4ED110A40F2CB
:10184000340084ED160AC2F20000B0EE410AB0EE98
:10185000481AFFF703FC84ED170A5CE040F2F01130
:101860000020C2F200012067A4F874000870BDECEB
:10187000028B01B0F0BD002101802046FFF718F86F
:101880002046FFF74BFC94ED101A9FED2D2A94EDA6
:101890000E0A21EE021A9FED2B2A94ED0F3A94EDD9
:1018A000114A20EE020A70EE010AB6EE000A24EE9A
:1018B000001A23EE000A30EE010A9FED248A84ED1F
:1018C000110A40F218009FED200AC2F20000B0EEAB
:1018D000481AC4ED100AFFF7C1FB94ED151AD4EDB8
:1018E000110A40F2340084ED160AC2F20000B0EE94
:1018F000410AB0EE481AFFF7B1FB40F20220C2F2F3
:101900000000008884ED170A08B90120387340F2FE
:101910007814C2F200042046FFF736FB2046BDECE7
:10192000028B01B0BDE8F040FEF72CBE000048423B
:1019300000409C4558020000BC02000084030000E7
:101940006666663FCDCCCC3D000000006F12833A46
:10195000CDCC4C3D0AD7233C0000F0426F1203BBB4
:101960006F12033B17B7D13840F2CC61C2F20001CD
:101970000020086040F2D861C2F20001088040F205
:10198000DC61C2F20001087040F2DE61C2F20001C7
:10199000087040F2E061C2F20001087040F2E461B8
:1019A000C2F20001087040F2E861C2F20001087062
:1019B00040F2EA61C2F20001087040F2EC61C2F24A
:1019C0000001088040F2D061C2F20001088040F2BC
:1019D000D461C2F20001086040F2F461C2F2000179
:1019E000087048600873086140F27811C2F2000183
:1019F00042F20E72C1E916000020C2F22832C4F28F
:101A0000F020C1E91A02704740F2E062C2F200021F
:101A1000107840F2E461002840F2F460C2F2000065
:101A2000C2F2000107D1037B043BB3FA83F35B09E5
:101A30000B700123137040F2DC62C2F2000201233A
:101A4000137040F220730022C2F2000302839A72E4
:101A5000DA729A73DA7340F20223C2F200031A8038
:101A600040F2DE630978C2F200031A7040F2D863D4
:101A7000002940F27811C2F20003C2F200011A807C
:101A80000CD091ED140A9FED071AB4EE410AF1EE65
:101A900010FAC8BF70470621017370470A65052117
:101AA0000173704700004842002808BF7047B0B576
:101AB000012101700021C4F28C21002240F2B043C8
:101AC00000F1040CC4F2A002C0F6A0738CE80E0072
:101AD00041F2707101824DF20A71C3F6A341416176
:101AE0005021018300F12A010024A0F84E40C0E9F2
:101AF0000744446280F82840054608462321FEF743
:101B00005AFC2C65A5F8544085F85640BDE8B04015
:101B100070470000002855D0002944D080B500EE61
:101B2000101A90ED071AB8EE400A9FED892A30EEA0
:101B3000413A23EE022A32EE011A0178012230EEF8
:101B4000412A31EE400A80F8562080ED071A00291C
:101B500008BFB0EE420A90ED081A90ED052A80ED1C
:101B6000090A30EE410A418E428D90F8283022EE6B
:101B7000000A30EE010A01310132002B80ED080A23
:101B80004186428557D0012B1ED0022B40F0858024
:101B9000018A92B28A424FF0000C24BF80F828C01C
:101BA000A0F82AC095E0418E47F23152914207D306
:101BB000002280F85620C26180F828204285C26247
:101BC000013141860020704790ED0D1AB4EE410AB4
:101BD000F1EE10FAB8BF80ED0D0A90ED021AB1EEE9
:101BE000411AB4EE410AF1EE10FA5BDD028F438F29
:101BF000013202875A1C4287B0F8542090F84C30CA
:101C00000132A0F8542000EB43029187591C90ED5B
:101C10000D0A01F0070180F84C100221B1EE400AD4
:101C200080F82810002180ED140A4185C0E90C11CC
:101C30004FF0010C4DE090ED0B1A90ED012AB0EE43
:101C4000083A21EE033AB4EE423AB0EE424AF1EEDF
:101C500010FAC8BFB0EE434AB1EE443AB4EE430ABC
:101C6000F1EE10FA03DA828989B291425CD2B5EEC4
:101C7000003AB0EEC00A22EE032AB4EE420A002176
:101C8000F1EE10FA01861CDA9FED332A30EE410A9C
:101C900020EE020A30EE010A17E04FF0000C80F847
:101CA00028C016E0C18992B28A424FF0000C10D9C8
:101CB00080F828C0A0F82AC0C0F834C0A0F830C00E
:101CC00007E09FED240A21EE000A80ED0B0A4FF099
:101CD000000C40F2F81EC2F2000EBEF8002042F2E4
:101CE0001071013293B28B42AEF8002018D300225B
:101CF00000F13A030821AEF8002000BF33F802EFEC
:101D000001397244FAD1C2F3CC0131B142F2C0724E
:101D1000C0F20902B2FBF1F100E00021A0F84E1080
:101D2000BDE8804060467047018E038B01318AB266
:101D30009A424FF0000C0186CBD3012180F8281085
:101D4000A0F82AC080ED0D0AA0F830C0C1E700BF9E
:101D50006F12033A77BE7F3F0AD7A33B704700005C
:101D60004EF68850CEF20000026843F6000142F4BD
:101D70007002C4F2020102600A6842F001020A60C5
:101D80000A689207FCD58A6822F003028A6000BFC5
:101D90008A6812F00C0FFBD14FF080428A600A680B
:101DA0004FF6FF73CFF6F2631A400A6043F2020265
:101DB000C0F203024A604FF47122C1F8A0204FF430
:101DC0001F02CA604FF0006140F8801C704700009D
:101DD00010B50024C4F201042046102101F0CEFE0B
:101DE000002808BF10BD20461021BDE8104001F0BA
:101DF000B3BE0000F0B581B00024C4F20104204657
:101E0000012101F0BBFE002872D004F58A35284676
:101E10004FF48071012201F053FB04F50056304667
:101E2000012100F005FE00BF3046042100F058FCFF
:101E30000028F9D03046042100F04EFC40F2042086
:101E4000C2F20000016840F26070C2F20000C0F807
:101E50000610FEF7D5FDFFF7E3FA40F27816C2F25E
:101E6000000696ED110A9FED4D1A40F2887020EEA3
:101E7000010ABDEEC00A10EE101AC2F20000FFF710
:101E800049FEB6F8702020460021002701F022FE0E
:101E9000B6F872202046022101F01CFEB6F874202C
:101EA0002046042101F016FE40F2FE10C2F20000AE
:101EB000018840F2000601318AB2B2F5E16FC2F248
:101EC0000006018023D340F2FC11C2F200010A880F
:101ED0000780501C40F2FA12C2F200021378088008
:101EE000B3FA83F04009107023B1FEF76DFF0AE0EA
:101EF00001B0F0BD04F50450042100F0F7FB00F040
:101F000029FA86ED000A96ED000A00F0B5F940F2D4
:101F1000701740F2F461C2F20007C2F20001388883
:101F200091F82710013001EB81023880FA2AD8BFDE
:101F3000FA22FA3A452988BF642296ED000A9FEDFD
:101F4000181A40F27411C2F20001B4EE410AF1EE27
:101F500010FA0A60A4BF64220A60096880B2814254
:101F60004FF0000204F584304FF400514FF00006AA
:101F7000C8BF012201F0A4FA38884FF480716428A8
:101F800028464FF0000228BF3E8001F099FA204613
:101F9000012101B0BDE8F04001F0DEBD0000C84203
:101FA0000000BE42000000002DE9F04F81B02DED91
:101FB000028B40F60008C4F200084046012101F0FF
:101FC000DDFD002876D040F2781BC2F2000B9BEDBD
:101FD0000B0ADFED8F0AFEF72BFC10EE100AB0EEB5
:101FE000408A8BED070A03F0EFFD8146DBF8200005
:101FF0008A4603F0E9FD9FED840B54EC107B3A46D2
:10200000234603F0F5FB05460E46484651463A4640
:10201000234603F0EDFB2A46334603F041FB03F071
:102020000DFB40F2E071C2F200010978CBF820000C
:10203000012909D140F2F0009FED760AC2F20000BA
:10204000F0EE480A02F00EF840F2F460C2F200002E
:10205000007B072862D102F0C1F800EE100A9BED68
:10206000091A40F25000C2F20000B8EEC00AB8EE01
:10207000C11A90ED013A30EE410A9FED671A90EDDA
:10208000034A23EE003A90ED062A23EE013A33EE9E
:10209000043AB4EE423AF1EE10FA80ED033A0EDA69
:1020A000B1EE422AB4EE423AF1EE10FAD8BF80ED1A
:1020B000032A06E0BDEC028B01B0BDE8F08F80ED95
:1020C000032A90ED042A90ED023A30EE422A82EE85
:1020D000011A90ED002A90ED034A22EE002A32EE1A
:1020E000044A90ED052A80ED040A23EE011A31EE30
:1020F000041AB4EE421AF1EE10FA02DDB0EE421A02
:1021000008E0B1EE420AB4EE401AF1EE10FAB8BFA0
:10211000B0EE401AB1EE410A8BED140A00F0C0F99E
:1021200001F090F840F20020C2F200000188013175
:102130008AB20A2A01805BD340F2E471C2F2000144
:1021400091ED001A40F26C019BED140AC2F20001FD
:1021500091ED013A30EE410A9FED301A91ED034ABC
:1021600020EE033A91ED062A23EE013A33EE043ACB
:10217000B4EE423AF1EE10FA81ED033A09DAB1EE2B
:10218000422AB4EE423AF1EE10FAD8BF81ED032AAA
:1021900001E081ED032A91ED042A91ED023A30EE3F
:1021A000422A82EE011A91ED002A91ED034A22EEB5
:1021B000002A32EE044A91ED052A81ED040A23EE4D
:1021C000011A31EE041AB4EE421AF1EE10FA02DDF1
:1021D000B0EE421A08E0B1EE420AB4EE401AF1EE57
:1021E00010FAB8BFB0EE401A00218BED151A01802D
:1021F00040460121BDEC028B01B0BDE8F04F01F07B
:10220000ABBC00BF00BF00BF000000000000E03F0B
:1022100017B75139000000000AD7A33B6F12833A69
:1022200040F20001C2F20001887B00284FF000005C
:1022300014D0CA7B92B140F2F462C2F2000292F86A
:102240002720642A88BF704791ED000A9FED041A89
:10225000B4EE410AF1EE10FAD8BF0120704700BF7A
:102260000000FA4240F20000C2F200000021818129
:10227000818081718160704770B540F20004C2F2C4
:102280000004A07B84ED000A98B1E07B88B140F2A5
:10229000F465C2F2000595F8270069281BD3FFF703
:1022A000B3FB40F20310A0800120A0710020A060C9
:1022B0002DE0FFF7A9FB40F20310A0800120A071E0
:1022C0000020A06040F2F460C2F20000072180F814
:1022D0002810052070BD9FED101AB4EE410AF1EEF2
:1022E00010FA02DA0020A08170BDA089013081B20D
:1022F000A081C8294FF0000038BF70BD0026FFF74D
:1023000083FB40F20310A0800120A071A66007208B
:1023100085F82800052070BD0000074340F2000149
:10232000C2F200010838CA7BB0F57F6F4FF00000A1
:1023300038BF012082424FF0000209D04B7C022BB3
:102340009CBF01334B744B7C032B38BF7047C87361
:102350004A74704710B540F20004A0F10801C2F2BF
:10236000000489B2A27BB1F57F6F4FF0000338BF44
:1023700001239A424FF0000C0BD094F810E0BEF10C
:10238000020F9CBF0EF101022274227C032A02D3A9
:10239000A37384F810C0B1F57F6F67D2A0F6FF7108
:1023A0009FED380A89B24FF202029142B0EE401A14
:1023B00013D301EE100A9FED342AB8EE411A9FEDB7
:1023C000333A21EE021A81EE031A9FED313A21EEE3
:1023D000033A32EE411A83EE011AB5EE401AF1EEDD
:1023E00010FA15DD9FED2A0A81EE000A02F016FDB3
:1023F0009FED281A9FED282A20EE010A30EE020AEE
:10240000B7EE001A81EE000A9FED241A30EE010AA1
:1024100040F2C923C2F20003187840F2F47CC2F201
:10242000000C0CEB8002441C82ED000AE0B2CD22CD
:102430005043800A00EB800140F2C820C2F2000045
:102440000278611A042A19709CBF511C017000782F
:1024500078B19FED0C0AACF10402014692ED011A2D
:10246000043230EE010A0139F8D104E094ED000A9B
:1024700010BD9FED040A01EE100AB8EE411A80EE7D
:10248000010A10BD0000000000404E4500F07F45ED
:1024900000401C462CBB84390FCF5B3B339388C371
:1024A00040F2F172C2F20002107840F2F071C2F212
:1024B000000138B10023137040F2EC72C2F2000246
:1024C00013601EE040F2EC7CC2F2000CDCF800303D
:1024D00042F20F7293429CBF5A1CCCF800200A783B
:1024E0009AB9DCF8002042F210739A4238BF704764
:1024F00040F22072C2F2000200239372D3729373EF
:10250000D373B0FA80F0400908707047B0B541F25B
:102510000004C4F201042046202101F029FF002814
:1025200008BFB0BD40F62C00C2F20000012140F609
:102530002D050170C2F200052878202824BF002054
:102540002870204601F07AFE297840F60C02C2F28B
:1025500000025054287801302870B0BDFEE700001A
:10256000002904BF00207047A0F1400212F13E0F85
:102570004FF0000215D30B18402B12D840F22072F6
:10258000C2F20002104440F60C02C2F2000201380E
:10259000053200BF12F8013F013900F8013FF9D1BF
:1025A00001221046704700000A78436802F00102D9
:1025B00023F4807343EA022242604A78836862F31C
:1025C000410383608A78836802F0010223F4006388
:1025D00043EAC2228260C978C26A013901F00F0160
:1025E00022F4700242EA0151C16270474FF08071DB
:1025F00001607047816841F0080181607047000008
:102600008068C0F3C0007047816841F004018160B8
:10261000704700008068C0F38000704742F20431C8
:10262000C4F2010102780B6862F304030B60427884
:102630000B6802F00F0223F4702343EA02420A609F
:1026400082780B6802F0040223F0805343EA82622E
:102650000A6082780B6802F0030223F4404343EAE5
:1026600082320A60C2780B6802F0010223F4005340
:1026700043EA42320A6002790B6802F00F0223F447
:10268000706343EA02220A6040790A6800F00100A0
:1026900022F4000242EAC0500860704700218180A5
:1026A00001607047826801F0010122F4807242EA01
:1026B0000121816070470000826801F0010122F46D
:1026C000007242EA4121816070470000826861F334
:1026D0000002826070470000C9430160704700003B
:1026E0000068084018BF01207047000010B50122A3
:1026F0000723044600F010F82046012100F08EF96F
:1027000020460221FFF7ECFF0028F9D02046BDE863
:10271000104000F063B9000080B51A2900F2FF8074
:10272000DFE811F01B0086006800B800C2007200EC
:1027300090009A00D600CC0045007C005500FD00BA
:102740003200A400AE00EA00FD00E00022005F00BD
:10275000F40029004C00FD003C00D0F810C063F3E9
:10276000020CC0F810C0DAE0D0F850C063F3020CDD
:10277000C0F850C0D3E0D0F850C003F0070E2CF4DE
:10278000606343EA4E23C9E0D0F80CC003F0070EA3
:102790002CF4E04343EA0E33C360C0E0D0F850C0ED
:1027A00003F0070E2CF4E01343EA8E43B6E0D0F8B2
:1027B0000CC063F3020CC0F80CC0B0E0D0F850C0FD
:1027C00003F0070E2CF4E04343EA0E33A6E0D0F802
:1027D0000CC003F0070E2CF4E07343EA8E13C360C1
:1027E0009DE0D0F850C003F0070E2CF0380343EA08
:1027F000CE0393E0D0F810C003F0070E2CF4E07382
:1028000043EA8E1303618AE0D0F810C003F0070E8C
:102810002CF4603343EACE33036180E0D0F80CC07F
:1028200003F0070E2CF0380343EACE03C36076E0D2
:10283000D0F810C003F0070E2CF0380343EACE03A3
:1028400003616CE0D0F810C003F0070E2CF4E01325
:1028500043EA8E43036162E0D0F810C003F0070E34
:102860002CF4600343EA4E53036158E0D0F80CC0E7
:1028700003F0070E2CF4603343EACE33C3604EE01E
:10288000D0F80CC003F0070E2CF4E01343EA8E439B
:10289000C36044E0D0F810C003F0070E2CF460636E
:1028A00043EA4E2303613AE0D0F810C003F0070E6C
:1028B0002CF4E04343EA0E33036130E0D0F810C05B
:1028C00003F0070E2CF0605343EACE63036126E069
:1028D000D0F810C003F0070E2CF0E06343EA0E635B
:1028E00003611CE0D0F80CC003F0070E2CF060531D
:1028F00043EACE63C36012E0D0F80CC003F0070EC9
:102900002CF4600343EA4E53C36008E0D0F850C093
:1029100003F0070E2CF4E07343EA8E130365013ACB
:102920000F2A88BF80BDDFE802F0083A2630173F43
:10293000493553214E121C440D2B426B61F30402A6
:10294000426380BDC26A61F38E22C26280BD026BA7
:1029500061F35D62026380BD426B61F318524263B2
:1029600080BDC26A61F30402C26280BD026B61F382
:10297000D332026380BD426B61F38E22426380BD1D
:10298000C26A61F3D332C26280BD426B61F3D3325B
:10299000426380BD026B61F34912026380BD426BEA
:1029A00061F34912426380BD426B61F35D62426331
:1029B00080BDC26A61F34912C26280BD026B61F3DD
:1029C0000402026380BD026B61F31852026380BD92
:1029D000026B61F38E22026380BD0000C06C80B286
:1029E00070470000836810294FEA016105D343F066
:1029F0000043836001F0706102E023F000438360D4
:102A0000836802F0030223F07063194381608168D8
:102A100021F0405141EA027181607047826801F003
:102A2000010122F0804242EA81718160704700001A
:102A3000826801F0010122F4800242EA8151816042
:102A4000816821F4800181607047000010B508247E
:102A5000C0F224042046012100F03AF9204600216A
:102A6000BDE8104000F034B9426801F0030122F0E3
:102A7000407242EA016141607047000043F6A401E0
:102A8000C4F202010A6800F00F0042F030020A604E
:102A900051F89C2C22F0F00242EA001041F89C0C04
:102AA000086820F0300008607047000043F6080115
:102AB000C4F202010A6800F0070022F4E05242EA80
:102AC000802008607047000043F60801C4F202014C
:102AD0000A6800F0070022F4604242EA40300860D1
:102AE0007047000043F6A401C4F202010A6800F036
:102AF000070022F4E04242EA00300860704700001C
:102B000043F6A401C4F202010A68012822F030024F
:102B100008BF30320A607047042888BF7047DFE87A
:102B200000F0032B15220C0043F60000C4F2020053
:102B3000026861F300020260704743F60000C4F2CD
:102B40000200426F61F300024267704743F60000E3
:102B5000C4F20200026801F0010122F0807242EA30
:102B600001610160704743F60000C4F20200026F89
:102B700061F300020267704743F60000C4F20200EE
:102B8000026801F0010122F4803242EA0141016051
:102B90007047000043F6040CC4F2020CDCF8043069
:102BA00041F20022C0F27A02C3F3810310B5DFE8DC
:102BB00003F002131A2FDCF89C10490446F600417A
:102BC000C0F2DC2158BF11460160DCF8A020C2F33E
:102BD000024221FA02F21BE00260DCF8A010C1F30D
:102BE000C241CA4014E0DCF80010DCF80010DCF848
:102BF0000030C1F3881EDCF8001015A4C1F30241B7
:102C0000615C03F00F030EFB02F25943B2FBF1F2D9
:102C10000260DCF8041010A2C1F30311515C0268D9
:102C200046F2500322FA01F14160DCF80420C0F6BC
:102C30000003C2F382229A5C21FA02F2C260DCF83D
:102C40000420C2F342329A5CD140816010BD00BFC3
:102C50000102040810200000000000000000000035
:102C6000010203040607080943F60002010CC4F23E
:102C70000202895800F01F0021FA00F000F0010064
:102C80007047000043F600000021C4F2020000BFBC
:102C90000268920304D4B1F5405F01F10101F7D35A
:102CA0000068C0F34040704743F6000200F01F0385
:102CB0004FF0010CC4F2020201290CFA03F14FEAB1
:102CC0001040835814BF23EA010119438150704713
:102CD00043F6000200F01F034FF0010CC4F20202A1
:102CE00001290CFA03F14FEA1040835814BF23EA7C
:102CF000010119438150704710B543F6040CC4F22A
:102D0000020CDCF800E000F001042EF4800040EA40
:102D10008450CCF80000DCF8000061F38E10CCF891
:102D20000000DCF8000003F0070162F30300CCF8B8
:102D30000000DCF8000020F4E02040EA0140CCF87C
:102D4000000010BD43F60000C4F20200D0F8A41049
:102D500041F03001C0F8A410016841F001010160A8
:102D600001688907FCD5816821F00301816000BFFB
:102D7000816811F00C0FFBD101684FF6FF72CFF69E
:102D8000F262114001604FF08041816043F2020124
:102D9000C0F2030141604FF47121C0F8A0104FF45C
:102DA0001F01C160D0F8A41021F03001C0F8A410B8
:102DB0007047000043F6A401C4F202010A6842F021
:102DC00030020A6051F89C2C60F3010241F89C2CFF
:102DD000086820F0300008607047000043F60800E3
:102DE000C4F202000068C0F381007047026861F31A
:102DF000000202607047000000210182C0E900115A
:102E0000C0E902117047000046F20001C4F202015D
:102E10000968084018BF01207047000002684BF69F
:102E2000EF731A4002600A8903681A4302604A7C01
:102E3000036802F0030223F4405343EA02320260C3
:102E4000CA7B036802F0030223F4406343EA822250
:102E500002608A7B036802F0030223F4407343EAB2
:102E6000022202604A7B036802F0010223F0800321
:102E700043EAC21202600A7B036862F386130360AE
:102E80000A7C036862F3451303604A894368426021
:102E90000A6882604968C16070470000016800F0FC
:102EA000FC024CF6CD43083ACCF6CC43A2FB0323FC
:102EB00021F001010160002146F20402016041603D
:102EC0008160C1606FF00300C4F2020200EA930067
:102ED0000F21136801FA00F01843106070470000DA
:102EE000D0F8002161F30002C0F800217047000013
:102EF000026861F3060202607047000043F60C416D
:102F0000C4F202010860704743F60C42C4F20202A8
:102F1000536843F00103536001801068C0070AD171
:102F2000106840070AD41068C0064FF0020058BF6E
:102F3000032008BB04E00020F0B901E00120D8B96B
:102F40004FF480111068C0070AD11068400709D4F7
:102F50001068C0064FF0020058BF032003E000BF16
:102F6000002000E00120A1F1010310B90129194658
:102F7000E8D1002B08BF0420516821F00101516005
:102F80007047000043F61040C4F20200016841F0AF
:102F9000800101607047000043F60C42C4F2020257
:102FA0001168C9070AD1116849070AD41168C9060E
:102FB0004FF0020158BF032129B11DE0002111B1DA
:102FC0001AE00121C1B9B8B11168C9070AD1116865
:102FD000490709D41168C9064FF0020158BF0321FF
:102FE00003E000BF002100E00121A0F1010321B9AD
:102FF00001281846E8D100E00346002B08BF042151
:1030000008467047002A08BF7047023930F8023B73
:10301000013A21F8023FF9D17047000043F60C4114
:10302000C4F202014A6842F002024A6088604868BD
:1030300040F0400048600868C0070AD108684007AF
:103040000AD40868C0064FF0020058BF032008BB2E
:1030500004E00020F0B901E00120D8B94FF080422F
:103060000868C0070AD10868400709D40868C00684
:103070004FF0020058BF032003E000BF002000E033
:103080000120A2F1010310B9012A1A46E8D1002B50
:1030900008BF04204A6822F002024A60704700001C
:1030A00043F6044040F22311C4F20200C4F2675117
:1030B000016048F6AB11CCF6EF510160704700009B
:1030C0002DE9F04F83B015460C460646FFF7E8FFA2
:1030D00006F17840C6F3480940F2FF31870AC9F586
:1030E0000078884340F2CA2BA6462C463346454515
:1030F00038BFA84600F100664FF0006CC2F2000B2A
:103100004FF6FF750CEB872A002000BF315A2BF8D1
:1031100000100230B0F5806FF8D15FEA08400DD0A2
:10312000002000BF19FA80F13BF81110A94227D105
:10313000013081B21FFA88F29142F3D31FFA88FA64
:10314000BAF1000F5BD00294CDE900E77446554612
:1031500099461F4634F8021B3846FFF7D5FE032870
:1031600065D1013D07F10207F4D1029CDDF800E0D2
:10317000019F4B464FF0006C4FF6FF753FE000BFDC
:103180004FF0804075460294CDE90037FFF704FF09
:10319000411E012903D81420FFF7B0FE01E00428E6
:1031A00045D05046FFF73AFF032840D11FFA88FA6E
:1031B0000BEB4901504602392F46AA1EBAF1010F06
:1031C00098BF012032F8023F013821F8023FF9D1BF
:1031D000002400BF3BF804103019FFF795FE0328C8
:1031E00025D10234B4F5806FF4D1BE46DDE9003755
:1031F000029C03284FF0006C4FF6FF7517D11FFAA1
:1032000088F0A1B2814216D0A4EB08041FFA84F81A
:1032100001370EEB4A0E03EB4A03B8F5007F28BFD7
:103220004FF4007806F580664FF000096AE7002049
:1032300003B0BDE8F08FFFF7A5FE012003B0BDE8A5
:10324000F08F0000B0B540F22075C2F20005287C76
:10325000697C40F2F46441EA002145F25550814214
:1032600002BF00222A746A748142C2F200044CD167
:1032700094F82800002848D0052807D0072840F0F7
:10328000FC80FEF7CDFF002800F0F78094F82800BE
:10329000072808BFFEF7E6FF40F202210020C2F235
:1032A000000184F828002083A872E872A873E873EC
:1032B000088040F2DE61C2F20001087040F2D8617D
:1032C000C2F20001088040F2D461C2F2000108603D
:1032D00040F2E061C2F20001087040F2E461C2F223
:1032E0000001087040F2DC61C2F20001087040F297
:1032F000CC61C2F20001086040F27811C2F2000114
:103300000865C1E916000120B6E040F2E060C2F2B3
:10331000000002784AF6552399423DD15AB9217BE3
:1033200040F2E4620439B1FA81F14909C2F20002C3
:1033300011700121017040F2DC60C2F20000012135
:10334000017040F202210020C2F200012083A87225
:10335000E872A873E873088040F2DE61C2F20001EF
:10336000087040F2E461C2F20001097840F2D862CC
:10337000C2F200020029108078D040F27810C2F228
:10338000000090ED140A9FED4B1AB4EE410AF1EEE5
:1033900010FA72DC06206FE092B340F2DC6CC2F2ED
:1033A000000C012240F202238CF800200022C2F21D
:1033B00000032283AA72EA72AA73EA731A8040F2A7
:1033C000DE6340F2E46EC2F2000340F2D865C2F25E
:1033D000000E1A70C2F200059EF800302A8040F2FA
:1033E0007815002BC2F2000549D095ED140A9FED27
:1033F000311AB4EE410AF1EE10FA43DC062240E045
:10340000A87AE97A41EA002080B241F24C31884240
:1034100038BF01462183A87B411E032940F20221C7
:10342000C2F20001088012D800212183A972E9723A
:1034300040F2DE61C2F200010A78824204D1227BAE
:10344000093A12F1030F01D8082222730870287B71
:10345000697B4AF6662241EA002040F26811C2F216
:1034600000019042088008D1002005E040F2781168
:10347000C2F200010865052020730120B0BD2A6555
:103480000522227345F255529142F6D140F2CC62A8
:103490000021C2F2000211600122017001208CF8AB
:1034A00000102965C5E91611218322738EF80010DA
:1034B000B0BD00BF00004842816270478161704723
:1034C0001823002A08BF2823C15070474FF6FF7108
:1034D0004FF08072C0E90012704700000A88002A8D
:1034E00008BF7047F0B500234FF0030C4FF0010EFA
:1034F000002405E0520804F1010403F1020327D07F
:10350000D507F7D006680CFA03F5AE4306608E794E
:1035100007689E403E43066046680EFA04F7BE43C5
:1035200046600E794768A6403E4346608668AE43D3
:103530008660CE7987689E403E438660C66826EAEC
:103540000505C5604D79C6689D403543C560D1E726
:10355000BDE8F0407047000080B51C2303EA8103FA
:1035600002FA03FE24224FF00F0C082938BF202254
:1035700081580CFA03F3994341EA0E01815080BD52
:1035800084B001F005FA01F077F901F037F901F0A4
:1035900065FA01F0F7F801F087F800F0C3FF01F0D9
:1035A00025F801F0C3F840F2042546F2080442F27F
:1035B0004C06C2F20005C4F20204C4F20106204621
:1035C00031462A46022301F0D9F820460121FFF7AF
:1035D0000DFC01F0C5FB01F08BF901F063FA01F07D
:1035E00095FB204631462A46022301F0C7F82046C3
:1035F0000121FFF7FBFB0024C4F2020404F5006084
:103600004FF400510122FFF75BFF4FF4487001F0C7
:103610005FF8204640210122FFF752FFFDF768FEC8
:10362000FDF74EFCFEF7A0F90220FFF7EDFB0028A6
:10363000FAD0012000F066FF062000F047FF40F2BC
:10364000371000F069FF00BF012000F051FF002893
:10365000FAD000BF022000F04BFF0028FAD0002073
:10366000002700F04FFF00F03BFF40F2F06440F213
:10367000802A40F2E87940F2C02540F2F46BC2F2B1
:103680000004C2F2000AC2F20009C2F200050DF104
:103690000F06C2F2000B0DF1090800BF00F00EFF8B
:1036A000207810B1FDF75AFE2770002031464A46B7
:1036B0002B468DF80F70CDF800A0FDF749FD0128CD
:1036C000ECD19DF80F000228E8D140F20000C2F2D0
:1036D000000090ED000A40F28871C2F20001BDEED8
:1036E000C00A098F10EE100A8DF80A0008BA000C03
:1036F000ADF80B00BBF8270055218DF80910ADF887
:103700000D000220002106224346FDF74DFEC5E7CD
:10371000B0B54EF60C5ECEF2000EDEF800304FF083
:10372000FF35C3F3022383F00704042C28BF0424CD
:10373000033B05FA04F438BF0023A143994005FA7E
:1037400003F39A4300F00F03043B4EF2001C734452
:10375000CEF2000C11430C33B0F1FF3F4FEA0111E0
:1037600000EB0C02C8BF02F540730028197048BF77
:10377000B0BD00F01F01012202FA01F1C0F34210B6
:103780004CF82010B0BD00004EF60C51CEF20001F6
:103790000A684FF6FF031A4060F30A2242F0806085
:1037A00040F0FD7008607047002908BF7047F0B511
:1037B00081B041F200060C460546C4F2010600271E
:1037C000E95D304600F03EFD3046402100F048FD06
:1037D0000028F9D00137A742F2D101B0BDE8F0408E
:1037E000704700000021C0F8031001600121C17181
:1037F00070470000026801F0010122F0400242EA35
:103800008111016070470000C06880B270470000FD
:10381000C16070478068084018BF012070470000F1
:10382000C26922F40062C2610A78032A27D8DFE85D
:1038300002F0021A060E026822F4004202E0026858
:1038400042F400420260026822F4804206E002680C
:1038500042F400420260026842F480420260026860
:1038600022F480620AE0026822F4004202600268E8
:1038700022F480420260026842F480620260CA79E7
:10388000036802F0010223F4007343EA422202605B
:103890004A78012A06D1CA79012A03D1026842F482
:1038A000807202E0026822F4807202604A78036843
:1038B00062F3820303608B78072B07D8426822F4F7
:1038C00000724260426822F4807213E042680A2B60
:1038D0000AD142F400724260426822F4807242606F
:1038E000026822F038020AE022F400724260426864
:1038F00042F4807242608B78026863F3C502026012
:10390000CA78036802F0010223F0800343EAC2127E
:1039100002600A79036802F0010223F4006343EABB
:10392000C22202604A79036862F341030360897925
:10393000026861F30002026070470000B0B543F610
:10394000040441F20025C4F20204C0F27A05FFF734
:1039500045FA40F288010228C2F200011AD001287B
:1039600011D040BBD4F89C00400446F60040C0F2A1
:10397000DC2058BF28460860D4F8A020C2F30242D9
:1039800020FA02F517E00D60D4F8A000C0F3C240A1
:10399000C54010E02068206822682368C0F3881CB6
:1039A000C3F3024309A0C05C02F00F020CFB05F355
:1039B0005043B3FBF0F50D60606806A2C0F303103E
:1039C000105C0A6822FA00F00860B0BD0102040829
:1039D00010200000000000000000000001020304AD
:1039E000060708094EF21001CEF200010A68042809
:1039F00022F0040208BF04320A607047C16282628A
:103A0000416941F001014161704700004A78436C0F
:103A100002F0010223F0007343EA426242648A78B2
:103A2000436C02F00F0223F4700343EA0252426433
:103A30000978426C01F0010122F0807242EA0161D2
:103A400041647047426C01F00F0122F4702242EA97
:103A500001414164704700000A78436C23F0FF0382
:103A60001A4442644A79436C02F0010223F48063F1
:103A700043EA822242640A79436C02F0010223F491
:103A8000006343EAC22242644A78436C02F00102B6
:103A900023F4005343EA42324264CA78436C02F092
:103AA000010223F4804343EA823242648A79436C00
:103AB00002F0010223F4805343EA0232426489781F
:103AC000426C01F0030122F4407242EA0121416498
:103AD000704700000D2988BF7047DFE801F0071E1E
:103AE0000D1E091E15170B1E0F121F1C4263704777
:103AF000C2637047C265704782637047C0F8802018
:103B00007047C0F88420704702647047816DC2EA34
:103B1000010181657047C0F88C207047C0F888208B
:103B200070470000026801F0030122F4407242EA8B
:103B30000121016070470000026801F0070122F0D6
:103B4000700242EA0111016070470000026861F3EF
:103B50000002026070470000C94301617047000025
:103B600032B1012A18BF7047C2681143C160704763
:103B7000C26822EA0101C160704700000269B1F524
:103B8000807F07D1D10544BFC0685FEA006008D5D7
:103B9000012070470A4204D0C06808421CBF0120BF
:103BA0007047002070470000082988BF7047DFE891
:103BB00001F005391F390E3928311700816902F0EB
:103BC000010221F0080141EAC20181617047C16927
:103BD00002F0010221F0080141EAC201C16170470F
:103BE000416D02F0010221F4006141EAC22118E0B6
:103BF000816902F0010221F4006141EAC221816180
:103C00007047C16902F0010221F4006141EAC2215A
:103C1000C1617047416D02F0010221F0080141EAE3
:103C2000C20141657047000080B5082988BF80BD8A
:103C300092F800E04FEADE0CDFE811F009007401B1
:103C4000C100740148007401040149019600016A31
:103C500021F0010101625178436801F0010123F470
:103C6000807343EA012141609178436801F00101CA
:103C700023F4007343EA4121416081690EF0070398
:103C800021F003018161816921F0700141EA031192
:103C9000816181690CF0010321F4803141EA034123
:103CA0008161D178036A61F3410303621179036A88
:103CB00061F3C30303625179036A61F30003036292
:103CC0009179026A61F38202026280BD016A21F485
:103CD000807101625178436801F0010123F480533F
:103CE00043EA013141609178436801F0010123F416
:103CF000005343EA41314160C1690EF0070321F0EE
:103D00000301C161C16921F0700141EA0311C16180
:103D1000C1690CF0010321F4803141EA0341C16122
:103D2000D178036A01F0010123F4007343EA4121D1
:103D300001621179036A01F0010123F4006343EA8F
:103D4000C12101625179036A01F0010123F48073FA
:103D500043EA012101629179026A01F0010122F432
:103D6000806242EA8121DCE05178436801F0010180
:103D700023F4802343EA81414160416D0EF0070343
:103D800021F4E04141EA03314165416D0CF001034A
:103D900021F0807141EA03614165D178036A01F045
:103DA000010123F4001343EA415101625179026A8F
:103DB00001F0010122F4801242EA0151B1E0016AEE
:103DC00021F0100101625178436801F0010123F4F0
:103DD000806343EA812141609178436801F00101E9
:103DE00023F4006343EAC121416081690EF00703B7
:103DF00021F440718161816921F4E04141EA03319C
:103E0000816181690CF0010321F0807141EA036155
:103E10008161D178036A61F3451303621179036A02
:103E200001F0010123F0800343EAC11101625179DD
:103E3000036A61F3041303629179026A61F38612E3
:103E4000026280BD016A21F48051016251784368A9
:103E500001F0010123F4804343EA81314160C169EB
:103E60000EF0070321F44071C161C16921F4E04102
:103E700041EA0331C161C1690CF0010321F0807195
:103E800041EA0361C161D178036A01F0010123F4C1
:103E9000005343EA413101621179036A01F00101E3
:103EA00023F4004343EAC13101625179036A01F00E
:103EB000010123F4805343EA013101629179026ADE
:103EC00001F0010122F4804242EA813129E0517877
:103ED000436801F0010123F4803343EA014141606A
:103EE000416D0EF0070321F0700141EA03114165B5
:103EF000416D0CF0010321F4803141EA0341416539
:103F0000D178036A01F0010123F4003343EA41410F
:103F100001625179026A01F0010122F4803242EA21
:103F20000141016280BD0000082988BF7047DFE8B9
:103F300001F005391F390E3928311700816902F067
:103F4000010221F0040141EA820181617047C169E7
:103F500002F0010221F0040141EA8201C1617047CF
:103F6000416D02F0010221F4806141EA822118E0F2
:103F7000816902F0010221F4806141EA82218161BC
:103F80007047C16902F0010221F4806141EA822197
:103F9000C1617047416D02F0010221F0040141EA64
:103FA0008201416570470000426C01F0010122F47A
:103FB000004242EAC131416470470000026801F0EA
:103FC000010122F0040242EA810101607047000011
:103FD000026801F0010122F0800242EAC111016091
:103FE00070470000426801F00F0122F4700242EABB
:103FF0000151416070470000426801F0070122F062
:10400000700242EA011141607047000044F2FF3241
:10401000C4F20102904207DC0022C4F20102904285
:104020000FD044F2000207E044F60002C4F201029D
:10403000904206D044F20042C4F20102904218BFFE
:104040007047026B4FF6FF739A4311440163704748
:10405000826801F0010122F0800242EAC111816010
:104060007047000010B5B0EE600AD0ED1D0A04469E
:10407000183000F00FF894ED110A9FED051A40F288
:10408000E47020EE010AC2F2000080ED000A10BDCB
:1040900000409C4510B52DED0E8B90ED0BBAB0EEA7
:1040A000608AB0EE401A044690ED04AAD0ED050AED
:1040B00090ED060A40F6300031EE4BCAC2F2000025
:1040C00090ED001AB0EECC9A2CEE0A2AB4EE409A8B
:1040D00032EE011AF1EE10FA80ED001A0DDDB0EEAD
:1040E000490A00F051FFB1EE40DAB5EE40CAF1EEF8
:1040F00010FAC8BFB0EE40DA07E0B7EE001A71EE72
:10410000600A00F041FF8CEE00DA94ED080AD4ED6D
:10411000070AB4EE409AF1EE10FA0DDDB0EE490A4E
:1041200000F032FFB1EE40EAB5EE40CAF1EE10FA0F
:10413000C8BFB0EE40EA07E0B7EE001A71EE600AC1
:1041400000F022FF8CEE00EA94ED0A0AD4ED090A91
:10415000B4EE409AF1EE10FA0DDDB0EE490A00F02F
:1041600013FFB1EE401AB5EE40CAF1EE10FAC8BF27
:10417000B0EE401A07E0B7EE001A71EE600A00F0E8
:1041800003FF8CEE001A94ED023A94ED012A94EDAF
:10419000034A21EE031A2AEE011A22EE0E2A84EDBA
:1041A0000D1A32EE011A24EE082A94ED000A32EEBE
:1041B000011A94ED0C2A2AEE011A31EE021A20EEB1
:1041C0000D0A30EE010A2AEE000A30EE0B0A84EDE9
:1041D0000C1A84ED0B0ABDEC0E8B10BD40F278106A
:1041E000C2F2000040F2F46190ED050AC2F2000153
:1041F00091F82600BDEEC00A002810EE100A07D084
:104200008A8C821A12B212F5006F07DA01220AE0D4
:104210000122888481F8262008627047B2F5006F79
:1042200004DD4FF0FF32CB691A44CA61CA69888441
:10423000C2EB02321044086270470000406880B24E
:10424000704700006FF35F2141607047C26801F062
:10425000010122F4005242EA4131C160704700007E
:104260000068084018BF012070470000032988BF7C
:104270007047DFE801F00213060A416921F48071FA
:104280000FE0416921F4807102E0416941F48071DD
:104290004161416941F4007141617047416941F4F4
:1042A00080714161416921F40071416170470000F2
:1042B0002DE9F04184B06D460446284698461646DE
:1042C0000F46FEF767FC41F2000105F10C00C4F255
:1042D00001018C4208BF05F1080000684CF6CD4191
:1042E00000EB80004000B0FBF7F0CCF6CC41A0FB27
:1042F0000112D10801EB8103A0EB43000428A06860
:104300004FF0010388BF03EBD201C1EA0000A060B7
:10431000E068012E03D04EB940F0805001E020F05B
:104320008050E060E06820F4805005E020F080508C
:10433000E060E06840F48050E060206908F003012C
:1043400020F4405040EA0130206104B0BDE8F08123
:1043500001F01F034FF0010C012A0CFA03F24FEA9F
:1043600011410B5814BF23EA02021A430A50704746
:104370007F294FF0000C00F32A804B1E3F2B00F2E8
:104380006180DFE803F04B205F205F5F5F415F5F8C
:104390005F5F5F5F5F4F5F5F5F5F5F5F5F5F5F5F3D
:1043A0005F5F5F5F5F3D5F5F5F5F5F5F5F5F5F5F3F
:1043B0005F5F5F5F5F5F5F5F5F5F5F5F5F5F5F5F0D
:1043C0005F5F5F5F5F47426902F0010C3AE0B1F561
:1043D000007F0CDBB1F5003F2DD0B1F5006F2ED082
:1043E000B1F5007F04BF4269C2F3802C2AE0802926
:1043F0001CD0B1F5807F04BF0269C2F3801C21E0AC
:10440000C268C2F3401C1DE0C2689206DBD54FF0C3
:10441000010C17E0C268C2F3801C13E0C268C2F34B
:10442000002C0FE0C268C2F3001C0BE0C268D2B2DD
:104430004FEAD21C06E0C268C2F3803C02E0C268C8
:10444000C2F3806CBCF1000F04BF0020704700680D
:10445000084018BF01207047022911D001290BD054
:10446000002918BF7047C16821F40071C160C1689C
:1044700021F48061C1607047C16821F4007102E0DD
:10448000C16841F40071C160C16841F48061C160DC
:1044900070470000C26801F0010122F0040242EA04
:1044A0008101C16070470000C26801F0010122F083
:1044B000080242EAC101C1607047000043F20000F7
:1044C000C4F200004AF6AA210160704743F20401D9
:1044D000C4F200010A6860F302020A60704700003B
:1044E00043F20000C4F200004CF6CC41016070477A
:1044F00043F20C01C4F200010968084018BF012012
:104500007047000043F20001C4F20001002818BF08
:1045100045F255500860704743F20801C4F20001AB
:1045200008607047F0B583B001AD42F20004284640
:10453000C4F20104FEF7CAFF012004F56046032718
:104540000190304629468DF80A70FEF7C7FF042017
:104550000190304629468DF80A70FEF7BFFF6D4680
:104560002846FEF743F80120C0F2002000902046C4
:104570002946FEF719F820460021FEF775FA204675
:10458000002101220023FEF7C7F820460221022263
:104590000023FEF7C1F820460D210122FEF722FA82
:1045A00020460121FEF77EF820460121FEF784F81F
:1045B00020460121FEF78AF820464021FEF790F8B8
:1045C0000028F9D02046FEF715F800BF2046FEF778
:1045D00017F80028FAD12046FEF716F82046FEF715
:1045E00019F80028FAD103B0F0BD0000F0B583B08F
:1045F00001AD42F200142846C4F20104FEF766FF42
:10460000022004F55F4603270190304629468DF8C5
:104610000A70FEF763FF10200190304629468DF89E
:104620000A70FEF75BFF20200190304629468DF886
:104630000A70FEF753FF6D462846FDF7D7FF4FF08F
:104640008070009020462946FDF7AEFF20460021ED
:10465000FEF70AFA2046012101220023FEF75CF84A
:10466000204600210022FEF7BDF920460121FEF779
:104670002DF800BF20464021FEF732F80028F9D07F
:104680002046FDF7B7FF00BF2046FDF7B9FF002821
:10469000FAD12046FDF7B8FF2046FDF7BBFF002802
:1046A000FAD103B0F0BD000010B582B0FEF7CEF92C
:1046B0000DF102042046FDF7F1FF4FF48060ADF8E4
:1046C0000200002001902046FDF7A8FF02B010BDB7
:1046D000002808BF7047B0B504464FF47A7505E06E
:1046E00004FB05F000F00EF8002444B1332CF7D39E
:1046F0004CF2503000F006F8323C002CF6D1BDE808
:10470000B040704740F608024EF21801C2F20002B3
:10471000CEF2000113680A68584300BF0B68D31A31
:1047200038BF03F180738342F8D37047B0B586B0C9
:1047300046F20804C4F202042046FEF7AFFB01ADC6
:104740002846FEF759FB0020ADF80C0040F200109F
:10475000C0F2011004900120ADF814002046294653
:10476000FEF75CFBA4F108000121FEF7B9FB04F1A0
:10477000FC000521FEF7BCFB06B0B0BD43608160C4
:10478000C26070472DE9F04F83B00DF1040B58461D
:10479000FEF79CFE0025C4F2020505F5A056304642
:1047A0004FF488514FF48858FEF786FE05F50067F0
:1047B00038464FF400514FF40059FEF77DFE28466D
:1047C00040214FF0400AFEF777FE0024C0F201249A
:1047D00030465946CDE90184FEF780FE38465946F9
:1047E000CDE90194FEF77AFE28465946CDE901A4A9
:1047F000FEF774FE03B0BDE8F08F000080B5032023
:10480000FEF7C2FF4EF60C50CEF200000168002108
:10481000017302684173026881730268C17402689F
:104820000175026881750268C2F3022282F00703F3
:10483000042B28BF0423033A38BF0A464FF0FF3148
:104840009940C94391400901C175192000210022F6
:10485000FEF75EFF1B2000210022FEF759FF1E20FD
:1048600001210022FEF754FF252000210022BDE88F
:104870008040FEF74DBF000010B54FF440100121FD
:10488000FEF712FA0124C0F2300420460121FEF79F
:104890000BFA601C0121FEF707FA201D0121FEF72B
:1048A00003FA04F115000121FEF7FEF90224C0F21B
:1048B000400420460121FEF7F7F904F10C00012124
:1048C000FEF7F2F94FF488000121FEF7EDF9042418
:1048D000C0F2440420460121FEF7E6F9201D012123
:1048E000FEF7E2F9601D0121BDE81040FEF7DCB9DA
:1048F000F0B585B003AD2846FEF7E8FD01AC2046D3
:10490000FEF770FF40F20046C4F2020630460A216C
:104910000522FEF721FE4FF480604FF0817703906F
:10492000304629460497FEF7D9FD3046022105227C
:10493000FEF712FE04200390304629460497FEF746
:10494000CDFD30460B210522FEF706FE4FF4006038
:104950000390304629460497FEF7C0FD40F2001050
:10496000C0F204000190012040F20111A6F5E635E5
:104970008DF80800ADF809108DF80B002846214687
:10498000FEF74EFF28460121FEF734FF05B0F0BDCB
:1049900010B5FEF7D7F943F60040C4F2020040F22A
:1049A000551101601C20C0F240000121FEF77CF986
:1049B00047F21000C4F20000016841F003010160F9
:1049C00004200121FEF7A8F80124C0F2740400BFFE
:1049D0002046FEF749F90128FAD101200121FEF70E
:1049E0009BF800BFFEF74EF90028FBD00020012104
:1049F000FEF792F80120FEF737F90128FAD10120DD
:104A00005A2101220223FEF777F902200121FEF745
:104A100083F800BF1920FEF727F90128FAD10020FA
:104A2000FEF72CF80520FEF75DF80020FEF74CF8A5
:104A30000020FEF73BF80120FEF762F80220FEF7A7
:104A4000B9F900BFFEF7CAF90228FBD10020FEF732
:104A500057F8BDE81040FEF771BF0000B0B584B054
:104A60006846FEF797F8019C00200025FEF7BAFF84
:104A70004DF68360C4F21B30A4FB0001480D40F6E4
:104A80000801C2F2000108604EF21000CEF20000F0
:104A90006FF07F4185604160016841F00101016074
:104AA00004B0B0BD2DE9F04788B00DF1180A5046AA
:104AB000FEF70CFD0024C4F2010404F580363046F4
:104AC000082101224FF00108FEF746FD4FF48070E7
:104AD00006904FF08175304651460795FEF7FEFC73
:104AE000304607210122FEF737FD8020CDE906057B
:104AF00030465146FEF7F2FC304609210122FEF70E
:104B00002BFD4FF40070CDE9060530465146FEF707
:104B1000E5FC04F582373846002101224FF00009F8
:104B2000FEF71AFD38465146CDE90685FEF7D6FC5C
:104B300030460A210122FEF70FFD4FF48060CDE9D7
:104B4000060530465146FEF7C9FC384601210122D0
:104B5000FEF702FD0220CDE9060538465146FEF774
:104B6000BDFC30460B210122FEF7F6FC4FF400603D
:104B700006900020C0F20220079030465146FEF712
:104B8000ADFC204606210626FEF7D6FF2046002172
:104B9000FEF7C8FF20460121FFF738FA2046002122
:104BA000FFF716FA204641F287310022FEF726FF72
:104BB00020460021FFF74CFA20460021FFF71CFA9F
:104BC00020460021FFF70EFA20460121FFF7F6F9F3
:104BD0000DF1110540F20117204600212A468DF8FB
:104BE0001160ADF81670CDF81290FFF71DF8204651
:104BF000002140F2EE22FEF76DFF20460021002248
:104C0000FEF7D2FF204600210022FFF78DF9204653
:104C100002212A468DF81160ADF81670CDF8129079
:104C2000FFF702F82046022140F2EE22FEF752FF83
:104C3000204602210022FEF7B7FF20460221002273
:104C4000FFF772F9204604212A468DF81160ADF86D
:104C50001670CDF81290FEF7E7FF2046042140F2CF
:104C6000EE22FEF737FF204604210022FEF79CFFCC
:104C7000204604210022FFF757F9204606212A4644
:104C80008DF81160ADF81680CDF81290FEF7CCFFCC
:104C9000204606210022FEF71DFF204606210022A5
:104CA000FEF782FF204606210022FFF73DF9322061
:104CB0008DF80A000DF10A012046ADF80F90CDF8ED
:104CC0000B90FEF7C9FE20460021FEF7BBFE0DF15A
:104CD00007012046ADF807908DF80990FEF796FE83
:104CE00020460121FFF760F920460121FEF72EFF43
:104CF000204601210122FEF733FF20461021012228
:104D0000FEF72EFF08B0BDE8F087000010B540F6B2
:104D10000004C4F2000420460021FEF70DFF2046E7
:104D20000021FEF7FFFE20460021FFF751F9204643
:104D300048F69F410022FEF761FE20460021FFF762
:104D400087F920460021FFF757F920460121FEF799
:104D5000FDFE204601210122BDE81040FEF700BF04
:104D6000F0B583B001AD2846FEF7B0FB41F2000478
:104D7000C4F2010404F57446304606210722FEF70A
:104D8000EBFB40204FF08177019030462946029797
:104D9000FEF7A4FB304607210722FEF7DDFB80204B
:104DA0000190304629460297FEF798FB20464FF4C3
:104DB000165101220023FFF77BFA20460121FFF75D
:104DC00073FB20460121FFF765FB20460021FFF71A
:104DD00043FB20460021FFF749FA0521C0F20C01F0
:104DE00020460122FFF7B4FA20460121FFF72EFAF0
:104DF00003B0F0BD4100080218BF04200A0E18BF1E
:104E000040F001004FF07F4232EA010108BF40F05C
:104E10000200012808BF05207047000010EE100AAC
:104E200010B50023A0F50001B1F1FE4F67D200BF1D
:104E300000F500216FF07E0202EBE15CC1F302524B
:104E40004FF07E5101EB025100EE901AA0EBCC50D6
:104E500003EB0C0100EE100A51EA020036D030EEEE
:104E6000601A70EE200A9FED3D2A3E4881EE200A2E
:104E70009FED3B1A60EE000A00EE821A60EE201AE7
:104E800061EE810A784401EE101A00EB82009FED7A
:104E9000362AB8EEC11AD0ED001A344841EE021A93
:104EA000784401EE101A00EB8200B8EEC11A90EDC2
:104EB000002ADFED2F2A01EE222AB0EE001A72EE50
:104EC000200A40EE010A31EEA00A10BDF7EE000AFA
:104ED0009FED291A30EE600ADFED260A00EE201A57
:104EE000DFED260A60EE001A40EE010A9FED241A5B
:104EF00000EE201A61EE810A30EE200A10BD4FF05C
:104F00007F41B1EB400F03D2BDE8104000F078BB09
:104F1000B0F1FF4F08BF10BDB5EEC00AF1EE10FAB8
:104F200006D20120FBF798FABDE8104000F06EBBF6
:104F3000B5EEC00AF1EE10FA07D10220FBF78CFAA9
:104F400000F054FBB1EE400A10BDDFED0E0A6FF029
:104F5000160320EE200A10EE100A69E766F1CC3E37
:104F6000AAAA2A3F480E00000070313F4C0E0000F4
:104F7000F4FD053821ED423E0A1180BEC1ABAA3EC8
:104F8000FFFFFFBE0000004B10B510EE100A2DED24
:104F9000068BB7EE001A10EE901AB0EE418A00228E
:104FA000A0F5000CDFEDFE9A4FF00073BCF1FE4F50
:104FB0004FF07F4403EB410C80F0B481BCF1804F93
:104FC000C0F02082F74901449FEDF73AB1F5005F48
:104FD00040F2D48200F58021CB0C03F00F0101EEEA
:104FE000901AC3F307137F3BA0EBC350B8EEE12A3E
:104FF00000EE100A1A44DFEDED2AF0EE411A42EEFF
:10500000221AF0EE613A70EE232A30EE632A12EE95
:10501000900A00F500606FF30B0001EE900A73EE4A
:10502000E13A33EE804AC1EE223A22EE230A10EE34
:10503000100A00F500606FF30B0000EE100A00EE9E
:10504000612A00EE442A62EE232A70EE221A21EE33
:10505000A12ADFEDD73A02EE233A23EE023A20EE00
:10506000012A22EE811A03EE211A32EE010A10EE15
:10507000100A00F500606FF30B0000EE100A72EEEC
:10508000401A31EE812A9FEDCB1A60EE011A9FED96
:10509000CA1A20EE011A9FEDC90A02EE001A31EE7B
:1050A000810A10EE100A00F500606FF30B0000EEAD
:1050B000100AC34871EEC01A31EE812A784400EB21
:1050C000C10090ED003AD0ED011A100101EE100A76
:1050D000F8EEC12A32EE211A31EE001A31EE031A2F
:1050E00031EE221A11EE100A00F500606FF30B008A
:1050F00009EE100A39EE621A31EE431A31EE400A17
:1051000030EE610A32EE40AA10EE900A002100F55E
:1051100000606FF30B0008EE900A084670EEE8AAF4
:105120004FF0000029EE280A00F00C01F0EEC00A52
:1051300010EE900AB0F18B4F0DDD10EE900AB4EB3B
:10514000400F08D310EE100A4FF08B4262F31E009E
:1051500008EE900A13E069EE2A0A38EEAA1A4AEE1F
:10516000010A30EE201A11EE100A00F500606FF30C
:105170000B0008EE900A30EE680A70EE209A0C20C0
:105180004FF0000038EEA90AB5EEC00AF1EE10FAB1
:1051900034BFFEEE000AF6EE000A30EE800ABDEEE5
:1051A000C00A10EE100A011100EE101AF8EEC00A43
:1051B00000EE100AB8EEC00A38EEC00A30EE290A36
:1051C000DFED801A9FED801A00EE211ADFED7F1AC5
:1051D0007F4900F00F0040EE011A21EE800A794469
:1051E00001EB800191ED001A7A49794401EB8001CD
:1051F000D1ED001A784901EE801A794401EB800064
:10520000764990ED000A31EE001AB0EEE00A10EE99
:10521000100A884215DA10EE100AB4EB400F10D3D2
:105220009FED6F0A30EE800ADFED6E0A20EE200A55
:1052300068EE010ABDEC068BBCEEC00A20EE200A27
:1052400010BD10EE100A6849884243DA10EE100AC9
:10525000B4EB400F3ED3BDEEE00A68EE010A10EE5B
:10526000100A00EBD0725110C90501F17E5100EE19
:10527000101AA0EB6200C00560EE200A00F17E501B
:1052800000EE100A60EE808A18EE900AB4EB400F30
:105290000FD10220FBF7E0F800F0C0F910EE101A71
:1052A00018EE100ABDEC068B61F31E0000EE100A2A
:1052B00010BD18EE900A400011D018EE900AFFF7CA
:1052C00099FD042808BF00F0B1F9B0EE680ABDEC02
:1052D000068B10BDF5EEC00AF1EE10FA0FD20220D7
:1052E000FBF7BAF800F0A2F910EE101A18EE100A47
:1052F000BDEC068B61F31E0000EE100A10BD02200B
:10530000FBF7AAF800F08AF910EE101AB0EE480A7E
:1053100010EE100ABDEC068B61F31E0000EE100AC1
:1053200010BD00BFBCF1804F6CD300BF00F1FF4344
:10533000B3F1FE4F24D200BFB0EEC00A10EE100A47
:10534000C1F3C7537F2B0DDB972BBFF63BAEC3F1E9
:1053500096034FF0010C0CFA03F3A3F1010C1CEAC5
:10536000010F08D00120FBF777F8BDEC068BBDE8F4
:10537000104000F04BB90B4218BFBFEE008A21E687
:1053800043001CBF4FF08073B3EB400F34D96FF074
:105390001A02DFED161A20EE210A10EE100A27E09D
:1053A00000000000001080C0ABAAAA3E0000803DB3
:1053B0007EE24C3E00B03842D49AB8BB3BAA384299
:1053C000500C0000FC596337C9FF753A1872313D23
:1053D000EE0B0000220C0000920B00000000FC42CB
:1053E0000000FE420000004B000040430000004D62
:1053F00010F0004FA0D1E5E5A0F50003B3F1FE4F9A
:1054000021D2DFE503EB4103B3F1007F11D3F5EEC9
:10541000C00AF1EE10FA05D1430018BFB4EB400FFB
:1054200076D883E701F0004141F0FC5100EE901A7C
:105430007CE7B3F1807F06D210EE903AA3F500032B
:1054400000EE903A72E720F000426FF0FF4C604CA3
:1054500002EB0C03A34210D321F000439C44A4456B
:105460000BD3B0F17E5F18BF5FEA410C50D0B2F1B0
:10547000FF4F98BFB3F1FF4F05D9BDEC068BBDE8D8
:10548000104000F0C0B8B0F1FF4F0FD0C1F3C752C9
:105490007F2A09DB972A11DAC2F19602012303FA67
:1054A00002F2531E0B4205D0002208E011F0004F1B
:1054B00055D128E00A4218BF012200D1022210F57E
:1054C000000F13D028B3B0F1004F26D010F1814F58
:1054D0004FD04FF0FE42B2EB400F94BF01200020AE
:1054E000012202EBE171884239D10CE011F0004F4A
:1054F00002D0012A38D032E0012A02BF9FED350ADE
:10550000BDEC068B10BD9FED340ABDEC068B10BDC3
:105510002FE011F0004F0CD121E0B1F1FF4F1ED070
:1055200011F5000F05D011F0004F15D00AB1012A76
:1055300008D00220FAF790FFBDEC068BBDE81040C2
:1055400000F054B80220FAF787FF00F04FF8BDECE6
:10555000068BB1EE400A10BD0AB1012A04D0B0EEAC
:10556000690ABDEC068B10BDBDEC068B9FED1B0AD6
:1055700010BDBDEC068BB7EE000A10BD30EE410A3F
:10558000B5EE001A9FED172A00EE413AB6EE001A6A
:1055900060EE001A00EE431A61EEC11A9FED101A78
:1055A00020EE011A20EE020A9FED0F2A01EE820A78
:1055B00071EE001A11EE900A00F500606FF30B0017
:1055C00009EE100A31EE491A31EE00AA9CE50000FE
:1055D000FFFF3F00000080FF0000807F0000008090
:1055E00000B0B841D49A38BB3BAAB841DFED030AFA
:1055F000B7EE001A81EE200A70470000000000009C
:1056000030EE000A704730EE200A7047DFED020AE4
:1056100080EEA00A70470000000000009FED020A23
:1056200020EE000A70470000000000709FED020AA3
:1056300020EE000A704700000000001021F0004238
:1056400001F00043A2F16052B2F5801F28BFD2F1F1
:105650007F6C0BD95FEA001C43EAC20242EB507038
:1056600018BF704728BF20F001007047B2F5801FB7
:10567000BCBF184670474FEA410C1CF5001F02D210
:10568000084600F01FBB70B500F05CF9000000890F
:10569000FFF7F6BF4FF00040A0F580007047000014
:1056A00010B591EA030F48BF83F0004300F1A681D3
:1056B000841A71EB030C05D2121943EB0C03001B87
:1056C00061EB0C014FEA1154A4EB135CDFF81CE111
:1056D0001EEA430F18BF9EEA445F00F0748021EA7F
:1056E000045123EA0E0343F48013DCF1200E32D37D
:1056F00022FA0CFE10EB0E0023FA0CFE41EB0E0119
:10570000CCF1200E03FA0EFE10EB0E00CCF1200EB1
:1057100051F10001B1F5801F32D201EB045112FAB0
:105720000EF2BDE8104058BF7047401C38BF5FEA1A
:10573000420218BF7047002814BF20F0010041F159
:1057400000014FEA410313F5001F38BF7047A1F174
:10575000C04100F045B9012A43EB0302ACF1200C33
:10576000DCF11F0E32BF4FF0000E23FA0CF310EBEA
:10577000030041EB0451B4EB115FD0D0A1EB045115
:1057800001F58011490801EB04515FEA30000ED3A6
:1057900050F1000038BF12FA0EFE08D1BDE81040EB
:1057A000C9E7401C38BF5FEA4202CAD1C3E7BDE87F
:1057B00010404FEA410313F5001F38BF7047A1F1B5
:1057C000C04100F00DB99EEA445F08D011EA5E0FB7
:1057D000BDE8104004BF01F0004100207047BDE863
:1057E000104070B500F0AEF864FBBE3E0000E0FF74
:1057F00070B5DFF848C11CEA111E1EBF1CEA131564
:105800009EEA0C0F95EA0C0F00F06F8081EA03040A
:105810004EEAD47EAE4421EA4C1123EA4C1341F403
:10582000801143F48013AEF17F7EA1FB024CA0FBFC
:105830000365361955EB0C05A1FB034C4CF1000335
:10584000A0FB021C16EB0C06654153F10003094254
:1058500018BF46F0010613F4007F0BD14FEA033165
:105860004FEA053041EA155140EA165034036FF013
:1058700003020AE04FEAC3214FEAC52041EA55512D
:1058800040EA5650F4026FF0020202EB2E4201EBA6
:10589000025585EACE710AD05FEA440C18BF24F0A5
:1058A000004450F1000041F1000120EAD47040F2C0
:1058B000FE7C624500D270BDA84214BF4FF0804408
:1058C0004FF04044002E08BF0024BEF1806FA8BFF7
:1058D000A1F1C041BDE8704080F2828001F1C04179
:1058E00001F000414FF0000070470CEA13159EEAEA
:1058F0000C0F18BF95EA0C0F06D081EA030E4FF08B
:1059000000000EF0004170BD00F01CF88900013E5F
:1059100000F007B800F009B84FEA430C5FEA5C5C9E
:1059200008D081EA030100F05BB84FEA410C5FEA5E
:105930005C5CF6D102494FF0000070470000FF07A1
:105940000000F87F0EF1020E2EF0030E5EF8046BDD
:10595000364205D4012A43EB030515F5001F12D882
:10596000012841EB010C1CF5001F0CD80ED14FEAA9
:10597000D17C0CEB4C0C0CF1020C15F5001F08BF90
:105980004CEBD37C04E04FF0080C01E04FEAD37CF1
:105990000CEB4C0526FA05F606F00706B6F1040CEA
:1059A00006D20EEB860CBDE870404CF0010C60474F
:1059B000DFE80CF0090B02024FF00041A1F50021D5
:1059C0004FF0000070BD19461046012851EB01044C
:1059D00018BFD4F5001484BF002001F0004170BD51
:1059E0000808A0F500114FEA3101704710B591EA9F
:1059F000030F48BF83F000433FF55AAE841A71EBA2
:105A0000030C07D28CF0004C121943EB0C03001B63
:105A100061EB0C014FEA1154A4EB135CDFF8A4E135
:105A20001EEA430F18BF9EEA445F00F0B48021EAEB
:105A3000045123EA6E035242C3EB6E0338BF5B1E70
:105A4000DCF1200E25D322FA0CFE10EB0E0043FAF7
:105A50000CFE41EB0E01CCF1200E03FA0EFE10EB12
:105A60000E00CCF1200E51F1000129D401EB0451BC
:105A700012FA0EF2BDE8104058BF7047401C1CBF20
:105A8000B2F1004F704700280CBF491C20F0010004
:105A9000704712EB020E43EB030218BF4FF0010EEA
:105AA0004EEA4202ACF1200CDCF11E0E56D943FA4C
:105AB0000CFE10EB0E00CCF11E0E51F1FF31D5D5CE
:105AC0000EF1010E12FA0EFE404141EB010101EB15
:105AD000445C5FEA5C5C10D901EB045110EBDE70B2
